{
	"contracts/voting.sol": {
		"EVoting": {
			"abi": [
				{
					"inputs": [],
					"stateMutability": "nonpayable",
					"type": "constructor"
				},
				{
					"anonymous": false,
					"inputs": [],
					"name": "ElectionEnded",
					"type": "event"
				},
				{
					"anonymous": false,
					"inputs": [],
					"name": "ElectionStarted",
					"type": "event"
				},
				{
					"anonymous": false,
					"inputs": [
						{
							"indexed": false,
							"internalType": "address",
							"name": "voter",
							"type": "address"
						},
						{
							"indexed": false,
							"internalType": "uint256",
							"name": "candidateIndex",
							"type": "uint256"
						}
					],
					"name": "VoteCasted",
					"type": "event"
				},
				{
					"anonymous": false,
					"inputs": [
						{
							"indexed": false,
							"internalType": "address",
							"name": "voter",
							"type": "address"
						}
					],
					"name": "VoterRegistered",
					"type": "event"
				},
				{
					"inputs": [
						{
							"internalType": "uint256",
							"name": "",
							"type": "uint256"
						}
					],
					"name": "candidates",
					"outputs": [
						{
							"internalType": "string",
							"name": "name",
							"type": "string"
						},
						{
							"internalType": "uint256",
							"name": "voteCount",
							"type": "uint256"
						}
					],
					"stateMutability": "view",
					"type": "function"
				},
				{
					"inputs": [],
					"name": "electionCommission",
					"outputs": [
						{
							"internalType": "address",
							"name": "",
							"type": "address"
						}
					],
					"stateMutability": "view",
					"type": "function"
				},
				{
					"inputs": [],
					"name": "electionStarted",
					"outputs": [
						{
							"internalType": "bool",
							"name": "",
							"type": "bool"
						}
					],
					"stateMutability": "view",
					"type": "function"
				},
				{
					"inputs": [],
					"name": "endElection",
					"outputs": [],
					"stateMutability": "nonpayable",
					"type": "function"
				},
				{
					"inputs": [],
					"name": "getCandidateCount",
					"outputs": [
						{
							"internalType": "uint256",
							"name": "",
							"type": "uint256"
						}
					],
					"stateMutability": "view",
					"type": "function"
				},
				{
					"inputs": [
						{
							"internalType": "uint256",
							"name": "candidateIndex",
							"type": "uint256"
						}
					],
					"name": "getCandidateVoteCount",
					"outputs": [
						{
							"internalType": "uint256",
							"name": "",
							"type": "uint256"
						}
					],
					"stateMutability": "view",
					"type": "function"
				},
				{
					"inputs": [],
					"name": "getWinner",
					"outputs": [
						{
							"internalType": "string",
							"name": "winnerName",
							"type": "string"
						}
					],
					"stateMutability": "view",
					"type": "function"
				},
				{
					"inputs": [
						{
							"internalType": "string",
							"name": "_name",
							"type": "string"
						}
					],
					"name": "registerCandidate",
					"outputs": [],
					"stateMutability": "nonpayable",
					"type": "function"
				},
				{
					"inputs": [
						{
							"internalType": "address",
							"name": "_voter",
							"type": "address"
						}
					],
					"name": "registerVoter",
					"outputs": [],
					"stateMutability": "nonpayable",
					"type": "function"
				},
				{
					"inputs": [],
					"name": "startElection",
					"outputs": [],
					"stateMutability": "nonpayable",
					"type": "function"
				},
				{
					"inputs": [
						{
							"internalType": "uint256",
							"name": "candidateIndex",
							"type": "uint256"
						}
					],
					"name": "vote",
					"outputs": [],
					"stateMutability": "nonpayable",
					"type": "function"
				},
				{
					"inputs": [
						{
							"internalType": "address",
							"name": "",
							"type": "address"
						}
					],
					"name": "voters",
					"outputs": [
						{
							"internalType": "bool",
							"name": "isRegistered",
							"type": "bool"
						},
						{
							"internalType": "bool",
							"name": "hasVoted",
							"type": "bool"
						},
						{
							"internalType": "uint256",
							"name": "vote",
							"type": "uint256"
						}
					],
					"stateMutability": "view",
					"type": "function"
				}
			],
			"devdoc": {
				"kind": "dev",
				"methods": {},
				"version": 1
			},
			"evm": {
				"assembly": "    /* \"contracts/voting.sol\":60:3686  contract EVoting {... */\n  mstore(0x40, 0x80)\n    /* \"contracts/voting.sol\":940:1038  constructor() {... */\n  callvalue\n  dup1\n  iszero\n  tag_1\n  jumpi\n  0x00\n  dup1\n  revert\ntag_1:\n  pop\n    /* \"contracts/voting.sol\":986:996  msg.sender */\n  caller\n    /* \"contracts/voting.sol\":965:983  electionCommission */\n  0x00\n  dup1\n    /* \"contracts/voting.sol\":965:996  electionCommission = msg.sender */\n  0x0100\n  exp\n  dup2\n  sload\n  dup2\n  0xffffffffffffffffffffffffffffffffffffffff\n  mul\n  not\n  and\n  swap1\n  dup4\n  0xffffffffffffffffffffffffffffffffffffffff\n  and\n  mul\n  or\n  swap1\n  sstore\n  pop\n    /* \"contracts/voting.sol\":1025:1030  false */\n  0x00\n    /* \"contracts/voting.sol\":1007:1022  electionStarted */\n  0x03\n  0x00\n    /* \"contracts/voting.sol\":1007:1030  electionStarted = false */\n  0x0100\n  exp\n  dup2\n  sload\n  dup2\n  0xff\n  mul\n  not\n  and\n  swap1\n  dup4\n  iszero\n  iszero\n  mul\n  or\n  swap1\n  sstore\n  pop\n    /* \"contracts/voting.sol\":60:3686  contract EVoting {... */\n  dataSize(sub_0)\n  dup1\n  dataOffset(sub_0)\n  0x00\n  codecopy\n  0x00\n  return\nstop\n\nsub_0: assembly {\n        /* \"contracts/voting.sol\":60:3686  contract EVoting {... */\n      mstore(0x40, 0x80)\n      callvalue\n      dup1\n      iszero\n      tag_1\n      jumpi\n      0x00\n      dup1\n      revert\n    tag_1:\n      pop\n      jumpi(tag_2, lt(calldatasize, 0x04))\n      shr(0xe0, calldataload(0x00))\n      dup1\n      0x8e7ea5b2\n      gt\n      tag_15\n      jumpi\n      dup1\n      0x8e7ea5b2\n      eq\n      tag_9\n      jumpi\n      dup1\n      0x9eb88db6\n      eq\n      tag_10\n      jumpi\n      dup1\n      0xa3ec138d\n      eq\n      tag_11\n      jumpi\n      dup1\n      0xaab46b7f\n      eq\n      tag_12\n      jumpi\n      dup1\n      0xb315c597\n      eq\n      tag_13\n      jumpi\n      dup1\n      0xd5346da1\n      eq\n      tag_14\n      jumpi\n      jump(tag_2)\n    tag_15:\n      dup1\n      0x0121b93f\n      eq\n      tag_3\n      jumpi\n      dup1\n      0x30a56347\n      eq\n      tag_4\n      jumpi\n      dup1\n      0x3477ee2e\n      eq\n      tag_5\n      jumpi\n      dup1\n      0x38db6dd3\n      eq\n      tag_6\n      jumpi\n      dup1\n      0x59f78468\n      eq\n      tag_7\n      jumpi\n      dup1\n      0x62d73eb8\n      eq\n      tag_8\n      jumpi\n    tag_2:\n      0x00\n      dup1\n      revert\n        /* \"contracts/voting.sol\":2052:2630  function vote(uint256 candidateIndex) public onlyDuringElection {... */\n    tag_3:\n      tag_16\n      0x04\n      dup1\n      calldatasize\n      sub\n      dup2\n      add\n      swap1\n      tag_17\n      swap2\n      swap1\n      tag_18\n      jump\t// in\n    tag_17:\n      tag_19\n      jump\t// in\n    tag_16:\n      stop\n        /* \"contracts/voting.sol\":2983:3085  function getCandidateCount() public view returns (uint256) {... */\n    tag_4:\n      tag_20\n      tag_21\n      jump\t// in\n    tag_20:\n      mload(0x40)\n      tag_22\n      swap2\n      swap1\n      tag_23\n      jump\t// in\n    tag_22:\n      mload(0x40)\n      dup1\n      swap2\n      sub\n      swap1\n      return\n        /* \"contracts/voting.sol\":407:436  Candidate[] public candidates */\n    tag_5:\n      tag_24\n      0x04\n      dup1\n      calldatasize\n      sub\n      dup2\n      add\n      swap1\n      tag_25\n      swap2\n      swap1\n      tag_18\n      jump\t// in\n    tag_25:\n      tag_26\n      jump\t// in\n    tag_24:\n      mload(0x40)\n      tag_27\n      swap3\n      swap2\n      swap1\n      tag_28\n      jump\t// in\n    tag_27:\n      mload(0x40)\n      dup1\n      swap2\n      sub\n      swap1\n      return\n        /* \"contracts/voting.sol\":1265:1509  function registerVoter(address _voter) public onlyElectionCommission {... */\n    tag_6:\n      tag_29\n      0x04\n      dup1\n      calldatasize\n      sub\n      dup2\n      add\n      swap1\n      tag_30\n      swap2\n      swap1\n      tag_31\n      jump\t// in\n    tag_30:\n      tag_32\n      jump\t// in\n    tag_29:\n      stop\n        /* \"contracts/voting.sol\":1867:2012  function endElection() public onlyElectionCommission onlyDuringElection {... */\n    tag_7:\n      tag_33\n      tag_34\n      jump\t// in\n    tag_33:\n      stop\n        /* \"contracts/voting.sol\":1556:1822  function startElection() public onlyElectionCommission {... */\n    tag_8:\n      tag_35\n      tag_36\n      jump\t// in\n    tag_35:\n      stop\n        /* \"contracts/voting.sol\":3138:3683  function getWinner() public view returns (string memory winnerName) {... */\n    tag_9:\n      tag_37\n      tag_38\n      jump\t// in\n    tag_37:\n      mload(0x40)\n      tag_39\n      swap2\n      swap1\n      tag_40\n      jump\t// in\n    tag_39:\n      mload(0x40)\n      dup1\n      swap2\n      sub\n      swap1\n      return\n        /* \"contracts/voting.sol\":1087:1220  function registerCandidate(string memory _name) public onlyElectionCommission {... */\n    tag_10:\n      tag_41\n      0x04\n      dup1\n      calldatasize\n      sub\n      dup2\n      add\n      swap1\n      tag_42\n      swap2\n      swap1\n      tag_43\n      jump\t// in\n    tag_42:\n      tag_44\n      jump\t// in\n    tag_41:\n      stop\n        /* \"contracts/voting.sol\":361:400  mapping(address => Voter) public voters */\n    tag_11:\n      tag_45\n      0x04\n      dup1\n      calldatasize\n      sub\n      dup2\n      add\n      swap1\n      tag_46\n      swap2\n      swap1\n      tag_31\n      jump\t// in\n    tag_46:\n      tag_47\n      jump\t// in\n    tag_45:\n      mload(0x40)\n      tag_48\n      swap4\n      swap3\n      swap2\n      swap1\n      tag_49\n      jump\t// in\n    tag_48:\n      mload(0x40)\n      dup1\n      swap2\n      sub\n      swap1\n      return\n        /* \"contracts/voting.sol\":321:354  address public electionCommission */\n    tag_12:\n      tag_50\n      tag_51\n      jump\t// in\n    tag_50:\n      mload(0x40)\n      tag_52\n      swap2\n      swap1\n      tag_53\n      jump\t// in\n    tag_52:\n      mload(0x40)\n      dup1\n      swap2\n      sub\n      swap1\n      return\n        /* \"contracts/voting.sol\":2692:2920  function getCandidateVoteCount(uint256 candidateIndex) public view returns (uint256) {... */\n    tag_13:\n      tag_54\n      0x04\n      dup1\n      calldatasize\n      sub\n      dup2\n      add\n      swap1\n      tag_55\n      swap2\n      swap1\n      tag_18\n      jump\t// in\n    tag_55:\n      tag_56\n      jump\t// in\n    tag_54:\n      mload(0x40)\n      tag_57\n      swap2\n      swap1\n      tag_23\n      jump\t// in\n    tag_57:\n      mload(0x40)\n      dup1\n      swap2\n      sub\n      swap1\n      return\n        /* \"contracts/voting.sol\":443:470  bool public electionStarted */\n    tag_14:\n      tag_58\n      tag_59\n      jump\t// in\n    tag_58:\n      mload(0x40)\n      tag_60\n      swap2\n      swap1\n      tag_61\n      jump\t// in\n    tag_60:\n      mload(0x40)\n      dup1\n      swap2\n      sub\n      swap1\n      return\n        /* \"contracts/voting.sol\":2052:2630  function vote(uint256 candidateIndex) public onlyDuringElection {... */\n    tag_19:\n        /* \"contracts/voting.sol\":871:875  true */\n      0x01\n        /* \"contracts/voting.sol\":852:875  electionStarted == true */\n      iszero\n      iszero\n        /* \"contracts/voting.sol\":852:867  electionStarted */\n      0x03\n      0x00\n      swap1\n      sload\n      swap1\n      0x0100\n      exp\n      swap1\n      div\n      0xff\n      and\n        /* \"contracts/voting.sol\":852:875  electionStarted == true */\n      iszero\n      iszero\n      eq\n        /* \"contracts/voting.sol\":844:912  require(electionStarted == true, \"Election is not currently active\") */\n      tag_63\n      jumpi\n      mload(0x40)\n      0x08c379a000000000000000000000000000000000000000000000000000000000\n      dup2\n      mstore\n      0x04\n      add\n      tag_64\n      swap1\n      tag_65\n      jump\t// in\n    tag_64:\n      mload(0x40)\n      dup1\n      swap2\n      sub\n      swap1\n      revert\n    tag_63:\n        /* \"contracts/voting.sol\":2127:2147  Voter storage sender */\n      0x00\n        /* \"contracts/voting.sol\":2150:2156  voters */\n      0x01\n        /* \"contracts/voting.sol\":2150:2168  voters[msg.sender] */\n      0x00\n        /* \"contracts/voting.sol\":2157:2167  msg.sender */\n      caller\n        /* \"contracts/voting.sol\":2150:2168  voters[msg.sender] */\n      0xffffffffffffffffffffffffffffffffffffffff\n      and\n      0xffffffffffffffffffffffffffffffffffffffff\n      and\n      dup2\n      mstore\n      0x20\n      add\n      swap1\n      dup2\n      mstore\n      0x20\n      add\n      0x00\n      keccak256\n        /* \"contracts/voting.sol\":2127:2168  Voter storage sender = voters[msg.sender] */\n      swap1\n      pop\n        /* \"contracts/voting.sol\":2187:2193  sender */\n      dup1\n        /* \"contracts/voting.sol\":2187:2206  sender.isRegistered */\n      0x00\n      add\n      0x00\n      swap1\n      sload\n      swap1\n      0x0100\n      exp\n      swap1\n      div\n      0xff\n      and\n        /* \"contracts/voting.sol\":2179:2241  require(sender.isRegistered, \"You are not registered to vote\") */\n      tag_67\n      jumpi\n      mload(0x40)\n      0x08c379a000000000000000000000000000000000000000000000000000000000\n      dup2\n      mstore\n      0x04\n      add\n      tag_68\n      swap1\n      tag_69\n      jump\t// in\n    tag_68:\n      mload(0x40)\n      dup1\n      swap2\n      sub\n      swap1\n      revert\n    tag_67:\n        /* \"contracts/voting.sol\":2261:2267  sender */\n      dup1\n        /* \"contracts/voting.sol\":2261:2276  sender.hasVoted */\n      0x00\n      add\n      0x01\n      swap1\n      sload\n      swap1\n      0x0100\n      exp\n      swap1\n      div\n      0xff\n      and\n        /* \"contracts/voting.sol\":2260:2276  !sender.hasVoted */\n      iszero\n        /* \"contracts/voting.sol\":2252:2303  require(!sender.hasVoted, \"You have already voted\") */\n      tag_70\n      jumpi\n      mload(0x40)\n      0x08c379a000000000000000000000000000000000000000000000000000000000\n      dup2\n      mstore\n      0x04\n      add\n      tag_71\n      swap1\n      tag_72\n      jump\t// in\n    tag_71:\n      mload(0x40)\n      dup1\n      swap2\n      sub\n      swap1\n      revert\n    tag_70:\n        /* \"contracts/voting.sol\":2339:2349  candidates */\n      0x02\n        /* \"contracts/voting.sol\":2339:2356  candidates.length */\n      dup1\n      sload\n      swap1\n      pop\n        /* \"contracts/voting.sol\":2322:2336  candidateIndex */\n      dup3\n        /* \"contracts/voting.sol\":2322:2356  candidateIndex < candidates.length */\n      lt\n        /* \"contracts/voting.sol\":2314:2384  require(candidateIndex < candidates.length, \"Invalid candidate index\") */\n      tag_73\n      jumpi\n      mload(0x40)\n      0x08c379a000000000000000000000000000000000000000000000000000000000\n      dup2\n      mstore\n      0x04\n      add\n      tag_74\n      swap1\n      tag_75\n      jump\t// in\n    tag_74:\n      mload(0x40)\n      dup1\n      swap2\n      sub\n      swap1\n      revert\n    tag_73:\n        /* \"contracts/voting.sol\":2415:2419  true */\n      0x01\n        /* \"contracts/voting.sol\":2397:2403  sender */\n      dup2\n        /* \"contracts/voting.sol\":2397:2412  sender.hasVoted */\n      0x00\n      add\n      0x01\n        /* \"contracts/voting.sol\":2397:2419  sender.hasVoted = true */\n      0x0100\n      exp\n      dup2\n      sload\n      dup2\n      0xff\n      mul\n      not\n      and\n      swap1\n      dup4\n      iszero\n      iszero\n      mul\n      or\n      swap1\n      sstore\n      pop\n        /* \"contracts/voting.sol\":2444:2458  candidateIndex */\n      dup2\n        /* \"contracts/voting.sol\":2430:2436  sender */\n      dup2\n        /* \"contracts/voting.sol\":2430:2441  sender.vote */\n      0x01\n      add\n        /* \"contracts/voting.sol\":2430:2458  sender.vote = candidateIndex */\n      dup2\n      swap1\n      sstore\n      pop\n        /* \"contracts/voting.sol\":2565:2566  1 */\n      0x01\n        /* \"contracts/voting.sol\":2525:2535  candidates */\n      0x02\n        /* \"contracts/voting.sol\":2536:2550  candidateIndex */\n      dup4\n        /* \"contracts/voting.sol\":2525:2551  candidates[candidateIndex] */\n      dup2\n      sload\n      dup2\n      lt\n      tag_76\n      jumpi\n      tag_77\n      tag_78\n      jump\t// in\n    tag_77:\n    tag_76:\n      swap1\n      0x00\n      mstore\n      keccak256(0x00, 0x20)\n      swap1\n      0x02\n      mul\n      add\n        /* \"contracts/voting.sol\":2525:2561  candidates[candidateIndex].voteCount */\n      0x01\n      add\n      0x00\n        /* \"contracts/voting.sol\":2525:2566  candidates[candidateIndex].voteCount += 1 */\n      dup3\n      dup3\n      sload\n      tag_80\n      swap2\n      swap1\n      tag_81\n      jump\t// in\n    tag_80:\n      swap3\n      pop\n      pop\n      dup2\n      swap1\n      sstore\n      pop\n        /* \"contracts/voting.sol\":2584:2622  VoteCasted(msg.sender, candidateIndex) */\n      0xd0e6c39f2e086dc49f1524b47725526a56945cd1ff661f37976f1725a1e56986\n        /* \"contracts/voting.sol\":2595:2605  msg.sender */\n      caller\n        /* \"contracts/voting.sol\":2607:2621  candidateIndex */\n      dup4\n        /* \"contracts/voting.sol\":2584:2622  VoteCasted(msg.sender, candidateIndex) */\n      mload(0x40)\n      tag_82\n      swap3\n      swap2\n      swap1\n      tag_83\n      jump\t// in\n    tag_82:\n      mload(0x40)\n      dup1\n      swap2\n      sub\n      swap1\n      log1\n        /* \"contracts/voting.sol\":2116:2630  {... */\n      pop\n        /* \"contracts/voting.sol\":2052:2630  function vote(uint256 candidateIndex) public onlyDuringElection {... */\n      pop\n      jump\t// out\n        /* \"contracts/voting.sol\":2983:3085  function getCandidateCount() public view returns (uint256) {... */\n    tag_21:\n        /* \"contracts/voting.sol\":3033:3040  uint256 */\n      0x00\n        /* \"contracts/voting.sol\":3060:3070  candidates */\n      0x02\n        /* \"contracts/voting.sol\":3060:3077  candidates.length */\n      dup1\n      sload\n      swap1\n      pop\n        /* \"contracts/voting.sol\":3053:3077  return candidates.length */\n      swap1\n      pop\n        /* \"contracts/voting.sol\":2983:3085  function getCandidateCount() public view returns (uint256) {... */\n      swap1\n      jump\t// out\n        /* \"contracts/voting.sol\":407:436  Candidate[] public candidates */\n    tag_26:\n      0x02\n      dup2\n      dup2\n      sload\n      dup2\n      lt\n      tag_85\n      jumpi\n      0x00\n      dup1\n      revert\n    tag_85:\n      swap1\n      0x00\n      mstore\n      keccak256(0x00, 0x20)\n      swap1\n      0x02\n      mul\n      add\n      0x00\n      swap2\n      pop\n      swap1\n      pop\n      dup1\n      0x00\n      add\n      dup1\n      sload\n      tag_87\n      swap1\n      tag_88\n      jump\t// in\n    tag_87:\n      dup1\n      0x1f\n      add\n      0x20\n      dup1\n      swap2\n      div\n      mul\n      0x20\n      add\n      mload(0x40)\n      swap1\n      dup2\n      add\n      0x40\n      mstore\n      dup1\n      swap3\n      swap2\n      swap1\n      dup2\n      dup2\n      mstore\n      0x20\n      add\n      dup3\n      dup1\n      sload\n      tag_89\n      swap1\n      tag_88\n      jump\t// in\n    tag_89:\n      dup1\n      iszero\n      tag_90\n      jumpi\n      dup1\n      0x1f\n      lt\n      tag_91\n      jumpi\n      0x0100\n      dup1\n      dup4\n      sload\n      div\n      mul\n      dup4\n      mstore\n      swap2\n      0x20\n      add\n      swap2\n      jump(tag_90)\n    tag_91:\n      dup3\n      add\n      swap2\n      swap1\n      0x00\n      mstore\n      keccak256(0x00, 0x20)\n      swap1\n    tag_92:\n      dup2\n      sload\n      dup2\n      mstore\n      swap1\n      0x01\n      add\n      swap1\n      0x20\n      add\n      dup1\n      dup4\n      gt\n      tag_92\n      jumpi\n      dup3\n      swap1\n      sub\n      0x1f\n      and\n      dup3\n      add\n      swap2\n    tag_90:\n      pop\n      pop\n      pop\n      pop\n      pop\n      swap1\n      dup1\n      0x01\n      add\n      sload\n      swap1\n      pop\n      dup3\n      jump\t// out\n        /* \"contracts/voting.sol\":1265:1509  function registerVoter(address _voter) public onlyElectionCommission {... */\n    tag_32:\n        /* \"contracts/voting.sol\":711:729  electionCommission */\n      0x00\n      dup1\n      sload\n      swap1\n      0x0100\n      exp\n      swap1\n      div\n      0xffffffffffffffffffffffffffffffffffffffff\n      and\n        /* \"contracts/voting.sol\":697:729  msg.sender == electionCommission */\n      0xffffffffffffffffffffffffffffffffffffffff\n      and\n        /* \"contracts/voting.sol\":697:707  msg.sender */\n      caller\n        /* \"contracts/voting.sol\":697:729  msg.sender == electionCommission */\n      0xffffffffffffffffffffffffffffffffffffffff\n      and\n      eq\n        /* \"contracts/voting.sol\":689:775  require(msg.sender == electionCommission, \"Only election commission can execute this\") */\n      tag_94\n      jumpi\n      mload(0x40)\n      0x08c379a000000000000000000000000000000000000000000000000000000000\n      dup2\n      mstore\n      0x04\n      add\n      tag_95\n      swap1\n      tag_96\n      jump\t// in\n    tag_95:\n      mload(0x40)\n      dup1\n      swap2\n      sub\n      swap1\n      revert\n    tag_94:\n        /* \"contracts/voting.sol\":1354:1360  voters */\n      0x01\n        /* \"contracts/voting.sol\":1354:1368  voters[_voter] */\n      0x00\n        /* \"contracts/voting.sol\":1361:1367  _voter */\n      dup3\n        /* \"contracts/voting.sol\":1354:1368  voters[_voter] */\n      0xffffffffffffffffffffffffffffffffffffffff\n      and\n      0xffffffffffffffffffffffffffffffffffffffff\n      and\n      dup2\n      mstore\n      0x20\n      add\n      swap1\n      dup2\n      mstore\n      0x20\n      add\n      0x00\n      keccak256\n        /* \"contracts/voting.sol\":1354:1381  voters[_voter].isRegistered */\n      0x00\n      add\n      0x00\n      swap1\n      sload\n      swap1\n      0x0100\n      exp\n      swap1\n      div\n      0xff\n      and\n        /* \"contracts/voting.sol\":1353:1381  !voters[_voter].isRegistered */\n      iszero\n        /* \"contracts/voting.sol\":1345:1413  require(!voters[_voter].isRegistered, \"Voter is already registered\") */\n      tag_98\n      jumpi\n      mload(0x40)\n      0x08c379a000000000000000000000000000000000000000000000000000000000\n      dup2\n      mstore\n      0x04\n      add\n      tag_99\n      swap1\n      tag_100\n      jump\t// in\n    tag_99:\n      mload(0x40)\n      dup1\n      swap2\n      sub\n      swap1\n      revert\n    tag_98:\n        /* \"contracts/voting.sol\":1441:1462  Voter(true, false, 0) */\n      mload(0x40)\n      dup1\n      0x60\n      add\n      0x40\n      mstore\n      dup1\n        /* \"contracts/voting.sol\":1447:1451  true */\n      0x01\n        /* \"contracts/voting.sol\":1441:1462  Voter(true, false, 0) */\n      iszero\n      iszero\n      dup2\n      mstore\n      0x20\n      add\n        /* \"contracts/voting.sol\":1453:1458  false */\n      0x00\n        /* \"contracts/voting.sol\":1441:1462  Voter(true, false, 0) */\n      iszero\n      iszero\n      dup2\n      mstore\n      0x20\n      add\n        /* \"contracts/voting.sol\":1460:1461  0 */\n      0x00\n        /* \"contracts/voting.sol\":1441:1462  Voter(true, false, 0) */\n      dup2\n      mstore\n      pop\n        /* \"contracts/voting.sol\":1424:1430  voters */\n      0x01\n        /* \"contracts/voting.sol\":1424:1438  voters[_voter] */\n      0x00\n        /* \"contracts/voting.sol\":1431:1437  _voter */\n      dup4\n        /* \"contracts/voting.sol\":1424:1438  voters[_voter] */\n      0xffffffffffffffffffffffffffffffffffffffff\n      and\n      0xffffffffffffffffffffffffffffffffffffffff\n      and\n      dup2\n      mstore\n      0x20\n      add\n      swap1\n      dup2\n      mstore\n      0x20\n      add\n      0x00\n      keccak256\n        /* \"contracts/voting.sol\":1424:1462  voters[_voter] = Voter(true, false, 0) */\n      0x00\n      dup3\n      add\n      mload\n      dup2\n      0x00\n      add\n      exp(0x0100, 0x00)\n      dup2\n      sload\n      dup2\n      0xff\n      mul\n      not\n      and\n      swap1\n      dup4\n      iszero\n      iszero\n      mul\n      or\n      swap1\n      sstore\n      pop\n      0x20\n      dup3\n      add\n      mload\n      dup2\n      0x00\n      add\n      exp(0x0100, 0x01)\n      dup2\n      sload\n      dup2\n      0xff\n      mul\n      not\n      and\n      swap1\n      dup4\n      iszero\n      iszero\n      mul\n      or\n      swap1\n      sstore\n      pop\n      0x40\n      dup3\n      add\n      mload\n      dup2\n      0x01\n      add\n      sstore\n      swap1\n      pop\n      pop\n        /* \"contracts/voting.sol\":1478:1501  VoterRegistered(_voter) */\n      0xb6be2187d059cc2a55fe29e0e503b566e1e0f8c8780096e185429350acffd3dd\n        /* \"contracts/voting.sol\":1494:1500  _voter */\n      dup2\n        /* \"contracts/voting.sol\":1478:1501  VoterRegistered(_voter) */\n      mload(0x40)\n      tag_101\n      swap2\n      swap1\n      tag_53\n      jump\t// in\n    tag_101:\n      mload(0x40)\n      dup1\n      swap2\n      sub\n      swap1\n      log1\n        /* \"contracts/voting.sol\":1265:1509  function registerVoter(address _voter) public onlyElectionCommission {... */\n      pop\n      jump\t// out\n        /* \"contracts/voting.sol\":1867:2012  function endElection() public onlyElectionCommission onlyDuringElection {... */\n    tag_34:\n        /* \"contracts/voting.sol\":711:729  electionCommission */\n      0x00\n      dup1\n      sload\n      swap1\n      0x0100\n      exp\n      swap1\n      div\n      0xffffffffffffffffffffffffffffffffffffffff\n      and\n        /* \"contracts/voting.sol\":697:729  msg.sender == electionCommission */\n      0xffffffffffffffffffffffffffffffffffffffff\n      and\n        /* \"contracts/voting.sol\":697:707  msg.sender */\n      caller\n        /* \"contracts/voting.sol\":697:729  msg.sender == electionCommission */\n      0xffffffffffffffffffffffffffffffffffffffff\n      and\n      eq\n        /* \"contracts/voting.sol\":689:775  require(msg.sender == electionCommission, \"Only election commission can execute this\") */\n      tag_103\n      jumpi\n      mload(0x40)\n      0x08c379a000000000000000000000000000000000000000000000000000000000\n      dup2\n      mstore\n      0x04\n      add\n      tag_104\n      swap1\n      tag_96\n      jump\t// in\n    tag_104:\n      mload(0x40)\n      dup1\n      swap2\n      sub\n      swap1\n      revert\n    tag_103:\n        /* \"contracts/voting.sol\":871:875  true */\n      0x01\n        /* \"contracts/voting.sol\":852:875  electionStarted == true */\n      iszero\n      iszero\n        /* \"contracts/voting.sol\":852:867  electionStarted */\n      0x03\n      0x00\n      swap1\n      sload\n      swap1\n      0x0100\n      exp\n      swap1\n      div\n      0xff\n      and\n        /* \"contracts/voting.sol\":852:875  electionStarted == true */\n      iszero\n      iszero\n      eq\n        /* \"contracts/voting.sol\":844:912  require(electionStarted == true, \"Election is not currently active\") */\n      tag_106\n      jumpi\n      mload(0x40)\n      0x08c379a000000000000000000000000000000000000000000000000000000000\n      dup2\n      mstore\n      0x04\n      add\n      tag_107\n      swap1\n      tag_65\n      jump\t// in\n    tag_107:\n      mload(0x40)\n      dup1\n      swap2\n      sub\n      swap1\n      revert\n    tag_106:\n        /* \"contracts/voting.sol\":1968:1973  false */\n      0x00\n        /* \"contracts/voting.sol\":1950:1965  electionStarted */\n      0x03\n      0x00\n        /* \"contracts/voting.sol\":1950:1973  electionStarted = false */\n      0x0100\n      exp\n      dup2\n      sload\n      dup2\n      0xff\n      mul\n      not\n      and\n      swap1\n      dup4\n      iszero\n      iszero\n      mul\n      or\n      swap1\n      sstore\n      pop\n        /* \"contracts/voting.sol\":1989:2004  ElectionEnded() */\n      0x66ec723071e4bb646f7b35d31bc2dee8510979bd8c180edd0690d4f5e802f1e4\n      mload(0x40)\n      mload(0x40)\n      dup1\n      swap2\n      sub\n      swap1\n      log1\n        /* \"contracts/voting.sol\":1867:2012  function endElection() public onlyElectionCommission onlyDuringElection {... */\n      jump\t// out\n        /* \"contracts/voting.sol\":1556:1822  function startElection() public onlyElectionCommission {... */\n    tag_36:\n        /* \"contracts/voting.sol\":711:729  electionCommission */\n      0x00\n      dup1\n      sload\n      swap1\n      0x0100\n      exp\n      swap1\n      div\n      0xffffffffffffffffffffffffffffffffffffffff\n      and\n        /* \"contracts/voting.sol\":697:729  msg.sender == electionCommission */\n      0xffffffffffffffffffffffffffffffffffffffff\n      and\n        /* \"contracts/voting.sol\":697:707  msg.sender */\n      caller\n        /* \"contracts/voting.sol\":697:729  msg.sender == electionCommission */\n      0xffffffffffffffffffffffffffffffffffffffff\n      and\n      eq\n        /* \"contracts/voting.sol\":689:775  require(msg.sender == electionCommission, \"Only election commission can execute this\") */\n      tag_110\n      jumpi\n      mload(0x40)\n      0x08c379a000000000000000000000000000000000000000000000000000000000\n      dup2\n      mstore\n      0x04\n      add\n      tag_111\n      swap1\n      tag_96\n      jump\t// in\n    tag_111:\n      mload(0x40)\n      dup1\n      swap2\n      sub\n      swap1\n      revert\n    tag_110:\n        /* \"contracts/voting.sol\":1631:1646  electionStarted */\n      0x03\n      0x00\n      swap1\n      sload\n      swap1\n      0x0100\n      exp\n      swap1\n      div\n      0xff\n      and\n        /* \"contracts/voting.sol\":1630:1646  !electionStarted */\n      iszero\n        /* \"contracts/voting.sol\":1622:1679  require(!electionStarted, \"Election has already started\") */\n      tag_113\n      jumpi\n      mload(0x40)\n      0x08c379a000000000000000000000000000000000000000000000000000000000\n      dup2\n      mstore\n      0x04\n      add\n      tag_114\n      swap1\n      tag_115\n      jump\t// in\n    tag_114:\n      mload(0x40)\n      dup1\n      swap2\n      sub\n      swap1\n      revert\n    tag_113:\n        /* \"contracts/voting.sol\":1718:1719  0 */\n      0x00\n        /* \"contracts/voting.sol\":1698:1708  candidates */\n      0x02\n        /* \"contracts/voting.sol\":1698:1715  candidates.length */\n      dup1\n      sload\n      swap1\n      pop\n        /* \"contracts/voting.sol\":1698:1719  candidates.length > 0 */\n      gt\n        /* \"contracts/voting.sol\":1690:1748  require(candidates.length > 0, \"No candidates registered\") */\n      tag_116\n      jumpi\n      mload(0x40)\n      0x08c379a000000000000000000000000000000000000000000000000000000000\n      dup2\n      mstore\n      0x04\n      add\n      tag_117\n      swap1\n      tag_118\n      jump\t// in\n    tag_117:\n      mload(0x40)\n      dup1\n      swap2\n      sub\n      swap1\n      revert\n    tag_116:\n        /* \"contracts/voting.sol\":1777:1781  true */\n      0x01\n        /* \"contracts/voting.sol\":1759:1774  electionStarted */\n      0x03\n      0x00\n        /* \"contracts/voting.sol\":1759:1781  electionStarted = true */\n      0x0100\n      exp\n      dup2\n      sload\n      dup2\n      0xff\n      mul\n      not\n      and\n      swap1\n      dup4\n      iszero\n      iszero\n      mul\n      or\n      swap1\n      sstore\n      pop\n        /* \"contracts/voting.sol\":1797:1814  ElectionStarted() */\n      0xc475c26aa25ed8e85a7faa790e5f63b5d7ee1025f12821f4c9bfddd36ab4d112\n      mload(0x40)\n      mload(0x40)\n      dup1\n      swap2\n      sub\n      swap1\n      log1\n        /* \"contracts/voting.sol\":1556:1822  function startElection() public onlyElectionCommission {... */\n      jump\t// out\n        /* \"contracts/voting.sol\":3138:3683  function getWinner() public view returns (string memory winnerName) {... */\n    tag_38:\n        /* \"contracts/voting.sol\":3180:3204  string memory winnerName */\n      0x60\n        /* \"contracts/voting.sol\":3226:3241  electionStarted */\n      0x03\n      0x00\n      swap1\n      sload\n      swap1\n      0x0100\n      exp\n      swap1\n      div\n      0xff\n      and\n        /* \"contracts/voting.sol\":3225:3241  !electionStarted */\n      iszero\n        /* \"contracts/voting.sol\":3217:3271  require(!electionStarted, \"Election is still ongoing\") */\n      tag_120\n      jumpi\n      mload(0x40)\n      0x08c379a000000000000000000000000000000000000000000000000000000000\n      dup2\n      mstore\n      0x04\n      add\n      tag_121\n      swap1\n      tag_122\n      jump\t// in\n    tag_121:\n      mload(0x40)\n      dup1\n      swap2\n      sub\n      swap1\n      revert\n    tag_120:\n        /* \"contracts/voting.sol\":3284:3308  uint256 winningVoteCount */\n      0x00\n        /* \"contracts/voting.sol\":3323:3352  uint256 winningCandidateIndex */\n      dup1\n        /* \"contracts/voting.sol\":3374:3383  uint256 i */\n      0x00\n        /* \"contracts/voting.sol\":3369:3612  for (uint256 i = 0; i < candidates.length; i++) {... */\n    tag_123:\n        /* \"contracts/voting.sol\":3393:3403  candidates */\n      0x02\n        /* \"contracts/voting.sol\":3393:3410  candidates.length */\n      dup1\n      sload\n      swap1\n      pop\n        /* \"contracts/voting.sol\":3389:3390  i */\n      dup2\n        /* \"contracts/voting.sol\":3389:3410  i < candidates.length */\n      lt\n        /* \"contracts/voting.sol\":3369:3612  for (uint256 i = 0; i < candidates.length; i++) {... */\n      iszero\n      tag_124\n      jumpi\n        /* \"contracts/voting.sol\":3462:3478  winningVoteCount */\n      dup3\n        /* \"contracts/voting.sol\":3436:3446  candidates */\n      0x02\n        /* \"contracts/voting.sol\":3447:3448  i */\n      dup3\n        /* \"contracts/voting.sol\":3436:3449  candidates[i] */\n      dup2\n      sload\n      dup2\n      lt\n      tag_126\n      jumpi\n      tag_127\n      tag_78\n      jump\t// in\n    tag_127:\n    tag_126:\n      swap1\n      0x00\n      mstore\n      keccak256(0x00, 0x20)\n      swap1\n      0x02\n      mul\n      add\n        /* \"contracts/voting.sol\":3436:3459  candidates[i].voteCount */\n      0x01\n      add\n      sload\n        /* \"contracts/voting.sol\":3436:3478  candidates[i].voteCount > winningVoteCount */\n      gt\n        /* \"contracts/voting.sol\":3432:3601  if (candidates[i].voteCount > winningVoteCount) {... */\n      iszero\n      tag_129\n      jumpi\n        /* \"contracts/voting.sol\":3518:3528  candidates */\n      0x02\n        /* \"contracts/voting.sol\":3529:3530  i */\n      dup2\n        /* \"contracts/voting.sol\":3518:3531  candidates[i] */\n      dup2\n      sload\n      dup2\n      lt\n      tag_130\n      jumpi\n      tag_131\n      tag_78\n      jump\t// in\n    tag_131:\n    tag_130:\n      swap1\n      0x00\n      mstore\n      keccak256(0x00, 0x20)\n      swap1\n      0x02\n      mul\n      add\n        /* \"contracts/voting.sol\":3518:3541  candidates[i].voteCount */\n      0x01\n      add\n      sload\n        /* \"contracts/voting.sol\":3499:3541  winningVoteCount = candidates[i].voteCount */\n      swap3\n      pop\n        /* \"contracts/voting.sol\":3584:3585  i */\n      dup1\n        /* \"contracts/voting.sol\":3560:3585  winningCandidateIndex = i */\n      swap2\n      pop\n        /* \"contracts/voting.sol\":3432:3601  if (candidates[i].voteCount > winningVoteCount) {... */\n    tag_129:\n        /* \"contracts/voting.sol\":3412:3415  i++ */\n      dup1\n      dup1\n      0x01\n      add\n      swap2\n      pop\n      pop\n        /* \"contracts/voting.sol\":3369:3612  for (uint256 i = 0; i < candidates.length; i++) {... */\n      jump(tag_123)\n    tag_124:\n      pop\n        /* \"contracts/voting.sol\":3637:3647  candidates */\n      0x02\n        /* \"contracts/voting.sol\":3648:3669  winningCandidateIndex */\n      dup2\n        /* \"contracts/voting.sol\":3637:3670  candidates[winningCandidateIndex] */\n      dup2\n      sload\n      dup2\n      lt\n      tag_133\n      jumpi\n      tag_134\n      tag_78\n      jump\t// in\n    tag_134:\n    tag_133:\n      swap1\n      0x00\n      mstore\n      keccak256(0x00, 0x20)\n      swap1\n      0x02\n      mul\n      add\n        /* \"contracts/voting.sol\":3637:3675  candidates[winningCandidateIndex].name */\n      0x00\n      add\n        /* \"contracts/voting.sol\":3624:3675  winnerName = candidates[winningCandidateIndex].name */\n      dup1\n      sload\n      tag_136\n      swap1\n      tag_88\n      jump\t// in\n    tag_136:\n      dup1\n      0x1f\n      add\n      0x20\n      dup1\n      swap2\n      div\n      mul\n      0x20\n      add\n      mload(0x40)\n      swap1\n      dup2\n      add\n      0x40\n      mstore\n      dup1\n      swap3\n      swap2\n      swap1\n      dup2\n      dup2\n      mstore\n      0x20\n      add\n      dup3\n      dup1\n      sload\n      tag_137\n      swap1\n      tag_88\n      jump\t// in\n    tag_137:\n      dup1\n      iszero\n      tag_138\n      jumpi\n      dup1\n      0x1f\n      lt\n      tag_139\n      jumpi\n      0x0100\n      dup1\n      dup4\n      sload\n      div\n      mul\n      dup4\n      mstore\n      swap2\n      0x20\n      add\n      swap2\n      jump(tag_138)\n    tag_139:\n      dup3\n      add\n      swap2\n      swap1\n      0x00\n      mstore\n      keccak256(0x00, 0x20)\n      swap1\n    tag_140:\n      dup2\n      sload\n      dup2\n      mstore\n      swap1\n      0x01\n      add\n      swap1\n      0x20\n      add\n      dup1\n      dup4\n      gt\n      tag_140\n      jumpi\n      dup3\n      swap1\n      sub\n      0x1f\n      and\n      dup3\n      add\n      swap2\n    tag_138:\n      pop\n      pop\n      pop\n      pop\n      pop\n      swap3\n      pop\n        /* \"contracts/voting.sol\":3206:3683  {... */\n      pop\n      pop\n        /* \"contracts/voting.sol\":3138:3683  function getWinner() public view returns (string memory winnerName) {... */\n      swap1\n      jump\t// out\n        /* \"contracts/voting.sol\":1087:1220  function registerCandidate(string memory _name) public onlyElectionCommission {... */\n    tag_44:\n        /* \"contracts/voting.sol\":711:729  electionCommission */\n      0x00\n      dup1\n      sload\n      swap1\n      0x0100\n      exp\n      swap1\n      div\n      0xffffffffffffffffffffffffffffffffffffffff\n      and\n        /* \"contracts/voting.sol\":697:729  msg.sender == electionCommission */\n      0xffffffffffffffffffffffffffffffffffffffff\n      and\n        /* \"contracts/voting.sol\":697:707  msg.sender */\n      caller\n        /* \"contracts/voting.sol\":697:729  msg.sender == electionCommission */\n      0xffffffffffffffffffffffffffffffffffffffff\n      and\n      eq\n        /* \"contracts/voting.sol\":689:775  require(msg.sender == electionCommission, \"Only election commission can execute this\") */\n      tag_142\n      jumpi\n      mload(0x40)\n      0x08c379a000000000000000000000000000000000000000000000000000000000\n      dup2\n      mstore\n      0x04\n      add\n      tag_143\n      swap1\n      tag_96\n      jump\t// in\n    tag_143:\n      mload(0x40)\n      dup1\n      swap2\n      sub\n      swap1\n      revert\n    tag_142:\n        /* \"contracts/voting.sol\":1176:1186  candidates */\n      0x02\n        /* \"contracts/voting.sol\":1192:1211  Candidate(_name, 0) */\n      mload(0x40)\n      dup1\n      0x40\n      add\n      0x40\n      mstore\n      dup1\n        /* \"contracts/voting.sol\":1202:1207  _name */\n      dup4\n        /* \"contracts/voting.sol\":1192:1211  Candidate(_name, 0) */\n      dup2\n      mstore\n      0x20\n      add\n        /* \"contracts/voting.sol\":1209:1210  0 */\n      0x00\n        /* \"contracts/voting.sol\":1192:1211  Candidate(_name, 0) */\n      dup2\n      mstore\n      pop\n        /* \"contracts/voting.sol\":1176:1212  candidates.push(Candidate(_name, 0)) */\n      swap1\n      dup1\n      0x01\n      dup2\n      sload\n      add\n      dup1\n      dup3\n      sstore\n      dup1\n      swap2\n      pop\n      pop\n      0x01\n      swap1\n      sub\n      swap1\n      0x00\n      mstore\n      keccak256(0x00, 0x20)\n      swap1\n      0x02\n      mul\n      add\n      0x00\n      swap1\n      swap2\n      swap1\n      swap2\n      swap1\n      swap2\n      pop\n      0x00\n      dup3\n      add\n      mload\n      dup2\n      0x00\n      add\n      swap1\n      dup2\n      tag_146\n      swap2\n      swap1\n      tag_147\n      jump\t// in\n    tag_146:\n      pop\n      0x20\n      dup3\n      add\n      mload\n      dup2\n      0x01\n      add\n      sstore\n      pop\n      pop\n        /* \"contracts/voting.sol\":1087:1220  function registerCandidate(string memory _name) public onlyElectionCommission {... */\n      pop\n      jump\t// out\n        /* \"contracts/voting.sol\":361:400  mapping(address => Voter) public voters */\n    tag_47:\n      mstore(0x20, 0x01)\n      dup1\n      0x00\n      mstore\n      keccak256(0x00, 0x40)\n      0x00\n      swap2\n      pop\n      swap1\n      pop\n      dup1\n      0x00\n      add\n      0x00\n      swap1\n      sload\n      swap1\n      0x0100\n      exp\n      swap1\n      div\n      0xff\n      and\n      swap1\n      dup1\n      0x00\n      add\n      0x01\n      swap1\n      sload\n      swap1\n      0x0100\n      exp\n      swap1\n      div\n      0xff\n      and\n      swap1\n      dup1\n      0x01\n      add\n      sload\n      swap1\n      pop\n      dup4\n      jump\t// out\n        /* \"contracts/voting.sol\":321:354  address public electionCommission */\n    tag_51:\n      0x00\n      dup1\n      sload\n      swap1\n      0x0100\n      exp\n      swap1\n      div\n      0xffffffffffffffffffffffffffffffffffffffff\n      and\n      dup2\n      jump\t// out\n        /* \"contracts/voting.sol\":2692:2920  function getCandidateVoteCount(uint256 candidateIndex) public view returns (uint256) {... */\n    tag_56:\n        /* \"contracts/voting.sol\":2768:2775  uint256 */\n      0x00\n        /* \"contracts/voting.sol\":2813:2823  candidates */\n      0x02\n        /* \"contracts/voting.sol\":2813:2830  candidates.length */\n      dup1\n      sload\n      swap1\n      pop\n        /* \"contracts/voting.sol\":2796:2810  candidateIndex */\n      dup3\n        /* \"contracts/voting.sol\":2796:2830  candidateIndex < candidates.length */\n      lt\n        /* \"contracts/voting.sol\":2788:2858  require(candidateIndex < candidates.length, \"Invalid candidate index\") */\n      tag_149\n      jumpi\n      mload(0x40)\n      0x08c379a000000000000000000000000000000000000000000000000000000000\n      dup2\n      mstore\n      0x04\n      add\n      tag_150\n      swap1\n      tag_75\n      jump\t// in\n    tag_150:\n      mload(0x40)\n      dup1\n      swap2\n      sub\n      swap1\n      revert\n    tag_149:\n        /* \"contracts/voting.sol\":2876:2886  candidates */\n      0x02\n        /* \"contracts/voting.sol\":2887:2901  candidateIndex */\n      dup3\n        /* \"contracts/voting.sol\":2876:2902  candidates[candidateIndex] */\n      dup2\n      sload\n      dup2\n      lt\n      tag_151\n      jumpi\n      tag_152\n      tag_78\n      jump\t// in\n    tag_152:\n    tag_151:\n      swap1\n      0x00\n      mstore\n      keccak256(0x00, 0x20)\n      swap1\n      0x02\n      mul\n      add\n        /* \"contracts/voting.sol\":2876:2912  candidates[candidateIndex].voteCount */\n      0x01\n      add\n      sload\n        /* \"contracts/voting.sol\":2869:2912  return candidates[candidateIndex].voteCount */\n      swap1\n      pop\n        /* \"contracts/voting.sol\":2692:2920  function getCandidateVoteCount(uint256 candidateIndex) public view returns (uint256) {... */\n      swap2\n      swap1\n      pop\n      jump\t// out\n        /* \"contracts/voting.sol\":443:470  bool public electionStarted */\n    tag_59:\n      0x03\n      0x00\n      swap1\n      sload\n      swap1\n      0x0100\n      exp\n      swap1\n      div\n      0xff\n      and\n      dup2\n      jump\t// out\n        /* \"#utility.yul\":7:82   */\n    tag_154:\n        /* \"#utility.yul\":40:46   */\n      0x00\n        /* \"#utility.yul\":73:75   */\n      0x40\n        /* \"#utility.yul\":67:76   */\n      mload\n        /* \"#utility.yul\":57:76   */\n      swap1\n      pop\n        /* \"#utility.yul\":7:82   */\n      swap1\n      jump\t// out\n        /* \"#utility.yul\":88:205   */\n    tag_155:\n        /* \"#utility.yul\":197:198   */\n      0x00\n        /* \"#utility.yul\":194:195   */\n      dup1\n        /* \"#utility.yul\":187:199   */\n      revert\n        /* \"#utility.yul\":211:328   */\n    tag_156:\n        /* \"#utility.yul\":320:321   */\n      0x00\n        /* \"#utility.yul\":317:318   */\n      dup1\n        /* \"#utility.yul\":310:322   */\n      revert\n        /* \"#utility.yul\":334:411   */\n    tag_157:\n        /* \"#utility.yul\":371:378   */\n      0x00\n        /* \"#utility.yul\":400:405   */\n      dup2\n        /* \"#utility.yul\":389:405   */\n      swap1\n      pop\n        /* \"#utility.yul\":334:411   */\n      swap2\n      swap1\n      pop\n      jump\t// out\n        /* \"#utility.yul\":417:539   */\n    tag_158:\n        /* \"#utility.yul\":490:514   */\n      tag_223\n        /* \"#utility.yul\":508:513   */\n      dup2\n        /* \"#utility.yul\":490:514   */\n      tag_157\n      jump\t// in\n    tag_223:\n        /* \"#utility.yul\":483:488   */\n      dup2\n        /* \"#utility.yul\":480:515   */\n      eq\n        /* \"#utility.yul\":470:533   */\n      tag_224\n      jumpi\n        /* \"#utility.yul\":529:530   */\n      0x00\n        /* \"#utility.yul\":526:527   */\n      dup1\n        /* \"#utility.yul\":519:531   */\n      revert\n        /* \"#utility.yul\":470:533   */\n    tag_224:\n        /* \"#utility.yul\":417:539   */\n      pop\n      jump\t// out\n        /* \"#utility.yul\":545:684   */\n    tag_159:\n        /* \"#utility.yul\":591:596   */\n      0x00\n        /* \"#utility.yul\":629:635   */\n      dup2\n        /* \"#utility.yul\":616:636   */\n      calldataload\n        /* \"#utility.yul\":607:636   */\n      swap1\n      pop\n        /* \"#utility.yul\":645:678   */\n      tag_226\n        /* \"#utility.yul\":672:677   */\n      dup2\n        /* \"#utility.yul\":645:678   */\n      tag_158\n      jump\t// in\n    tag_226:\n        /* \"#utility.yul\":545:684   */\n      swap3\n      swap2\n      pop\n      pop\n      jump\t// out\n        /* \"#utility.yul\":690:1019   */\n    tag_18:\n        /* \"#utility.yul\":749:755   */\n      0x00\n        /* \"#utility.yul\":798:800   */\n      0x20\n        /* \"#utility.yul\":786:795   */\n      dup3\n        /* \"#utility.yul\":777:784   */\n      dup5\n        /* \"#utility.yul\":773:796   */\n      sub\n        /* \"#utility.yul\":769:801   */\n      slt\n        /* \"#utility.yul\":766:885   */\n      iszero\n      tag_228\n      jumpi\n        /* \"#utility.yul\":804:883   */\n      tag_229\n      tag_155\n      jump\t// in\n    tag_229:\n        /* \"#utility.yul\":766:885   */\n    tag_228:\n        /* \"#utility.yul\":924:925   */\n      0x00\n        /* \"#utility.yul\":949:1002   */\n      tag_230\n        /* \"#utility.yul\":994:1001   */\n      dup5\n        /* \"#utility.yul\":985:991   */\n      dup3\n        /* \"#utility.yul\":974:983   */\n      dup6\n        /* \"#utility.yul\":970:992   */\n      add\n        /* \"#utility.yul\":949:1002   */\n      tag_159\n      jump\t// in\n    tag_230:\n        /* \"#utility.yul\":939:1002   */\n      swap2\n      pop\n        /* \"#utility.yul\":895:1012   */\n      pop\n        /* \"#utility.yul\":690:1019   */\n      swap3\n      swap2\n      pop\n      pop\n      jump\t// out\n        /* \"#utility.yul\":1025:1143   */\n    tag_160:\n        /* \"#utility.yul\":1112:1136   */\n      tag_232\n        /* \"#utility.yul\":1130:1135   */\n      dup2\n        /* \"#utility.yul\":1112:1136   */\n      tag_157\n      jump\t// in\n    tag_232:\n        /* \"#utility.yul\":1107:1110   */\n      dup3\n        /* \"#utility.yul\":1100:1137   */\n      mstore\n        /* \"#utility.yul\":1025:1143   */\n      pop\n      pop\n      jump\t// out\n        /* \"#utility.yul\":1149:1371   */\n    tag_23:\n        /* \"#utility.yul\":1242:1246   */\n      0x00\n        /* \"#utility.yul\":1280:1282   */\n      0x20\n        /* \"#utility.yul\":1269:1278   */\n      dup3\n        /* \"#utility.yul\":1265:1283   */\n      add\n        /* \"#utility.yul\":1257:1283   */\n      swap1\n      pop\n        /* \"#utility.yul\":1293:1364   */\n      tag_234\n        /* \"#utility.yul\":1361:1362   */\n      0x00\n        /* \"#utility.yul\":1350:1359   */\n      dup4\n        /* \"#utility.yul\":1346:1363   */\n      add\n        /* \"#utility.yul\":1337:1343   */\n      dup5\n        /* \"#utility.yul\":1293:1364   */\n      tag_160\n      jump\t// in\n    tag_234:\n        /* \"#utility.yul\":1149:1371   */\n      swap3\n      swap2\n      pop\n      pop\n      jump\t// out\n        /* \"#utility.yul\":1377:1476   */\n    tag_161:\n        /* \"#utility.yul\":1429:1435   */\n      0x00\n        /* \"#utility.yul\":1463:1468   */\n      dup2\n        /* \"#utility.yul\":1457:1469   */\n      mload\n        /* \"#utility.yul\":1447:1469   */\n      swap1\n      pop\n        /* \"#utility.yul\":1377:1476   */\n      swap2\n      swap1\n      pop\n      jump\t// out\n        /* \"#utility.yul\":1482:1651   */\n    tag_162:\n        /* \"#utility.yul\":1566:1577   */\n      0x00\n        /* \"#utility.yul\":1600:1606   */\n      dup3\n        /* \"#utility.yul\":1595:1598   */\n      dup3\n        /* \"#utility.yul\":1588:1607   */\n      mstore\n        /* \"#utility.yul\":1640:1644   */\n      0x20\n        /* \"#utility.yul\":1635:1638   */\n      dup3\n        /* \"#utility.yul\":1631:1645   */\n      add\n        /* \"#utility.yul\":1616:1645   */\n      swap1\n      pop\n        /* \"#utility.yul\":1482:1651   */\n      swap3\n      swap2\n      pop\n      pop\n      jump\t// out\n        /* \"#utility.yul\":1657:1796   */\n    tag_163:\n        /* \"#utility.yul\":1746:1752   */\n      dup3\n        /* \"#utility.yul\":1741:1744   */\n      dup2\n        /* \"#utility.yul\":1736:1739   */\n      dup4\n        /* \"#utility.yul\":1730:1753   */\n      mcopy\n        /* \"#utility.yul\":1787:1788   */\n      0x00\n        /* \"#utility.yul\":1778:1784   */\n      dup4\n        /* \"#utility.yul\":1773:1776   */\n      dup4\n        /* \"#utility.yul\":1769:1785   */\n      add\n        /* \"#utility.yul\":1762:1789   */\n      mstore\n        /* \"#utility.yul\":1657:1796   */\n      pop\n      pop\n      pop\n      jump\t// out\n        /* \"#utility.yul\":1802:1904   */\n    tag_164:\n        /* \"#utility.yul\":1843:1849   */\n      0x00\n        /* \"#utility.yul\":1894:1896   */\n      0x1f\n        /* \"#utility.yul\":1890:1897   */\n      not\n        /* \"#utility.yul\":1885:1887   */\n      0x1f\n        /* \"#utility.yul\":1878:1883   */\n      dup4\n        /* \"#utility.yul\":1874:1888   */\n      add\n        /* \"#utility.yul\":1870:1898   */\n      and\n        /* \"#utility.yul\":1860:1898   */\n      swap1\n      pop\n        /* \"#utility.yul\":1802:1904   */\n      swap2\n      swap1\n      pop\n      jump\t// out\n        /* \"#utility.yul\":1910:2287   */\n    tag_165:\n        /* \"#utility.yul\":1998:2001   */\n      0x00\n        /* \"#utility.yul\":2026:2065   */\n      tag_240\n        /* \"#utility.yul\":2059:2064   */\n      dup3\n        /* \"#utility.yul\":2026:2065   */\n      tag_161\n      jump\t// in\n    tag_240:\n        /* \"#utility.yul\":2081:2152   */\n      tag_241\n        /* \"#utility.yul\":2145:2151   */\n      dup2\n        /* \"#utility.yul\":2140:2143   */\n      dup6\n        /* \"#utility.yul\":2081:2152   */\n      tag_162\n      jump\t// in\n    tag_241:\n        /* \"#utility.yul\":2074:2152   */\n      swap4\n      pop\n        /* \"#utility.yul\":2161:2226   */\n      tag_242\n        /* \"#utility.yul\":2219:2225   */\n      dup2\n        /* \"#utility.yul\":2214:2217   */\n      dup6\n        /* \"#utility.yul\":2207:2211   */\n      0x20\n        /* \"#utility.yul\":2200:2205   */\n      dup7\n        /* \"#utility.yul\":2196:2212   */\n      add\n        /* \"#utility.yul\":2161:2226   */\n      tag_163\n      jump\t// in\n    tag_242:\n        /* \"#utility.yul\":2251:2280   */\n      tag_243\n        /* \"#utility.yul\":2273:2279   */\n      dup2\n        /* \"#utility.yul\":2251:2280   */\n      tag_164\n      jump\t// in\n    tag_243:\n        /* \"#utility.yul\":2246:2249   */\n      dup5\n        /* \"#utility.yul\":2242:2281   */\n      add\n        /* \"#utility.yul\":2235:2281   */\n      swap2\n      pop\n        /* \"#utility.yul\":2002:2287   */\n      pop\n        /* \"#utility.yul\":1910:2287   */\n      swap3\n      swap2\n      pop\n      pop\n      jump\t// out\n        /* \"#utility.yul\":2293:2716   */\n    tag_28:\n        /* \"#utility.yul\":2434:2438   */\n      0x00\n        /* \"#utility.yul\":2472:2474   */\n      0x40\n        /* \"#utility.yul\":2461:2470   */\n      dup3\n        /* \"#utility.yul\":2457:2475   */\n      add\n        /* \"#utility.yul\":2449:2475   */\n      swap1\n      pop\n        /* \"#utility.yul\":2521:2530   */\n      dup2\n        /* \"#utility.yul\":2515:2519   */\n      dup2\n        /* \"#utility.yul\":2511:2531   */\n      sub\n        /* \"#utility.yul\":2507:2508   */\n      0x00\n        /* \"#utility.yul\":2496:2505   */\n      dup4\n        /* \"#utility.yul\":2492:2509   */\n      add\n        /* \"#utility.yul\":2485:2532   */\n      mstore\n        /* \"#utility.yul\":2549:2627   */\n      tag_245\n        /* \"#utility.yul\":2622:2626   */\n      dup2\n        /* \"#utility.yul\":2613:2619   */\n      dup6\n        /* \"#utility.yul\":2549:2627   */\n      tag_165\n      jump\t// in\n    tag_245:\n        /* \"#utility.yul\":2541:2627   */\n      swap1\n      pop\n        /* \"#utility.yul\":2637:2709   */\n      tag_246\n        /* \"#utility.yul\":2705:2707   */\n      0x20\n        /* \"#utility.yul\":2694:2703   */\n      dup4\n        /* \"#utility.yul\":2690:2708   */\n      add\n        /* \"#utility.yul\":2681:2687   */\n      dup5\n        /* \"#utility.yul\":2637:2709   */\n      tag_160\n      jump\t// in\n    tag_246:\n        /* \"#utility.yul\":2293:2716   */\n      swap4\n      swap3\n      pop\n      pop\n      pop\n      jump\t// out\n        /* \"#utility.yul\":2722:2848   */\n    tag_166:\n        /* \"#utility.yul\":2759:2766   */\n      0x00\n        /* \"#utility.yul\":2799:2841   */\n      0xffffffffffffffffffffffffffffffffffffffff\n        /* \"#utility.yul\":2792:2797   */\n      dup3\n        /* \"#utility.yul\":2788:2842   */\n      and\n        /* \"#utility.yul\":2777:2842   */\n      swap1\n      pop\n        /* \"#utility.yul\":2722:2848   */\n      swap2\n      swap1\n      pop\n      jump\t// out\n        /* \"#utility.yul\":2854:2950   */\n    tag_167:\n        /* \"#utility.yul\":2891:2898   */\n      0x00\n        /* \"#utility.yul\":2920:2944   */\n      tag_249\n        /* \"#utility.yul\":2938:2943   */\n      dup3\n        /* \"#utility.yul\":2920:2944   */\n      tag_166\n      jump\t// in\n    tag_249:\n        /* \"#utility.yul\":2909:2944   */\n      swap1\n      pop\n        /* \"#utility.yul\":2854:2950   */\n      swap2\n      swap1\n      pop\n      jump\t// out\n        /* \"#utility.yul\":2956:3078   */\n    tag_168:\n        /* \"#utility.yul\":3029:3053   */\n      tag_251\n        /* \"#utility.yul\":3047:3052   */\n      dup2\n        /* \"#utility.yul\":3029:3053   */\n      tag_167\n      jump\t// in\n    tag_251:\n        /* \"#utility.yul\":3022:3027   */\n      dup2\n        /* \"#utility.yul\":3019:3054   */\n      eq\n        /* \"#utility.yul\":3009:3072   */\n      tag_252\n      jumpi\n        /* \"#utility.yul\":3068:3069   */\n      0x00\n        /* \"#utility.yul\":3065:3066   */\n      dup1\n        /* \"#utility.yul\":3058:3070   */\n      revert\n        /* \"#utility.yul\":3009:3072   */\n    tag_252:\n        /* \"#utility.yul\":2956:3078   */\n      pop\n      jump\t// out\n        /* \"#utility.yul\":3084:3223   */\n    tag_169:\n        /* \"#utility.yul\":3130:3135   */\n      0x00\n        /* \"#utility.yul\":3168:3174   */\n      dup2\n        /* \"#utility.yul\":3155:3175   */\n      calldataload\n        /* \"#utility.yul\":3146:3175   */\n      swap1\n      pop\n        /* \"#utility.yul\":3184:3217   */\n      tag_254\n        /* \"#utility.yul\":3211:3216   */\n      dup2\n        /* \"#utility.yul\":3184:3217   */\n      tag_168\n      jump\t// in\n    tag_254:\n        /* \"#utility.yul\":3084:3223   */\n      swap3\n      swap2\n      pop\n      pop\n      jump\t// out\n        /* \"#utility.yul\":3229:3558   */\n    tag_31:\n        /* \"#utility.yul\":3288:3294   */\n      0x00\n        /* \"#utility.yul\":3337:3339   */\n      0x20\n        /* \"#utility.yul\":3325:3334   */\n      dup3\n        /* \"#utility.yul\":3316:3323   */\n      dup5\n        /* \"#utility.yul\":3312:3335   */\n      sub\n        /* \"#utility.yul\":3308:3340   */\n      slt\n        /* \"#utility.yul\":3305:3424   */\n      iszero\n      tag_256\n      jumpi\n        /* \"#utility.yul\":3343:3422   */\n      tag_257\n      tag_155\n      jump\t// in\n    tag_257:\n        /* \"#utility.yul\":3305:3424   */\n    tag_256:\n        /* \"#utility.yul\":3463:3464   */\n      0x00\n        /* \"#utility.yul\":3488:3541   */\n      tag_258\n        /* \"#utility.yul\":3533:3540   */\n      dup5\n        /* \"#utility.yul\":3524:3530   */\n      dup3\n        /* \"#utility.yul\":3513:3522   */\n      dup6\n        /* \"#utility.yul\":3509:3531   */\n      add\n        /* \"#utility.yul\":3488:3541   */\n      tag_169\n      jump\t// in\n    tag_258:\n        /* \"#utility.yul\":3478:3541   */\n      swap2\n      pop\n        /* \"#utility.yul\":3434:3551   */\n      pop\n        /* \"#utility.yul\":3229:3558   */\n      swap3\n      swap2\n      pop\n      pop\n      jump\t// out\n        /* \"#utility.yul\":3564:3877   */\n    tag_40:\n        /* \"#utility.yul\":3677:3681   */\n      0x00\n        /* \"#utility.yul\":3715:3717   */\n      0x20\n        /* \"#utility.yul\":3704:3713   */\n      dup3\n        /* \"#utility.yul\":3700:3718   */\n      add\n        /* \"#utility.yul\":3692:3718   */\n      swap1\n      pop\n        /* \"#utility.yul\":3764:3773   */\n      dup2\n        /* \"#utility.yul\":3758:3762   */\n      dup2\n        /* \"#utility.yul\":3754:3774   */\n      sub\n        /* \"#utility.yul\":3750:3751   */\n      0x00\n        /* \"#utility.yul\":3739:3748   */\n      dup4\n        /* \"#utility.yul\":3735:3752   */\n      add\n        /* \"#utility.yul\":3728:3775   */\n      mstore\n        /* \"#utility.yul\":3792:3870   */\n      tag_260\n        /* \"#utility.yul\":3865:3869   */\n      dup2\n        /* \"#utility.yul\":3856:3862   */\n      dup5\n        /* \"#utility.yul\":3792:3870   */\n      tag_165\n      jump\t// in\n    tag_260:\n        /* \"#utility.yul\":3784:3870   */\n      swap1\n      pop\n        /* \"#utility.yul\":3564:3877   */\n      swap3\n      swap2\n      pop\n      pop\n      jump\t// out\n        /* \"#utility.yul\":3883:4000   */\n    tag_170:\n        /* \"#utility.yul\":3992:3993   */\n      0x00\n        /* \"#utility.yul\":3989:3990   */\n      dup1\n        /* \"#utility.yul\":3982:3994   */\n      revert\n        /* \"#utility.yul\":4006:4123   */\n    tag_171:\n        /* \"#utility.yul\":4115:4116   */\n      0x00\n        /* \"#utility.yul\":4112:4113   */\n      dup1\n        /* \"#utility.yul\":4105:4117   */\n      revert\n        /* \"#utility.yul\":4129:4309   */\n    tag_172:\n        /* \"#utility.yul\":4177:4254   */\n      0x4e487b7100000000000000000000000000000000000000000000000000000000\n        /* \"#utility.yul\":4174:4175   */\n      0x00\n        /* \"#utility.yul\":4167:4255   */\n      mstore\n        /* \"#utility.yul\":4274:4278   */\n      0x41\n        /* \"#utility.yul\":4271:4272   */\n      0x04\n        /* \"#utility.yul\":4264:4279   */\n      mstore\n        /* \"#utility.yul\":4298:4302   */\n      0x24\n        /* \"#utility.yul\":4295:4296   */\n      0x00\n        /* \"#utility.yul\":4288:4303   */\n      revert\n        /* \"#utility.yul\":4315:4596   */\n    tag_173:\n        /* \"#utility.yul\":4398:4425   */\n      tag_265\n        /* \"#utility.yul\":4420:4424   */\n      dup3\n        /* \"#utility.yul\":4398:4425   */\n      tag_164\n      jump\t// in\n    tag_265:\n        /* \"#utility.yul\":4390:4396   */\n      dup2\n        /* \"#utility.yul\":4386:4426   */\n      add\n        /* \"#utility.yul\":4528:4534   */\n      dup2\n        /* \"#utility.yul\":4516:4526   */\n      dup2\n        /* \"#utility.yul\":4513:4535   */\n      lt\n        /* \"#utility.yul\":4492:4510   */\n      0xffffffffffffffff\n        /* \"#utility.yul\":4480:4490   */\n      dup3\n        /* \"#utility.yul\":4477:4511   */\n      gt\n        /* \"#utility.yul\":4474:4536   */\n      or\n        /* \"#utility.yul\":4471:4559   */\n      iszero\n      tag_266\n      jumpi\n        /* \"#utility.yul\":4539:4557   */\n      tag_267\n      tag_172\n      jump\t// in\n    tag_267:\n        /* \"#utility.yul\":4471:4559   */\n    tag_266:\n        /* \"#utility.yul\":4579:4589   */\n      dup1\n        /* \"#utility.yul\":4575:4577   */\n      0x40\n        /* \"#utility.yul\":4568:4590   */\n      mstore\n        /* \"#utility.yul\":4358:4596   */\n      pop\n        /* \"#utility.yul\":4315:4596   */\n      pop\n      pop\n      jump\t// out\n        /* \"#utility.yul\":4602:4731   */\n    tag_174:\n        /* \"#utility.yul\":4636:4642   */\n      0x00\n        /* \"#utility.yul\":4663:4683   */\n      tag_269\n      tag_154\n      jump\t// in\n    tag_269:\n        /* \"#utility.yul\":4653:4683   */\n      swap1\n      pop\n        /* \"#utility.yul\":4692:4725   */\n      tag_270\n        /* \"#utility.yul\":4720:4724   */\n      dup3\n        /* \"#utility.yul\":4712:4718   */\n      dup3\n        /* \"#utility.yul\":4692:4725   */\n      tag_173\n      jump\t// in\n    tag_270:\n        /* \"#utility.yul\":4602:4731   */\n      swap2\n      swap1\n      pop\n      jump\t// out\n        /* \"#utility.yul\":4737:5045   */\n    tag_175:\n        /* \"#utility.yul\":4799:4803   */\n      0x00\n        /* \"#utility.yul\":4889:4907   */\n      0xffffffffffffffff\n        /* \"#utility.yul\":4881:4887   */\n      dup3\n        /* \"#utility.yul\":4878:4908   */\n      gt\n        /* \"#utility.yul\":4875:4931   */\n      iszero\n      tag_272\n      jumpi\n        /* \"#utility.yul\":4911:4929   */\n      tag_273\n      tag_172\n      jump\t// in\n    tag_273:\n        /* \"#utility.yul\":4875:4931   */\n    tag_272:\n        /* \"#utility.yul\":4949:4978   */\n      tag_274\n        /* \"#utility.yul\":4971:4977   */\n      dup3\n        /* \"#utility.yul\":4949:4978   */\n      tag_164\n      jump\t// in\n    tag_274:\n        /* \"#utility.yul\":4941:4978   */\n      swap1\n      pop\n        /* \"#utility.yul\":5033:5037   */\n      0x20\n        /* \"#utility.yul\":5027:5031   */\n      dup2\n        /* \"#utility.yul\":5023:5038   */\n      add\n        /* \"#utility.yul\":5015:5038   */\n      swap1\n      pop\n        /* \"#utility.yul\":4737:5045   */\n      swap2\n      swap1\n      pop\n      jump\t// out\n        /* \"#utility.yul\":5051:5199   */\n    tag_176:\n        /* \"#utility.yul\":5149:5155   */\n      dup3\n        /* \"#utility.yul\":5144:5147   */\n      dup2\n        /* \"#utility.yul\":5139:5142   */\n      dup4\n        /* \"#utility.yul\":5126:5156   */\n      calldatacopy\n        /* \"#utility.yul\":5190:5191   */\n      0x00\n        /* \"#utility.yul\":5181:5187   */\n      dup4\n        /* \"#utility.yul\":5176:5179   */\n      dup4\n        /* \"#utility.yul\":5172:5188   */\n      add\n        /* \"#utility.yul\":5165:5192   */\n      mstore\n        /* \"#utility.yul\":5051:5199   */\n      pop\n      pop\n      pop\n      jump\t// out\n        /* \"#utility.yul\":5205:5630   */\n    tag_177:\n        /* \"#utility.yul\":5283:5288   */\n      0x00\n        /* \"#utility.yul\":5308:5374   */\n      tag_277\n        /* \"#utility.yul\":5324:5373   */\n      tag_278\n        /* \"#utility.yul\":5366:5372   */\n      dup5\n        /* \"#utility.yul\":5324:5373   */\n      tag_175\n      jump\t// in\n    tag_278:\n        /* \"#utility.yul\":5308:5374   */\n      tag_174\n      jump\t// in\n    tag_277:\n        /* \"#utility.yul\":5299:5374   */\n      swap1\n      pop\n        /* \"#utility.yul\":5397:5403   */\n      dup3\n        /* \"#utility.yul\":5390:5395   */\n      dup2\n        /* \"#utility.yul\":5383:5404   */\n      mstore\n        /* \"#utility.yul\":5435:5439   */\n      0x20\n        /* \"#utility.yul\":5428:5433   */\n      dup2\n        /* \"#utility.yul\":5424:5440   */\n      add\n        /* \"#utility.yul\":5473:5476   */\n      dup5\n        /* \"#utility.yul\":5464:5470   */\n      dup5\n        /* \"#utility.yul\":5459:5462   */\n      dup5\n        /* \"#utility.yul\":5455:5471   */\n      add\n        /* \"#utility.yul\":5452:5477   */\n      gt\n        /* \"#utility.yul\":5449:5561   */\n      iszero\n      tag_279\n      jumpi\n        /* \"#utility.yul\":5480:5559   */\n      tag_280\n      tag_171\n      jump\t// in\n    tag_280:\n        /* \"#utility.yul\":5449:5561   */\n    tag_279:\n        /* \"#utility.yul\":5570:5624   */\n      tag_281\n        /* \"#utility.yul\":5617:5623   */\n      dup5\n        /* \"#utility.yul\":5612:5615   */\n      dup3\n        /* \"#utility.yul\":5607:5610   */\n      dup6\n        /* \"#utility.yul\":5570:5624   */\n      tag_176\n      jump\t// in\n    tag_281:\n        /* \"#utility.yul\":5289:5630   */\n      pop\n        /* \"#utility.yul\":5205:5630   */\n      swap4\n      swap3\n      pop\n      pop\n      pop\n      jump\t// out\n        /* \"#utility.yul\":5650:5990   */\n    tag_178:\n        /* \"#utility.yul\":5706:5711   */\n      0x00\n        /* \"#utility.yul\":5755:5758   */\n      dup3\n        /* \"#utility.yul\":5748:5752   */\n      0x1f\n        /* \"#utility.yul\":5740:5746   */\n      dup4\n        /* \"#utility.yul\":5736:5753   */\n      add\n        /* \"#utility.yul\":5732:5759   */\n      slt\n        /* \"#utility.yul\":5722:5844   */\n      tag_283\n      jumpi\n        /* \"#utility.yul\":5763:5842   */\n      tag_284\n      tag_170\n      jump\t// in\n    tag_284:\n        /* \"#utility.yul\":5722:5844   */\n    tag_283:\n        /* \"#utility.yul\":5880:5886   */\n      dup2\n        /* \"#utility.yul\":5867:5887   */\n      calldataload\n        /* \"#utility.yul\":5905:5984   */\n      tag_285\n        /* \"#utility.yul\":5980:5983   */\n      dup5\n        /* \"#utility.yul\":5972:5978   */\n      dup3\n        /* \"#utility.yul\":5965:5969   */\n      0x20\n        /* \"#utility.yul\":5957:5963   */\n      dup7\n        /* \"#utility.yul\":5953:5970   */\n      add\n        /* \"#utility.yul\":5905:5984   */\n      tag_177\n      jump\t// in\n    tag_285:\n        /* \"#utility.yul\":5896:5984   */\n      swap2\n      pop\n        /* \"#utility.yul\":5712:5990   */\n      pop\n        /* \"#utility.yul\":5650:5990   */\n      swap3\n      swap2\n      pop\n      pop\n      jump\t// out\n        /* \"#utility.yul\":5996:6505   */\n    tag_43:\n        /* \"#utility.yul\":6065:6071   */\n      0x00\n        /* \"#utility.yul\":6114:6116   */\n      0x20\n        /* \"#utility.yul\":6102:6111   */\n      dup3\n        /* \"#utility.yul\":6093:6100   */\n      dup5\n        /* \"#utility.yul\":6089:6112   */\n      sub\n        /* \"#utility.yul\":6085:6117   */\n      slt\n        /* \"#utility.yul\":6082:6201   */\n      iszero\n      tag_287\n      jumpi\n        /* \"#utility.yul\":6120:6199   */\n      tag_288\n      tag_155\n      jump\t// in\n    tag_288:\n        /* \"#utility.yul\":6082:6201   */\n    tag_287:\n        /* \"#utility.yul\":6268:6269   */\n      0x00\n        /* \"#utility.yul\":6257:6266   */\n      dup3\n        /* \"#utility.yul\":6253:6270   */\n      add\n        /* \"#utility.yul\":6240:6271   */\n      calldataload\n        /* \"#utility.yul\":6298:6316   */\n      0xffffffffffffffff\n        /* \"#utility.yul\":6290:6296   */\n      dup2\n        /* \"#utility.yul\":6287:6317   */\n      gt\n        /* \"#utility.yul\":6284:6401   */\n      iszero\n      tag_289\n      jumpi\n        /* \"#utility.yul\":6320:6399   */\n      tag_290\n      tag_156\n      jump\t// in\n    tag_290:\n        /* \"#utility.yul\":6284:6401   */\n    tag_289:\n        /* \"#utility.yul\":6425:6488   */\n      tag_291\n        /* \"#utility.yul\":6480:6487   */\n      dup5\n        /* \"#utility.yul\":6471:6477   */\n      dup3\n        /* \"#utility.yul\":6460:6469   */\n      dup6\n        /* \"#utility.yul\":6456:6478   */\n      add\n        /* \"#utility.yul\":6425:6488   */\n      tag_178\n      jump\t// in\n    tag_291:\n        /* \"#utility.yul\":6415:6488   */\n      swap2\n      pop\n        /* \"#utility.yul\":6211:6498   */\n      pop\n        /* \"#utility.yul\":5996:6505   */\n      swap3\n      swap2\n      pop\n      pop\n      jump\t// out\n        /* \"#utility.yul\":6511:6601   */\n    tag_179:\n        /* \"#utility.yul\":6545:6552   */\n      0x00\n        /* \"#utility.yul\":6588:6593   */\n      dup2\n        /* \"#utility.yul\":6581:6594   */\n      iszero\n        /* \"#utility.yul\":6574:6595   */\n      iszero\n        /* \"#utility.yul\":6563:6595   */\n      swap1\n      pop\n        /* \"#utility.yul\":6511:6601   */\n      swap2\n      swap1\n      pop\n      jump\t// out\n        /* \"#utility.yul\":6607:6716   */\n    tag_180:\n        /* \"#utility.yul\":6688:6709   */\n      tag_294\n        /* \"#utility.yul\":6703:6708   */\n      dup2\n        /* \"#utility.yul\":6688:6709   */\n      tag_179\n      jump\t// in\n    tag_294:\n        /* \"#utility.yul\":6683:6686   */\n      dup3\n        /* \"#utility.yul\":6676:6710   */\n      mstore\n        /* \"#utility.yul\":6607:6716   */\n      pop\n      pop\n      jump\t// out\n        /* \"#utility.yul\":6722:7140   */\n    tag_49:\n        /* \"#utility.yul\":6859:6863   */\n      0x00\n        /* \"#utility.yul\":6897:6899   */\n      0x60\n        /* \"#utility.yul\":6886:6895   */\n      dup3\n        /* \"#utility.yul\":6882:6900   */\n      add\n        /* \"#utility.yul\":6874:6900   */\n      swap1\n      pop\n        /* \"#utility.yul\":6910:6975   */\n      tag_296\n        /* \"#utility.yul\":6972:6973   */\n      0x00\n        /* \"#utility.yul\":6961:6970   */\n      dup4\n        /* \"#utility.yul\":6957:6974   */\n      add\n        /* \"#utility.yul\":6948:6954   */\n      dup7\n        /* \"#utility.yul\":6910:6975   */\n      tag_180\n      jump\t// in\n    tag_296:\n        /* \"#utility.yul\":6985:7051   */\n      tag_297\n        /* \"#utility.yul\":7047:7049   */\n      0x20\n        /* \"#utility.yul\":7036:7045   */\n      dup4\n        /* \"#utility.yul\":7032:7050   */\n      add\n        /* \"#utility.yul\":7023:7029   */\n      dup6\n        /* \"#utility.yul\":6985:7051   */\n      tag_180\n      jump\t// in\n    tag_297:\n        /* \"#utility.yul\":7061:7133   */\n      tag_298\n        /* \"#utility.yul\":7129:7131   */\n      0x40\n        /* \"#utility.yul\":7118:7127   */\n      dup4\n        /* \"#utility.yul\":7114:7132   */\n      add\n        /* \"#utility.yul\":7105:7111   */\n      dup5\n        /* \"#utility.yul\":7061:7133   */\n      tag_160\n      jump\t// in\n    tag_298:\n        /* \"#utility.yul\":6722:7140   */\n      swap5\n      swap4\n      pop\n      pop\n      pop\n      pop\n      jump\t// out\n        /* \"#utility.yul\":7146:7264   */\n    tag_181:\n        /* \"#utility.yul\":7233:7257   */\n      tag_300\n        /* \"#utility.yul\":7251:7256   */\n      dup2\n        /* \"#utility.yul\":7233:7257   */\n      tag_167\n      jump\t// in\n    tag_300:\n        /* \"#utility.yul\":7228:7231   */\n      dup3\n        /* \"#utility.yul\":7221:7258   */\n      mstore\n        /* \"#utility.yul\":7146:7264   */\n      pop\n      pop\n      jump\t// out\n        /* \"#utility.yul\":7270:7492   */\n    tag_53:\n        /* \"#utility.yul\":7363:7367   */\n      0x00\n        /* \"#utility.yul\":7401:7403   */\n      0x20\n        /* \"#utility.yul\":7390:7399   */\n      dup3\n        /* \"#utility.yul\":7386:7404   */\n      add\n        /* \"#utility.yul\":7378:7404   */\n      swap1\n      pop\n        /* \"#utility.yul\":7414:7485   */\n      tag_302\n        /* \"#utility.yul\":7482:7483   */\n      0x00\n        /* \"#utility.yul\":7471:7480   */\n      dup4\n        /* \"#utility.yul\":7467:7484   */\n      add\n        /* \"#utility.yul\":7458:7464   */\n      dup5\n        /* \"#utility.yul\":7414:7485   */\n      tag_181\n      jump\t// in\n    tag_302:\n        /* \"#utility.yul\":7270:7492   */\n      swap3\n      swap2\n      pop\n      pop\n      jump\t// out\n        /* \"#utility.yul\":7498:7708   */\n    tag_61:\n        /* \"#utility.yul\":7585:7589   */\n      0x00\n        /* \"#utility.yul\":7623:7625   */\n      0x20\n        /* \"#utility.yul\":7612:7621   */\n      dup3\n        /* \"#utility.yul\":7608:7626   */\n      add\n        /* \"#utility.yul\":7600:7626   */\n      swap1\n      pop\n        /* \"#utility.yul\":7636:7701   */\n      tag_304\n        /* \"#utility.yul\":7698:7699   */\n      0x00\n        /* \"#utility.yul\":7687:7696   */\n      dup4\n        /* \"#utility.yul\":7683:7700   */\n      add\n        /* \"#utility.yul\":7674:7680   */\n      dup5\n        /* \"#utility.yul\":7636:7701   */\n      tag_180\n      jump\t// in\n    tag_304:\n        /* \"#utility.yul\":7498:7708   */\n      swap3\n      swap2\n      pop\n      pop\n      jump\t// out\n        /* \"#utility.yul\":7714:7896   */\n    tag_182:\n        /* \"#utility.yul\":7854:7888   */\n      0x456c656374696f6e206973206e6f742063757272656e746c7920616374697665\n        /* \"#utility.yul\":7850:7851   */\n      0x00\n        /* \"#utility.yul\":7842:7848   */\n      dup3\n        /* \"#utility.yul\":7838:7852   */\n      add\n        /* \"#utility.yul\":7831:7889   */\n      mstore\n        /* \"#utility.yul\":7714:7896   */\n      pop\n      jump\t// out\n        /* \"#utility.yul\":7902:8268   */\n    tag_183:\n        /* \"#utility.yul\":8044:8047   */\n      0x00\n        /* \"#utility.yul\":8065:8132   */\n      tag_307\n        /* \"#utility.yul\":8129:8131   */\n      0x20\n        /* \"#utility.yul\":8124:8127   */\n      dup4\n        /* \"#utility.yul\":8065:8132   */\n      tag_162\n      jump\t// in\n    tag_307:\n        /* \"#utility.yul\":8058:8132   */\n      swap2\n      pop\n        /* \"#utility.yul\":8141:8234   */\n      tag_308\n        /* \"#utility.yul\":8230:8233   */\n      dup3\n        /* \"#utility.yul\":8141:8234   */\n      tag_182\n      jump\t// in\n    tag_308:\n        /* \"#utility.yul\":8259:8261   */\n      0x20\n        /* \"#utility.yul\":8254:8257   */\n      dup3\n        /* \"#utility.yul\":8250:8262   */\n      add\n        /* \"#utility.yul\":8243:8262   */\n      swap1\n      pop\n        /* \"#utility.yul\":7902:8268   */\n      swap2\n      swap1\n      pop\n      jump\t// out\n        /* \"#utility.yul\":8274:8693   */\n    tag_65:\n        /* \"#utility.yul\":8440:8444   */\n      0x00\n        /* \"#utility.yul\":8478:8480   */\n      0x20\n        /* \"#utility.yul\":8467:8476   */\n      dup3\n        /* \"#utility.yul\":8463:8481   */\n      add\n        /* \"#utility.yul\":8455:8481   */\n      swap1\n      pop\n        /* \"#utility.yul\":8527:8536   */\n      dup2\n        /* \"#utility.yul\":8521:8525   */\n      dup2\n        /* \"#utility.yul\":8517:8537   */\n      sub\n        /* \"#utility.yul\":8513:8514   */\n      0x00\n        /* \"#utility.yul\":8502:8511   */\n      dup4\n        /* \"#utility.yul\":8498:8515   */\n      add\n        /* \"#utility.yul\":8491:8538   */\n      mstore\n        /* \"#utility.yul\":8555:8686   */\n      tag_310\n        /* \"#utility.yul\":8681:8685   */\n      dup2\n        /* \"#utility.yul\":8555:8686   */\n      tag_183\n      jump\t// in\n    tag_310:\n        /* \"#utility.yul\":8547:8686   */\n      swap1\n      pop\n        /* \"#utility.yul\":8274:8693   */\n      swap2\n      swap1\n      pop\n      jump\t// out\n        /* \"#utility.yul\":8699:8879   */\n    tag_184:\n        /* \"#utility.yul\":8839:8871   */\n      0x596f7520617265206e6f74207265676973746572656420746f20766f74650000\n        /* \"#utility.yul\":8835:8836   */\n      0x00\n        /* \"#utility.yul\":8827:8833   */\n      dup3\n        /* \"#utility.yul\":8823:8837   */\n      add\n        /* \"#utility.yul\":8816:8872   */\n      mstore\n        /* \"#utility.yul\":8699:8879   */\n      pop\n      jump\t// out\n        /* \"#utility.yul\":8885:9251   */\n    tag_185:\n        /* \"#utility.yul\":9027:9030   */\n      0x00\n        /* \"#utility.yul\":9048:9115   */\n      tag_313\n        /* \"#utility.yul\":9112:9114   */\n      0x1e\n        /* \"#utility.yul\":9107:9110   */\n      dup4\n        /* \"#utility.yul\":9048:9115   */\n      tag_162\n      jump\t// in\n    tag_313:\n        /* \"#utility.yul\":9041:9115   */\n      swap2\n      pop\n        /* \"#utility.yul\":9124:9217   */\n      tag_314\n        /* \"#utility.yul\":9213:9216   */\n      dup3\n        /* \"#utility.yul\":9124:9217   */\n      tag_184\n      jump\t// in\n    tag_314:\n        /* \"#utility.yul\":9242:9244   */\n      0x20\n        /* \"#utility.yul\":9237:9240   */\n      dup3\n        /* \"#utility.yul\":9233:9245   */\n      add\n        /* \"#utility.yul\":9226:9245   */\n      swap1\n      pop\n        /* \"#utility.yul\":8885:9251   */\n      swap2\n      swap1\n      pop\n      jump\t// out\n        /* \"#utility.yul\":9257:9676   */\n    tag_69:\n        /* \"#utility.yul\":9423:9427   */\n      0x00\n        /* \"#utility.yul\":9461:9463   */\n      0x20\n        /* \"#utility.yul\":9450:9459   */\n      dup3\n        /* \"#utility.yul\":9446:9464   */\n      add\n        /* \"#utility.yul\":9438:9464   */\n      swap1\n      pop\n        /* \"#utility.yul\":9510:9519   */\n      dup2\n        /* \"#utility.yul\":9504:9508   */\n      dup2\n        /* \"#utility.yul\":9500:9520   */\n      sub\n        /* \"#utility.yul\":9496:9497   */\n      0x00\n        /* \"#utility.yul\":9485:9494   */\n      dup4\n        /* \"#utility.yul\":9481:9498   */\n      add\n        /* \"#utility.yul\":9474:9521   */\n      mstore\n        /* \"#utility.yul\":9538:9669   */\n      tag_316\n        /* \"#utility.yul\":9664:9668   */\n      dup2\n        /* \"#utility.yul\":9538:9669   */\n      tag_185\n      jump\t// in\n    tag_316:\n        /* \"#utility.yul\":9530:9669   */\n      swap1\n      pop\n        /* \"#utility.yul\":9257:9676   */\n      swap2\n      swap1\n      pop\n      jump\t// out\n        /* \"#utility.yul\":9682:9854   */\n    tag_186:\n        /* \"#utility.yul\":9822:9846   */\n      0x596f75206861766520616c726561647920766f74656400000000000000000000\n        /* \"#utility.yul\":9818:9819   */\n      0x00\n        /* \"#utility.yul\":9810:9816   */\n      dup3\n        /* \"#utility.yul\":9806:9820   */\n      add\n        /* \"#utility.yul\":9799:9847   */\n      mstore\n        /* \"#utility.yul\":9682:9854   */\n      pop\n      jump\t// out\n        /* \"#utility.yul\":9860:10226   */\n    tag_187:\n        /* \"#utility.yul\":10002:10005   */\n      0x00\n        /* \"#utility.yul\":10023:10090   */\n      tag_319\n        /* \"#utility.yul\":10087:10089   */\n      0x16\n        /* \"#utility.yul\":10082:10085   */\n      dup4\n        /* \"#utility.yul\":10023:10090   */\n      tag_162\n      jump\t// in\n    tag_319:\n        /* \"#utility.yul\":10016:10090   */\n      swap2\n      pop\n        /* \"#utility.yul\":10099:10192   */\n      tag_320\n        /* \"#utility.yul\":10188:10191   */\n      dup3\n        /* \"#utility.yul\":10099:10192   */\n      tag_186\n      jump\t// in\n    tag_320:\n        /* \"#utility.yul\":10217:10219   */\n      0x20\n        /* \"#utility.yul\":10212:10215   */\n      dup3\n        /* \"#utility.yul\":10208:10220   */\n      add\n        /* \"#utility.yul\":10201:10220   */\n      swap1\n      pop\n        /* \"#utility.yul\":9860:10226   */\n      swap2\n      swap1\n      pop\n      jump\t// out\n        /* \"#utility.yul\":10232:10651   */\n    tag_72:\n        /* \"#utility.yul\":10398:10402   */\n      0x00\n        /* \"#utility.yul\":10436:10438   */\n      0x20\n        /* \"#utility.yul\":10425:10434   */\n      dup3\n        /* \"#utility.yul\":10421:10439   */\n      add\n        /* \"#utility.yul\":10413:10439   */\n      swap1\n      pop\n        /* \"#utility.yul\":10485:10494   */\n      dup2\n        /* \"#utility.yul\":10479:10483   */\n      dup2\n        /* \"#utility.yul\":10475:10495   */\n      sub\n        /* \"#utility.yul\":10471:10472   */\n      0x00\n        /* \"#utility.yul\":10460:10469   */\n      dup4\n        /* \"#utility.yul\":10456:10473   */\n      add\n        /* \"#utility.yul\":10449:10496   */\n      mstore\n        /* \"#utility.yul\":10513:10644   */\n      tag_322\n        /* \"#utility.yul\":10639:10643   */\n      dup2\n        /* \"#utility.yul\":10513:10644   */\n      tag_187\n      jump\t// in\n    tag_322:\n        /* \"#utility.yul\":10505:10644   */\n      swap1\n      pop\n        /* \"#utility.yul\":10232:10651   */\n      swap2\n      swap1\n      pop\n      jump\t// out\n        /* \"#utility.yul\":10657:10830   */\n    tag_188:\n        /* \"#utility.yul\":10797:10822   */\n      0x496e76616c69642063616e64696461746520696e646578000000000000000000\n        /* \"#utility.yul\":10793:10794   */\n      0x00\n        /* \"#utility.yul\":10785:10791   */\n      dup3\n        /* \"#utility.yul\":10781:10795   */\n      add\n        /* \"#utility.yul\":10774:10823   */\n      mstore\n        /* \"#utility.yul\":10657:10830   */\n      pop\n      jump\t// out\n        /* \"#utility.yul\":10836:11202   */\n    tag_189:\n        /* \"#utility.yul\":10978:10981   */\n      0x00\n        /* \"#utility.yul\":10999:11066   */\n      tag_325\n        /* \"#utility.yul\":11063:11065   */\n      0x17\n        /* \"#utility.yul\":11058:11061   */\n      dup4\n        /* \"#utility.yul\":10999:11066   */\n      tag_162\n      jump\t// in\n    tag_325:\n        /* \"#utility.yul\":10992:11066   */\n      swap2\n      pop\n        /* \"#utility.yul\":11075:11168   */\n      tag_326\n        /* \"#utility.yul\":11164:11167   */\n      dup3\n        /* \"#utility.yul\":11075:11168   */\n      tag_188\n      jump\t// in\n    tag_326:\n        /* \"#utility.yul\":11193:11195   */\n      0x20\n        /* \"#utility.yul\":11188:11191   */\n      dup3\n        /* \"#utility.yul\":11184:11196   */\n      add\n        /* \"#utility.yul\":11177:11196   */\n      swap1\n      pop\n        /* \"#utility.yul\":10836:11202   */\n      swap2\n      swap1\n      pop\n      jump\t// out\n        /* \"#utility.yul\":11208:11627   */\n    tag_75:\n        /* \"#utility.yul\":11374:11378   */\n      0x00\n        /* \"#utility.yul\":11412:11414   */\n      0x20\n        /* \"#utility.yul\":11401:11410   */\n      dup3\n        /* \"#utility.yul\":11397:11415   */\n      add\n        /* \"#utility.yul\":11389:11415   */\n      swap1\n      pop\n        /* \"#utility.yul\":11461:11470   */\n      dup2\n        /* \"#utility.yul\":11455:11459   */\n      dup2\n        /* \"#utility.yul\":11451:11471   */\n      sub\n        /* \"#utility.yul\":11447:11448   */\n      0x00\n        /* \"#utility.yul\":11436:11445   */\n      dup4\n        /* \"#utility.yul\":11432:11449   */\n      add\n        /* \"#utility.yul\":11425:11472   */\n      mstore\n        /* \"#utility.yul\":11489:11620   */\n      tag_328\n        /* \"#utility.yul\":11615:11619   */\n      dup2\n        /* \"#utility.yul\":11489:11620   */\n      tag_189\n      jump\t// in\n    tag_328:\n        /* \"#utility.yul\":11481:11620   */\n      swap1\n      pop\n        /* \"#utility.yul\":11208:11627   */\n      swap2\n      swap1\n      pop\n      jump\t// out\n        /* \"#utility.yul\":11633:11813   */\n    tag_78:\n        /* \"#utility.yul\":11681:11758   */\n      0x4e487b7100000000000000000000000000000000000000000000000000000000\n        /* \"#utility.yul\":11678:11679   */\n      0x00\n        /* \"#utility.yul\":11671:11759   */\n      mstore\n        /* \"#utility.yul\":11778:11782   */\n      0x32\n        /* \"#utility.yul\":11775:11776   */\n      0x04\n        /* \"#utility.yul\":11768:11783   */\n      mstore\n        /* \"#utility.yul\":11802:11806   */\n      0x24\n        /* \"#utility.yul\":11799:11800   */\n      0x00\n        /* \"#utility.yul\":11792:11807   */\n      revert\n        /* \"#utility.yul\":11819:11999   */\n    tag_190:\n        /* \"#utility.yul\":11867:11944   */\n      0x4e487b7100000000000000000000000000000000000000000000000000000000\n        /* \"#utility.yul\":11864:11865   */\n      0x00\n        /* \"#utility.yul\":11857:11945   */\n      mstore\n        /* \"#utility.yul\":11964:11968   */\n      0x11\n        /* \"#utility.yul\":11961:11962   */\n      0x04\n        /* \"#utility.yul\":11954:11969   */\n      mstore\n        /* \"#utility.yul\":11988:11992   */\n      0x24\n        /* \"#utility.yul\":11985:11986   */\n      0x00\n        /* \"#utility.yul\":11978:11993   */\n      revert\n        /* \"#utility.yul\":12005:12196   */\n    tag_81:\n        /* \"#utility.yul\":12045:12048   */\n      0x00\n        /* \"#utility.yul\":12064:12084   */\n      tag_332\n        /* \"#utility.yul\":12082:12083   */\n      dup3\n        /* \"#utility.yul\":12064:12084   */\n      tag_157\n      jump\t// in\n    tag_332:\n        /* \"#utility.yul\":12059:12084   */\n      swap2\n      pop\n        /* \"#utility.yul\":12098:12118   */\n      tag_333\n        /* \"#utility.yul\":12116:12117   */\n      dup4\n        /* \"#utility.yul\":12098:12118   */\n      tag_157\n      jump\t// in\n    tag_333:\n        /* \"#utility.yul\":12093:12118   */\n      swap3\n      pop\n        /* \"#utility.yul\":12141:12142   */\n      dup3\n        /* \"#utility.yul\":12138:12139   */\n      dup3\n        /* \"#utility.yul\":12134:12143   */\n      add\n        /* \"#utility.yul\":12127:12143   */\n      swap1\n      pop\n        /* \"#utility.yul\":12162:12165   */\n      dup1\n        /* \"#utility.yul\":12159:12160   */\n      dup3\n        /* \"#utility.yul\":12156:12166   */\n      gt\n        /* \"#utility.yul\":12153:12189   */\n      iszero\n      tag_334\n      jumpi\n        /* \"#utility.yul\":12169:12187   */\n      tag_335\n      tag_190\n      jump\t// in\n    tag_335:\n        /* \"#utility.yul\":12153:12189   */\n    tag_334:\n        /* \"#utility.yul\":12005:12196   */\n      swap3\n      swap2\n      pop\n      pop\n      jump\t// out\n        /* \"#utility.yul\":12202:12534   */\n    tag_83:\n        /* \"#utility.yul\":12323:12327   */\n      0x00\n        /* \"#utility.yul\":12361:12363   */\n      0x40\n        /* \"#utility.yul\":12350:12359   */\n      dup3\n        /* \"#utility.yul\":12346:12364   */\n      add\n        /* \"#utility.yul\":12338:12364   */\n      swap1\n      pop\n        /* \"#utility.yul\":12374:12445   */\n      tag_337\n        /* \"#utility.yul\":12442:12443   */\n      0x00\n        /* \"#utility.yul\":12431:12440   */\n      dup4\n        /* \"#utility.yul\":12427:12444   */\n      add\n        /* \"#utility.yul\":12418:12424   */\n      dup6\n        /* \"#utility.yul\":12374:12445   */\n      tag_181\n      jump\t// in\n    tag_337:\n        /* \"#utility.yul\":12455:12527   */\n      tag_338\n        /* \"#utility.yul\":12523:12525   */\n      0x20\n        /* \"#utility.yul\":12512:12521   */\n      dup4\n        /* \"#utility.yul\":12508:12526   */\n      add\n        /* \"#utility.yul\":12499:12505   */\n      dup5\n        /* \"#utility.yul\":12455:12527   */\n      tag_160\n      jump\t// in\n    tag_338:\n        /* \"#utility.yul\":12202:12534   */\n      swap4\n      swap3\n      pop\n      pop\n      pop\n      jump\t// out\n        /* \"#utility.yul\":12540:12720   */\n    tag_191:\n        /* \"#utility.yul\":12588:12665   */\n      0x4e487b7100000000000000000000000000000000000000000000000000000000\n        /* \"#utility.yul\":12585:12586   */\n      0x00\n        /* \"#utility.yul\":12578:12666   */\n      mstore\n        /* \"#utility.yul\":12685:12689   */\n      0x22\n        /* \"#utility.yul\":12682:12683   */\n      0x04\n        /* \"#utility.yul\":12675:12690   */\n      mstore\n        /* \"#utility.yul\":12709:12713   */\n      0x24\n        /* \"#utility.yul\":12706:12707   */\n      0x00\n        /* \"#utility.yul\":12699:12714   */\n      revert\n        /* \"#utility.yul\":12726:13046   */\n    tag_88:\n        /* \"#utility.yul\":12770:12776   */\n      0x00\n        /* \"#utility.yul\":12807:12808   */\n      0x02\n        /* \"#utility.yul\":12801:12805   */\n      dup3\n        /* \"#utility.yul\":12797:12809   */\n      div\n        /* \"#utility.yul\":12787:12809   */\n      swap1\n      pop\n        /* \"#utility.yul\":12854:12855   */\n      0x01\n        /* \"#utility.yul\":12848:12852   */\n      dup3\n        /* \"#utility.yul\":12844:12856   */\n      and\n        /* \"#utility.yul\":12875:12893   */\n      dup1\n        /* \"#utility.yul\":12865:12946   */\n      tag_341\n      jumpi\n        /* \"#utility.yul\":12931:12935   */\n      0x7f\n        /* \"#utility.yul\":12923:12929   */\n      dup3\n        /* \"#utility.yul\":12919:12936   */\n      and\n        /* \"#utility.yul\":12909:12936   */\n      swap2\n      pop\n        /* \"#utility.yul\":12865:12946   */\n    tag_341:\n        /* \"#utility.yul\":12993:12995   */\n      0x20\n        /* \"#utility.yul\":12985:12991   */\n      dup3\n        /* \"#utility.yul\":12982:12996   */\n      lt\n        /* \"#utility.yul\":12962:12980   */\n      dup2\n        /* \"#utility.yul\":12959:12997   */\n      sub\n        /* \"#utility.yul\":12956:13040   */\n      tag_342\n      jumpi\n        /* \"#utility.yul\":13012:13030   */\n      tag_343\n      tag_191\n      jump\t// in\n    tag_343:\n        /* \"#utility.yul\":12956:13040   */\n    tag_342:\n        /* \"#utility.yul\":12777:13046   */\n      pop\n        /* \"#utility.yul\":12726:13046   */\n      swap2\n      swap1\n      pop\n      jump\t// out\n        /* \"#utility.yul\":13052:13280   */\n    tag_192:\n        /* \"#utility.yul\":13192:13226   */\n      0x4f6e6c7920656c656374696f6e20636f6d6d697373696f6e2063616e20657865\n        /* \"#utility.yul\":13188:13189   */\n      0x00\n        /* \"#utility.yul\":13180:13186   */\n      dup3\n        /* \"#utility.yul\":13176:13190   */\n      add\n        /* \"#utility.yul\":13169:13227   */\n      mstore\n        /* \"#utility.yul\":13261:13272   */\n      0x6375746520746869730000000000000000000000000000000000000000000000\n        /* \"#utility.yul\":13256:13258   */\n      0x20\n        /* \"#utility.yul\":13248:13254   */\n      dup3\n        /* \"#utility.yul\":13244:13259   */\n      add\n        /* \"#utility.yul\":13237:13273   */\n      mstore\n        /* \"#utility.yul\":13052:13280   */\n      pop\n      jump\t// out\n        /* \"#utility.yul\":13286:13652   */\n    tag_193:\n        /* \"#utility.yul\":13428:13431   */\n      0x00\n        /* \"#utility.yul\":13449:13516   */\n      tag_346\n        /* \"#utility.yul\":13513:13515   */\n      0x29\n        /* \"#utility.yul\":13508:13511   */\n      dup4\n        /* \"#utility.yul\":13449:13516   */\n      tag_162\n      jump\t// in\n    tag_346:\n        /* \"#utility.yul\":13442:13516   */\n      swap2\n      pop\n        /* \"#utility.yul\":13525:13618   */\n      tag_347\n        /* \"#utility.yul\":13614:13617   */\n      dup3\n        /* \"#utility.yul\":13525:13618   */\n      tag_192\n      jump\t// in\n    tag_347:\n        /* \"#utility.yul\":13643:13645   */\n      0x40\n        /* \"#utility.yul\":13638:13641   */\n      dup3\n        /* \"#utility.yul\":13634:13646   */\n      add\n        /* \"#utility.yul\":13627:13646   */\n      swap1\n      pop\n        /* \"#utility.yul\":13286:13652   */\n      swap2\n      swap1\n      pop\n      jump\t// out\n        /* \"#utility.yul\":13658:14077   */\n    tag_96:\n        /* \"#utility.yul\":13824:13828   */\n      0x00\n        /* \"#utility.yul\":13862:13864   */\n      0x20\n        /* \"#utility.yul\":13851:13860   */\n      dup3\n        /* \"#utility.yul\":13847:13865   */\n      add\n        /* \"#utility.yul\":13839:13865   */\n      swap1\n      pop\n        /* \"#utility.yul\":13911:13920   */\n      dup2\n        /* \"#utility.yul\":13905:13909   */\n      dup2\n        /* \"#utility.yul\":13901:13921   */\n      sub\n        /* \"#utility.yul\":13897:13898   */\n      0x00\n        /* \"#utility.yul\":13886:13895   */\n      dup4\n        /* \"#utility.yul\":13882:13899   */\n      add\n        /* \"#utility.yul\":13875:13922   */\n      mstore\n        /* \"#utility.yul\":13939:14070   */\n      tag_349\n        /* \"#utility.yul\":14065:14069   */\n      dup2\n        /* \"#utility.yul\":13939:14070   */\n      tag_193\n      jump\t// in\n    tag_349:\n        /* \"#utility.yul\":13931:14070   */\n      swap1\n      pop\n        /* \"#utility.yul\":13658:14077   */\n      swap2\n      swap1\n      pop\n      jump\t// out\n        /* \"#utility.yul\":14083:14260   */\n    tag_194:\n        /* \"#utility.yul\":14223:14252   */\n      0x566f74657220697320616c726561647920726567697374657265640000000000\n        /* \"#utility.yul\":14219:14220   */\n      0x00\n        /* \"#utility.yul\":14211:14217   */\n      dup3\n        /* \"#utility.yul\":14207:14221   */\n      add\n        /* \"#utility.yul\":14200:14253   */\n      mstore\n        /* \"#utility.yul\":14083:14260   */\n      pop\n      jump\t// out\n        /* \"#utility.yul\":14266:14632   */\n    tag_195:\n        /* \"#utility.yul\":14408:14411   */\n      0x00\n        /* \"#utility.yul\":14429:14496   */\n      tag_352\n        /* \"#utility.yul\":14493:14495   */\n      0x1b\n        /* \"#utility.yul\":14488:14491   */\n      dup4\n        /* \"#utility.yul\":14429:14496   */\n      tag_162\n      jump\t// in\n    tag_352:\n        /* \"#utility.yul\":14422:14496   */\n      swap2\n      pop\n        /* \"#utility.yul\":14505:14598   */\n      tag_353\n        /* \"#utility.yul\":14594:14597   */\n      dup3\n        /* \"#utility.yul\":14505:14598   */\n      tag_194\n      jump\t// in\n    tag_353:\n        /* \"#utility.yul\":14623:14625   */\n      0x20\n        /* \"#utility.yul\":14618:14621   */\n      dup3\n        /* \"#utility.yul\":14614:14626   */\n      add\n        /* \"#utility.yul\":14607:14626   */\n      swap1\n      pop\n        /* \"#utility.yul\":14266:14632   */\n      swap2\n      swap1\n      pop\n      jump\t// out\n        /* \"#utility.yul\":14638:15057   */\n    tag_100:\n        /* \"#utility.yul\":14804:14808   */\n      0x00\n        /* \"#utility.yul\":14842:14844   */\n      0x20\n        /* \"#utility.yul\":14831:14840   */\n      dup3\n        /* \"#utility.yul\":14827:14845   */\n      add\n        /* \"#utility.yul\":14819:14845   */\n      swap1\n      pop\n        /* \"#utility.yul\":14891:14900   */\n      dup2\n        /* \"#utility.yul\":14885:14889   */\n      dup2\n        /* \"#utility.yul\":14881:14901   */\n      sub\n        /* \"#utility.yul\":14877:14878   */\n      0x00\n        /* \"#utility.yul\":14866:14875   */\n      dup4\n        /* \"#utility.yul\":14862:14879   */\n      add\n        /* \"#utility.yul\":14855:14902   */\n      mstore\n        /* \"#utility.yul\":14919:15050   */\n      tag_355\n        /* \"#utility.yul\":15045:15049   */\n      dup2\n        /* \"#utility.yul\":14919:15050   */\n      tag_195\n      jump\t// in\n    tag_355:\n        /* \"#utility.yul\":14911:15050   */\n      swap1\n      pop\n        /* \"#utility.yul\":14638:15057   */\n      swap2\n      swap1\n      pop\n      jump\t// out\n        /* \"#utility.yul\":15063:15241   */\n    tag_196:\n        /* \"#utility.yul\":15203:15233   */\n      0x456c656374696f6e2068617320616c7265616479207374617274656400000000\n        /* \"#utility.yul\":15199:15200   */\n      0x00\n        /* \"#utility.yul\":15191:15197   */\n      dup3\n        /* \"#utility.yul\":15187:15201   */\n      add\n        /* \"#utility.yul\":15180:15234   */\n      mstore\n        /* \"#utility.yul\":15063:15241   */\n      pop\n      jump\t// out\n        /* \"#utility.yul\":15247:15613   */\n    tag_197:\n        /* \"#utility.yul\":15389:15392   */\n      0x00\n        /* \"#utility.yul\":15410:15477   */\n      tag_358\n        /* \"#utility.yul\":15474:15476   */\n      0x1c\n        /* \"#utility.yul\":15469:15472   */\n      dup4\n        /* \"#utility.yul\":15410:15477   */\n      tag_162\n      jump\t// in\n    tag_358:\n        /* \"#utility.yul\":15403:15477   */\n      swap2\n      pop\n        /* \"#utility.yul\":15486:15579   */\n      tag_359\n        /* \"#utility.yul\":15575:15578   */\n      dup3\n        /* \"#utility.yul\":15486:15579   */\n      tag_196\n      jump\t// in\n    tag_359:\n        /* \"#utility.yul\":15604:15606   */\n      0x20\n        /* \"#utility.yul\":15599:15602   */\n      dup3\n        /* \"#utility.yul\":15595:15607   */\n      add\n        /* \"#utility.yul\":15588:15607   */\n      swap1\n      pop\n        /* \"#utility.yul\":15247:15613   */\n      swap2\n      swap1\n      pop\n      jump\t// out\n        /* \"#utility.yul\":15619:16038   */\n    tag_115:\n        /* \"#utility.yul\":15785:15789   */\n      0x00\n        /* \"#utility.yul\":15823:15825   */\n      0x20\n        /* \"#utility.yul\":15812:15821   */\n      dup3\n        /* \"#utility.yul\":15808:15826   */\n      add\n        /* \"#utility.yul\":15800:15826   */\n      swap1\n      pop\n        /* \"#utility.yul\":15872:15881   */\n      dup2\n        /* \"#utility.yul\":15866:15870   */\n      dup2\n        /* \"#utility.yul\":15862:15882   */\n      sub\n        /* \"#utility.yul\":15858:15859   */\n      0x00\n        /* \"#utility.yul\":15847:15856   */\n      dup4\n        /* \"#utility.yul\":15843:15860   */\n      add\n        /* \"#utility.yul\":15836:15883   */\n      mstore\n        /* \"#utility.yul\":15900:16031   */\n      tag_361\n        /* \"#utility.yul\":16026:16030   */\n      dup2\n        /* \"#utility.yul\":15900:16031   */\n      tag_197\n      jump\t// in\n    tag_361:\n        /* \"#utility.yul\":15892:16031   */\n      swap1\n      pop\n        /* \"#utility.yul\":15619:16038   */\n      swap2\n      swap1\n      pop\n      jump\t// out\n        /* \"#utility.yul\":16044:16218   */\n    tag_198:\n        /* \"#utility.yul\":16184:16210   */\n      0x4e6f2063616e6469646174657320726567697374657265640000000000000000\n        /* \"#utility.yul\":16180:16181   */\n      0x00\n        /* \"#utility.yul\":16172:16178   */\n      dup3\n        /* \"#utility.yul\":16168:16182   */\n      add\n        /* \"#utility.yul\":16161:16211   */\n      mstore\n        /* \"#utility.yul\":16044:16218   */\n      pop\n      jump\t// out\n        /* \"#utility.yul\":16224:16590   */\n    tag_199:\n        /* \"#utility.yul\":16366:16369   */\n      0x00\n        /* \"#utility.yul\":16387:16454   */\n      tag_364\n        /* \"#utility.yul\":16451:16453   */\n      0x18\n        /* \"#utility.yul\":16446:16449   */\n      dup4\n        /* \"#utility.yul\":16387:16454   */\n      tag_162\n      jump\t// in\n    tag_364:\n        /* \"#utility.yul\":16380:16454   */\n      swap2\n      pop\n        /* \"#utility.yul\":16463:16556   */\n      tag_365\n        /* \"#utility.yul\":16552:16555   */\n      dup3\n        /* \"#utility.yul\":16463:16556   */\n      tag_198\n      jump\t// in\n    tag_365:\n        /* \"#utility.yul\":16581:16583   */\n      0x20\n        /* \"#utility.yul\":16576:16579   */\n      dup3\n        /* \"#utility.yul\":16572:16584   */\n      add\n        /* \"#utility.yul\":16565:16584   */\n      swap1\n      pop\n        /* \"#utility.yul\":16224:16590   */\n      swap2\n      swap1\n      pop\n      jump\t// out\n        /* \"#utility.yul\":16596:17015   */\n    tag_118:\n        /* \"#utility.yul\":16762:16766   */\n      0x00\n        /* \"#utility.yul\":16800:16802   */\n      0x20\n        /* \"#utility.yul\":16789:16798   */\n      dup3\n        /* \"#utility.yul\":16785:16803   */\n      add\n        /* \"#utility.yul\":16777:16803   */\n      swap1\n      pop\n        /* \"#utility.yul\":16849:16858   */\n      dup2\n        /* \"#utility.yul\":16843:16847   */\n      dup2\n        /* \"#utility.yul\":16839:16859   */\n      sub\n        /* \"#utility.yul\":16835:16836   */\n      0x00\n        /* \"#utility.yul\":16824:16833   */\n      dup4\n        /* \"#utility.yul\":16820:16837   */\n      add\n        /* \"#utility.yul\":16813:16860   */\n      mstore\n        /* \"#utility.yul\":16877:17008   */\n      tag_367\n        /* \"#utility.yul\":17003:17007   */\n      dup2\n        /* \"#utility.yul\":16877:17008   */\n      tag_199\n      jump\t// in\n    tag_367:\n        /* \"#utility.yul\":16869:17008   */\n      swap1\n      pop\n        /* \"#utility.yul\":16596:17015   */\n      swap2\n      swap1\n      pop\n      jump\t// out\n        /* \"#utility.yul\":17021:17196   */\n    tag_200:\n        /* \"#utility.yul\":17161:17188   */\n      0x456c656374696f6e206973207374696c6c206f6e676f696e6700000000000000\n        /* \"#utility.yul\":17157:17158   */\n      0x00\n        /* \"#utility.yul\":17149:17155   */\n      dup3\n        /* \"#utility.yul\":17145:17159   */\n      add\n        /* \"#utility.yul\":17138:17189   */\n      mstore\n        /* \"#utility.yul\":17021:17196   */\n      pop\n      jump\t// out\n        /* \"#utility.yul\":17202:17568   */\n    tag_201:\n        /* \"#utility.yul\":17344:17347   */\n      0x00\n        /* \"#utility.yul\":17365:17432   */\n      tag_370\n        /* \"#utility.yul\":17429:17431   */\n      0x19\n        /* \"#utility.yul\":17424:17427   */\n      dup4\n        /* \"#utility.yul\":17365:17432   */\n      tag_162\n      jump\t// in\n    tag_370:\n        /* \"#utility.yul\":17358:17432   */\n      swap2\n      pop\n        /* \"#utility.yul\":17441:17534   */\n      tag_371\n        /* \"#utility.yul\":17530:17533   */\n      dup3\n        /* \"#utility.yul\":17441:17534   */\n      tag_200\n      jump\t// in\n    tag_371:\n        /* \"#utility.yul\":17559:17561   */\n      0x20\n        /* \"#utility.yul\":17554:17557   */\n      dup3\n        /* \"#utility.yul\":17550:17562   */\n      add\n        /* \"#utility.yul\":17543:17562   */\n      swap1\n      pop\n        /* \"#utility.yul\":17202:17568   */\n      swap2\n      swap1\n      pop\n      jump\t// out\n        /* \"#utility.yul\":17574:17993   */\n    tag_122:\n        /* \"#utility.yul\":17740:17744   */\n      0x00\n        /* \"#utility.yul\":17778:17780   */\n      0x20\n        /* \"#utility.yul\":17767:17776   */\n      dup3\n        /* \"#utility.yul\":17763:17781   */\n      add\n        /* \"#utility.yul\":17755:17781   */\n      swap1\n      pop\n        /* \"#utility.yul\":17827:17836   */\n      dup2\n        /* \"#utility.yul\":17821:17825   */\n      dup2\n        /* \"#utility.yul\":17817:17837   */\n      sub\n        /* \"#utility.yul\":17813:17814   */\n      0x00\n        /* \"#utility.yul\":17802:17811   */\n      dup4\n        /* \"#utility.yul\":17798:17815   */\n      add\n        /* \"#utility.yul\":17791:17838   */\n      mstore\n        /* \"#utility.yul\":17855:17986   */\n      tag_373\n        /* \"#utility.yul\":17981:17985   */\n      dup2\n        /* \"#utility.yul\":17855:17986   */\n      tag_201\n      jump\t// in\n    tag_373:\n        /* \"#utility.yul\":17847:17986   */\n      swap1\n      pop\n        /* \"#utility.yul\":17574:17993   */\n      swap2\n      swap1\n      pop\n      jump\t// out\n        /* \"#utility.yul\":17999:18140   */\n    tag_202:\n        /* \"#utility.yul\":18048:18052   */\n      0x00\n        /* \"#utility.yul\":18071:18074   */\n      dup2\n        /* \"#utility.yul\":18063:18074   */\n      swap1\n      pop\n        /* \"#utility.yul\":18094:18097   */\n      dup2\n        /* \"#utility.yul\":18091:18092   */\n      0x00\n        /* \"#utility.yul\":18084:18098   */\n      mstore\n        /* \"#utility.yul\":18128:18132   */\n      0x20\n        /* \"#utility.yul\":18125:18126   */\n      0x00\n        /* \"#utility.yul\":18115:18133   */\n      keccak256\n        /* \"#utility.yul\":18107:18133   */\n      swap1\n      pop\n        /* \"#utility.yul\":17999:18140   */\n      swap2\n      swap1\n      pop\n      jump\t// out\n        /* \"#utility.yul\":18146:18239   */\n    tag_203:\n        /* \"#utility.yul\":18183:18189   */\n      0x00\n        /* \"#utility.yul\":18230:18232   */\n      0x20\n        /* \"#utility.yul\":18225:18227   */\n      0x1f\n        /* \"#utility.yul\":18218:18223   */\n      dup4\n        /* \"#utility.yul\":18214:18228   */\n      add\n        /* \"#utility.yul\":18210:18233   */\n      div\n        /* \"#utility.yul\":18200:18233   */\n      swap1\n      pop\n        /* \"#utility.yul\":18146:18239   */\n      swap2\n      swap1\n      pop\n      jump\t// out\n        /* \"#utility.yul\":18245:18352   */\n    tag_204:\n        /* \"#utility.yul\":18289:18297   */\n      0x00\n        /* \"#utility.yul\":18339:18344   */\n      dup3\n        /* \"#utility.yul\":18333:18337   */\n      dup3\n        /* \"#utility.yul\":18329:18345   */\n      shl\n        /* \"#utility.yul\":18308:18345   */\n      swap1\n      pop\n        /* \"#utility.yul\":18245:18352   */\n      swap3\n      swap2\n      pop\n      pop\n      jump\t// out\n        /* \"#utility.yul\":18358:18751   */\n    tag_205:\n        /* \"#utility.yul\":18427:18433   */\n      0x00\n        /* \"#utility.yul\":18477:18478   */\n      0x08\n        /* \"#utility.yul\":18465:18475   */\n      dup4\n        /* \"#utility.yul\":18461:18479   */\n      mul\n        /* \"#utility.yul\":18500:18597   */\n      tag_378\n        /* \"#utility.yul\":18530:18596   */\n      0xffffffffffffffffffffffffffffffffffffffffffffffffffffffffffffffff\n        /* \"#utility.yul\":18519:18528   */\n      dup3\n        /* \"#utility.yul\":18500:18597   */\n      tag_204\n      jump\t// in\n    tag_378:\n        /* \"#utility.yul\":18618:18657   */\n      tag_379\n        /* \"#utility.yul\":18648:18656   */\n      dup7\n        /* \"#utility.yul\":18637:18646   */\n      dup4\n        /* \"#utility.yul\":18618:18657   */\n      tag_204\n      jump\t// in\n    tag_379:\n        /* \"#utility.yul\":18606:18657   */\n      swap6\n      pop\n        /* \"#utility.yul\":18690:18694   */\n      dup1\n        /* \"#utility.yul\":18686:18695   */\n      not\n        /* \"#utility.yul\":18679:18684   */\n      dup5\n        /* \"#utility.yul\":18675:18696   */\n      and\n        /* \"#utility.yul\":18666:18696   */\n      swap4\n      pop\n        /* \"#utility.yul\":18739:18743   */\n      dup1\n        /* \"#utility.yul\":18729:18737   */\n      dup7\n        /* \"#utility.yul\":18725:18744   */\n      and\n        /* \"#utility.yul\":18718:18723   */\n      dup5\n        /* \"#utility.yul\":18715:18745   */\n      or\n        /* \"#utility.yul\":18705:18745   */\n      swap3\n      pop\n        /* \"#utility.yul\":18434:18751   */\n      pop\n      pop\n        /* \"#utility.yul\":18358:18751   */\n      swap4\n      swap3\n      pop\n      pop\n      pop\n      jump\t// out\n        /* \"#utility.yul\":18757:18817   */\n    tag_206:\n        /* \"#utility.yul\":18785:18788   */\n      0x00\n        /* \"#utility.yul\":18806:18811   */\n      dup2\n        /* \"#utility.yul\":18799:18811   */\n      swap1\n      pop\n        /* \"#utility.yul\":18757:18817   */\n      swap2\n      swap1\n      pop\n      jump\t// out\n        /* \"#utility.yul\":18823:18965   */\n    tag_207:\n        /* \"#utility.yul\":18873:18882   */\n      0x00\n        /* \"#utility.yul\":18906:18959   */\n      tag_382\n        /* \"#utility.yul\":18924:18958   */\n      tag_383\n        /* \"#utility.yul\":18933:18957   */\n      tag_384\n        /* \"#utility.yul\":18951:18956   */\n      dup5\n        /* \"#utility.yul\":18933:18957   */\n      tag_157\n      jump\t// in\n    tag_384:\n        /* \"#utility.yul\":18924:18958   */\n      tag_206\n      jump\t// in\n    tag_383:\n        /* \"#utility.yul\":18906:18959   */\n      tag_157\n      jump\t// in\n    tag_382:\n        /* \"#utility.yul\":18893:18959   */\n      swap1\n      pop\n        /* \"#utility.yul\":18823:18965   */\n      swap2\n      swap1\n      pop\n      jump\t// out\n        /* \"#utility.yul\":18971:19046   */\n    tag_208:\n        /* \"#utility.yul\":19014:19017   */\n      0x00\n        /* \"#utility.yul\":19035:19040   */\n      dup2\n        /* \"#utility.yul\":19028:19040   */\n      swap1\n      pop\n        /* \"#utility.yul\":18971:19046   */\n      swap2\n      swap1\n      pop\n      jump\t// out\n        /* \"#utility.yul\":19052:19321   */\n    tag_209:\n        /* \"#utility.yul\":19162:19201   */\n      tag_387\n        /* \"#utility.yul\":19193:19200   */\n      dup4\n        /* \"#utility.yul\":19162:19201   */\n      tag_207\n      jump\t// in\n    tag_387:\n        /* \"#utility.yul\":19223:19314   */\n      tag_388\n        /* \"#utility.yul\":19272:19313   */\n      tag_389\n        /* \"#utility.yul\":19296:19312   */\n      dup3\n        /* \"#utility.yul\":19272:19313   */\n      tag_208\n      jump\t// in\n    tag_389:\n        /* \"#utility.yul\":19264:19270   */\n      dup5\n        /* \"#utility.yul\":19257:19261   */\n      dup5\n        /* \"#utility.yul\":19251:19262   */\n      sload\n        /* \"#utility.yul\":19223:19314   */\n      tag_205\n      jump\t// in\n    tag_388:\n        /* \"#utility.yul\":19217:19221   */\n      dup3\n        /* \"#utility.yul\":19210:19315   */\n      sstore\n        /* \"#utility.yul\":19128:19321   */\n      pop\n        /* \"#utility.yul\":19052:19321   */\n      pop\n      pop\n      pop\n      jump\t// out\n        /* \"#utility.yul\":19327:19400   */\n    tag_210:\n        /* \"#utility.yul\":19372:19375   */\n      0x00\n        /* \"#utility.yul\":19327:19400   */\n      swap1\n      jump\t// out\n        /* \"#utility.yul\":19406:19595   */\n    tag_211:\n        /* \"#utility.yul\":19483:19515   */\n      tag_392\n      tag_210\n      jump\t// in\n    tag_392:\n        /* \"#utility.yul\":19524:19589   */\n      tag_393\n        /* \"#utility.yul\":19582:19588   */\n      dup2\n        /* \"#utility.yul\":19574:19580   */\n      dup5\n        /* \"#utility.yul\":19568:19572   */\n      dup5\n        /* \"#utility.yul\":19524:19589   */\n      tag_209\n      jump\t// in\n    tag_393:\n        /* \"#utility.yul\":19459:19595   */\n      pop\n        /* \"#utility.yul\":19406:19595   */\n      pop\n      pop\n      jump\t// out\n        /* \"#utility.yul\":19601:19787   */\n    tag_212:\n        /* \"#utility.yul\":19661:19781   */\n    tag_395:\n        /* \"#utility.yul\":19678:19681   */\n      dup2\n        /* \"#utility.yul\":19671:19676   */\n      dup2\n        /* \"#utility.yul\":19668:19682   */\n      lt\n        /* \"#utility.yul\":19661:19781   */\n      iszero\n      tag_397\n      jumpi\n        /* \"#utility.yul\":19732:19771   */\n      tag_398\n        /* \"#utility.yul\":19769:19770   */\n      0x00\n        /* \"#utility.yul\":19762:19767   */\n      dup3\n        /* \"#utility.yul\":19732:19771   */\n      tag_211\n      jump\t// in\n    tag_398:\n        /* \"#utility.yul\":19705:19706   */\n      0x01\n        /* \"#utility.yul\":19698:19703   */\n      dup2\n        /* \"#utility.yul\":19694:19707   */\n      add\n        /* \"#utility.yul\":19685:19707   */\n      swap1\n      pop\n        /* \"#utility.yul\":19661:19781   */\n      jump(tag_395)\n    tag_397:\n        /* \"#utility.yul\":19601:19787   */\n      pop\n      pop\n      jump\t// out\n        /* \"#utility.yul\":19793:20336   */\n    tag_213:\n        /* \"#utility.yul\":19894:19896   */\n      0x1f\n        /* \"#utility.yul\":19889:19892   */\n      dup3\n        /* \"#utility.yul\":19886:19897   */\n      gt\n        /* \"#utility.yul\":19883:20329   */\n      iszero\n      tag_400\n      jumpi\n        /* \"#utility.yul\":19928:19966   */\n      tag_401\n        /* \"#utility.yul\":19960:19965   */\n      dup2\n        /* \"#utility.yul\":19928:19966   */\n      tag_202\n      jump\t// in\n    tag_401:\n        /* \"#utility.yul\":20012:20041   */\n      tag_402\n        /* \"#utility.yul\":20030:20040   */\n      dup5\n        /* \"#utility.yul\":20012:20041   */\n      tag_203\n      jump\t// in\n    tag_402:\n        /* \"#utility.yul\":20002:20010   */\n      dup2\n        /* \"#utility.yul\":19998:20042   */\n      add\n        /* \"#utility.yul\":20195:20197   */\n      0x20\n        /* \"#utility.yul\":20183:20193   */\n      dup6\n        /* \"#utility.yul\":20180:20198   */\n      lt\n        /* \"#utility.yul\":20177:20226   */\n      iszero\n      tag_403\n      jumpi\n        /* \"#utility.yul\":20216:20224   */\n      dup2\n        /* \"#utility.yul\":20201:20224   */\n      swap1\n      pop\n        /* \"#utility.yul\":20177:20226   */\n    tag_403:\n        /* \"#utility.yul\":20239:20319   */\n      tag_404\n        /* \"#utility.yul\":20295:20317   */\n      tag_405\n        /* \"#utility.yul\":20313:20316   */\n      dup6\n        /* \"#utility.yul\":20295:20317   */\n      tag_203\n      jump\t// in\n    tag_405:\n        /* \"#utility.yul\":20285:20293   */\n      dup4\n        /* \"#utility.yul\":20281:20318   */\n      add\n        /* \"#utility.yul\":20268:20279   */\n      dup3\n        /* \"#utility.yul\":20239:20319   */\n      tag_212\n      jump\t// in\n    tag_404:\n        /* \"#utility.yul\":19898:20329   */\n      pop\n      pop\n        /* \"#utility.yul\":19883:20329   */\n    tag_400:\n        /* \"#utility.yul\":19793:20336   */\n      pop\n      pop\n      pop\n      jump\t// out\n        /* \"#utility.yul\":20342:20459   */\n    tag_214:\n        /* \"#utility.yul\":20396:20404   */\n      0x00\n        /* \"#utility.yul\":20446:20451   */\n      dup3\n        /* \"#utility.yul\":20440:20444   */\n      dup3\n        /* \"#utility.yul\":20436:20452   */\n      shr\n        /* \"#utility.yul\":20415:20452   */\n      swap1\n      pop\n        /* \"#utility.yul\":20342:20459   */\n      swap3\n      swap2\n      pop\n      pop\n      jump\t// out\n        /* \"#utility.yul\":20465:20634   */\n    tag_215:\n        /* \"#utility.yul\":20509:20515   */\n      0x00\n        /* \"#utility.yul\":20542:20593   */\n      tag_408\n        /* \"#utility.yul\":20590:20591   */\n      0x00\n        /* \"#utility.yul\":20586:20592   */\n      not\n        /* \"#utility.yul\":20578:20583   */\n      dup5\n        /* \"#utility.yul\":20575:20576   */\n      0x08\n        /* \"#utility.yul\":20571:20584   */\n      mul\n        /* \"#utility.yul\":20542:20593   */\n      tag_214\n      jump\t// in\n    tag_408:\n        /* \"#utility.yul\":20538:20594   */\n      not\n        /* \"#utility.yul\":20623:20627   */\n      dup1\n        /* \"#utility.yul\":20617:20621   */\n      dup4\n        /* \"#utility.yul\":20613:20628   */\n      and\n        /* \"#utility.yul\":20603:20628   */\n      swap2\n      pop\n        /* \"#utility.yul\":20516:20634   */\n      pop\n        /* \"#utility.yul\":20465:20634   */\n      swap3\n      swap2\n      pop\n      pop\n      jump\t// out\n        /* \"#utility.yul\":20639:20934   */\n    tag_216:\n        /* \"#utility.yul\":20715:20719   */\n      0x00\n        /* \"#utility.yul\":20861:20890   */\n      tag_410\n        /* \"#utility.yul\":20886:20889   */\n      dup4\n        /* \"#utility.yul\":20880:20884   */\n      dup4\n        /* \"#utility.yul\":20861:20890   */\n      tag_215\n      jump\t// in\n    tag_410:\n        /* \"#utility.yul\":20853:20890   */\n      swap2\n      pop\n        /* \"#utility.yul\":20923:20926   */\n      dup3\n        /* \"#utility.yul\":20920:20921   */\n      0x02\n        /* \"#utility.yul\":20916:20927   */\n      mul\n        /* \"#utility.yul\":20910:20914   */\n      dup3\n        /* \"#utility.yul\":20907:20928   */\n      or\n        /* \"#utility.yul\":20899:20928   */\n      swap1\n      pop\n        /* \"#utility.yul\":20639:20934   */\n      swap3\n      swap2\n      pop\n      pop\n      jump\t// out\n        /* \"#utility.yul\":20939:22334   */\n    tag_147:\n        /* \"#utility.yul\":21056:21093   */\n      tag_412\n        /* \"#utility.yul\":21089:21092   */\n      dup3\n        /* \"#utility.yul\":21056:21093   */\n      tag_161\n      jump\t// in\n    tag_412:\n        /* \"#utility.yul\":21158:21176   */\n      0xffffffffffffffff\n        /* \"#utility.yul\":21150:21156   */\n      dup2\n        /* \"#utility.yul\":21147:21177   */\n      gt\n        /* \"#utility.yul\":21144:21200   */\n      iszero\n      tag_413\n      jumpi\n        /* \"#utility.yul\":21180:21198   */\n      tag_414\n      tag_172\n      jump\t// in\n    tag_414:\n        /* \"#utility.yul\":21144:21200   */\n    tag_413:\n        /* \"#utility.yul\":21224:21262   */\n      tag_415\n        /* \"#utility.yul\":21256:21260   */\n      dup3\n        /* \"#utility.yul\":21250:21261   */\n      sload\n        /* \"#utility.yul\":21224:21262   */\n      tag_88\n      jump\t// in\n    tag_415:\n        /* \"#utility.yul\":21309:21376   */\n      tag_416\n        /* \"#utility.yul\":21369:21375   */\n      dup3\n        /* \"#utility.yul\":21361:21367   */\n      dup3\n        /* \"#utility.yul\":21355:21359   */\n      dup6\n        /* \"#utility.yul\":21309:21376   */\n      tag_213\n      jump\t// in\n    tag_416:\n        /* \"#utility.yul\":21403:21404   */\n      0x00\n        /* \"#utility.yul\":21427:21431   */\n      0x20\n        /* \"#utility.yul\":21414:21431   */\n      swap1\n      pop\n        /* \"#utility.yul\":21459:21461   */\n      0x1f\n        /* \"#utility.yul\":21451:21457   */\n      dup4\n        /* \"#utility.yul\":21448:21462   */\n      gt\n        /* \"#utility.yul\":21476:21477   */\n      0x01\n        /* \"#utility.yul\":21471:22089   */\n      dup2\n      eq\n      tag_418\n      jumpi\n        /* \"#utility.yul\":22133:22134   */\n      0x00\n        /* \"#utility.yul\":22150:22156   */\n      dup5\n        /* \"#utility.yul\":22147:22224   */\n      iszero\n      tag_419\n      jumpi\n        /* \"#utility.yul\":22199:22208   */\n      dup3\n        /* \"#utility.yul\":22194:22197   */\n      dup8\n        /* \"#utility.yul\":22190:22209   */\n      add\n        /* \"#utility.yul\":22184:22210   */\n      mload\n        /* \"#utility.yul\":22175:22210   */\n      swap1\n      pop\n        /* \"#utility.yul\":22147:22224   */\n    tag_419:\n        /* \"#utility.yul\":22250:22317   */\n      tag_420\n        /* \"#utility.yul\":22310:22316   */\n      dup6\n        /* \"#utility.yul\":22303:22308   */\n      dup3\n        /* \"#utility.yul\":22250:22317   */\n      tag_216\n      jump\t// in\n    tag_420:\n        /* \"#utility.yul\":22244:22248   */\n      dup7\n        /* \"#utility.yul\":22237:22318   */\n      sstore\n        /* \"#utility.yul\":22106:22328   */\n      pop\n        /* \"#utility.yul\":21441:22328   */\n      jump(tag_417)\n        /* \"#utility.yul\":21471:22089   */\n    tag_418:\n        /* \"#utility.yul\":21523:21527   */\n      0x1f\n        /* \"#utility.yul\":21519:21528   */\n      not\n        /* \"#utility.yul\":21511:21517   */\n      dup5\n        /* \"#utility.yul\":21507:21529   */\n      and\n        /* \"#utility.yul\":21557:21594   */\n      tag_421\n        /* \"#utility.yul\":21589:21593   */\n      dup7\n        /* \"#utility.yul\":21557:21594   */\n      tag_202\n      jump\t// in\n    tag_421:\n        /* \"#utility.yul\":21616:21617   */\n      0x00\n        /* \"#utility.yul\":21630:21838   */\n    tag_422:\n        /* \"#utility.yul\":21644:21651   */\n      dup3\n        /* \"#utility.yul\":21641:21642   */\n      dup2\n        /* \"#utility.yul\":21638:21652   */\n      lt\n        /* \"#utility.yul\":21630:21838   */\n      iszero\n      tag_424\n      jumpi\n        /* \"#utility.yul\":21723:21732   */\n      dup5\n        /* \"#utility.yul\":21718:21721   */\n      dup10\n        /* \"#utility.yul\":21714:21733   */\n      add\n        /* \"#utility.yul\":21708:21734   */\n      mload\n        /* \"#utility.yul\":21700:21706   */\n      dup3\n        /* \"#utility.yul\":21693:21735   */\n      sstore\n        /* \"#utility.yul\":21774:21775   */\n      0x01\n        /* \"#utility.yul\":21766:21772   */\n      dup3\n        /* \"#utility.yul\":21762:21776   */\n      add\n        /* \"#utility.yul\":21752:21776   */\n      swap2\n      pop\n        /* \"#utility.yul\":21821:21823   */\n      0x20\n        /* \"#utility.yul\":21810:21819   */\n      dup6\n        /* \"#utility.yul\":21806:21824   */\n      add\n        /* \"#utility.yul\":21793:21824   */\n      swap5\n      pop\n        /* \"#utility.yul\":21667:21671   */\n      0x20\n        /* \"#utility.yul\":21664:21665   */\n      dup2\n        /* \"#utility.yul\":21660:21672   */\n      add\n        /* \"#utility.yul\":21655:21672   */\n      swap1\n      pop\n        /* \"#utility.yul\":21630:21838   */\n      jump(tag_422)\n    tag_424:\n        /* \"#utility.yul\":21866:21872   */\n      dup7\n        /* \"#utility.yul\":21857:21864   */\n      dup4\n        /* \"#utility.yul\":21854:21873   */\n      lt\n        /* \"#utility.yul\":21851:22030   */\n      iszero\n      tag_425\n      jumpi\n        /* \"#utility.yul\":21924:21933   */\n      dup5\n        /* \"#utility.yul\":21919:21922   */\n      dup10\n        /* \"#utility.yul\":21915:21934   */\n      add\n        /* \"#utility.yul\":21909:21935   */\n      mload\n        /* \"#utility.yul\":21967:22015   */\n      tag_426\n        /* \"#utility.yul\":22009:22013   */\n      0x1f\n        /* \"#utility.yul\":22001:22007   */\n      dup10\n        /* \"#utility.yul\":21997:22014   */\n      and\n        /* \"#utility.yul\":21986:21995   */\n      dup3\n        /* \"#utility.yul\":21967:22015   */\n      tag_215\n      jump\t// in\n    tag_426:\n        /* \"#utility.yul\":21959:21965   */\n      dup4\n        /* \"#utility.yul\":21952:22016   */\n      sstore\n        /* \"#utility.yul\":21874:22030   */\n      pop\n        /* \"#utility.yul\":21851:22030   */\n    tag_425:\n        /* \"#utility.yul\":22076:22077   */\n      0x01\n        /* \"#utility.yul\":22072:22073   */\n      0x02\n        /* \"#utility.yul\":22064:22070   */\n      dup9\n        /* \"#utility.yul\":22060:22074   */\n      mul\n        /* \"#utility.yul\":22056:22078   */\n      add\n        /* \"#utility.yul\":22050:22054   */\n      dup9\n        /* \"#utility.yul\":22043:22079   */\n      sstore\n        /* \"#utility.yul\":21478:22089   */\n      pop\n      pop\n      pop\n        /* \"#utility.yul\":21441:22328   */\n    tag_417:\n      pop\n        /* \"#utility.yul\":21031:22334   */\n      pop\n      pop\n      pop\n        /* \"#utility.yul\":20939:22334   */\n      pop\n      pop\n      jump\t// out\n\n    auxdata: 0xa26469706673582212202bb8731fbd302f0af96b7c161146e57bc2501e952d3760f7299b4c4c2efd0fe064736f6c634300081a0033\n}\n",
				"bytecode": {
					"linkReferences": {},
					"object": "6080604052348015600e575f80fd5b50335f806101000a81548173ffffffffffffffffffffffffffffffffffffffff021916908373ffffffffffffffffffffffffffffffffffffffff1602179055505f60035f6101000a81548160ff021916908315150217905550611835806100745f395ff3fe608060405234801561000f575f80fd5b50600436106100b2575f3560e01c80638e7ea5b21161006f5780638e7ea5b2146101515780639eb88db61461016f578063a3ec138d1461018b578063aab46b7f146101bd578063b315c597146101db578063d5346da11461020b576100b2565b80630121b93f146100b657806330a56347146100d25780633477ee2e146100f057806338db6dd31461012157806359f784681461013d57806362d73eb814610147575b5f80fd5b6100d060048036038101906100cb9190610d1b565b610229565b005b6100da610441565b6040516100e79190610d55565b60405180910390f35b61010a60048036038101906101059190610d1b565b61044d565b604051610118929190610dde565b60405180910390f35b61013b60048036038101906101369190610e66565b610502565b005b6101456106fb565b005b61014f610824565b005b61015961098f565b6040516101669190610e91565b60405180910390f35b61018960048036038101906101849190610fdd565b610b04565b005b6101a560048036038101906101a09190610e66565b610bf1565b6040516101b49392919061103e565b60405180910390f35b6101c5610c2f565b6040516101d29190611082565b60405180910390f35b6101f560048036038101906101f09190610d1b565b610c52565b6040516102029190610d55565b60405180910390f35b610213610cc5565b604051610220919061109b565b60405180910390f35b6001151560035f9054906101000a900460ff1615151461027e576040517f08c379a0000000000000000000000000000000000000000000000000000000008152600401610275906110fe565b60405180910390fd5b5f60015f3373ffffffffffffffffffffffffffffffffffffffff1673ffffffffffffffffffffffffffffffffffffffff1681526020019081526020015f209050805f015f9054906101000a900460ff1661030d576040517f08c379a000000000000000000000000000000000000000000000000000000000815260040161030490611166565b60405180910390fd5b805f0160019054906101000a900460ff161561035e576040517f08c379a0000000000000000000000000000000000000000000000000000000008152600401610355906111ce565b60405180910390fd5b60028054905082106103a5576040517f08c379a000000000000000000000000000000000000000000000000000000000815260040161039c90611236565b60405180910390fd5b6001815f0160016101000a81548160ff0219169083151502179055508181600101819055506001600283815481106103e0576103df611254565b5b905f5260205f2090600202016001015f8282546103fd91906112ae565b925050819055507fd0e6c39f2e086dc49f1524b47725526a56945cd1ff661f37976f1725a1e5698633836040516104359291906112e1565b60405180910390a15050565b5f600280549050905090565b6002818154811061045c575f80fd5b905f5260205f2090600202015f91509050805f01805461047b90611335565b80601f01602080910402602001604051908101604052809291908181526020018280546104a790611335565b80156104f25780601f106104c9576101008083540402835291602001916104f2565b820191905f5260205f20905b8154815290600101906020018083116104d557829003601f168201915b5050505050908060010154905082565b5f8054906101000a900473ffffffffffffffffffffffffffffffffffffffff1673ffffffffffffffffffffffffffffffffffffffff163373ffffffffffffffffffffffffffffffffffffffff161461058f576040517f08c379a0000000000000000000000000000000000000000000000000000000008152600401610586906113d5565b60405180910390fd5b60015f8273ffffffffffffffffffffffffffffffffffffffff1673ffffffffffffffffffffffffffffffffffffffff1681526020019081526020015f205f015f9054906101000a900460ff161561061b576040517f08c379a00000000000000000000000000000000000000000000000000000000081526004016106129061143d565b60405180910390fd5b60405180606001604052806001151581526020015f151581526020015f81525060015f8373ffffffffffffffffffffffffffffffffffffffff1673ffffffffffffffffffffffffffffffffffffffff1681526020019081526020015f205f820151815f015f6101000a81548160ff0219169083151502179055506020820151815f0160016101000a81548160ff021916908315150217905550604082015181600101559050507fb6be2187d059cc2a55fe29e0e503b566e1e0f8c8780096e185429350acffd3dd816040516106f09190611082565b60405180910390a150565b5f8054906101000a900473ffffffffffffffffffffffffffffffffffffffff1673ffffffffffffffffffffffffffffffffffffffff163373ffffffffffffffffffffffffffffffffffffffff1614610788576040517f08c379a000000000000000000000000000000000000000000000000000000000815260040161077f906113d5565b60405180910390fd5b6001151560035f9054906101000a900460ff161515146107dd576040517f08c379a00000000000000000000000000000000000000000000000000000000081526004016107d4906110fe565b60405180910390fd5b5f60035f6101000a81548160ff0219169083151502179055507f66ec723071e4bb646f7b35d31bc2dee8510979bd8c180edd0690d4f5e802f1e460405160405180910390a1565b5f8054906101000a900473ffffffffffffffffffffffffffffffffffffffff1673ffffffffffffffffffffffffffffffffffffffff163373ffffffffffffffffffffffffffffffffffffffff16146108b1576040517f08c379a00000000000000000000000000000000000000000000000000000000081526004016108a8906113d5565b60405180910390fd5b60035f9054906101000a900460ff1615610900576040517f08c379a00000000000000000000000000000000000000000000000000000000081526004016108f7906114a5565b60405180910390fd5b5f60028054905011610947576040517f08c379a000000000000000000000000000000000000000000000000000000000815260040161093e9061150d565b60405180910390fd5b600160035f6101000a81548160ff0219169083151502179055507fc475c26aa25ed8e85a7faa790e5f63b5d7ee1025f12821f4c9bfddd36ab4d11260405160405180910390a1565b606060035f9054906101000a900460ff16156109e0576040517f08c379a00000000000000000000000000000000000000000000000000000000081526004016109d790611575565b60405180910390fd5b5f805f5b600280549050811015610a53578260028281548110610a0657610a05611254565b5b905f5260205f209060020201600101541115610a465760028181548110610a3057610a2f611254565b5b905f5260205f2090600202016001015492508091505b80806001019150506109e4565b5060028181548110610a6857610a67611254565b5b905f5260205f2090600202015f018054610a8190611335565b80601f0160208091040260200160405190810160405280929190818152602001828054610aad90611335565b8015610af85780601f10610acf57610100808354040283529160200191610af8565b820191905f5260205f20905b815481529060010190602001808311610adb57829003601f168201915b50505050509250505090565b5f8054906101000a900473ffffffffffffffffffffffffffffffffffffffff1673ffffffffffffffffffffffffffffffffffffffff163373ffffffffffffffffffffffffffffffffffffffff1614610b91576040517f08c379a0000000000000000000000000000000000000000000000000000000008152600401610b88906113d5565b60405180910390fd5b600260405180604001604052808381526020015f815250908060018154018082558091505060019003905f5260205f2090600202015f909190919091505f820151815f019081610be19190611730565b5060208201518160010155505050565b6001602052805f5260405f205f91509050805f015f9054906101000a900460ff1690805f0160019054906101000a900460ff16908060010154905083565b5f8054906101000a900473ffffffffffffffffffffffffffffffffffffffff1681565b5f6002805490508210610c9a576040517f08c379a0000000000000000000000000000000000000000000000000000000008152600401610c9190611236565b60405180910390fd5b60028281548110610cae57610cad611254565b5b905f5260205f209060020201600101549050919050565b60035f9054906101000a900460ff1681565b5f604051905090565b5f80fd5b5f80fd5b5f819050919050565b610cfa81610ce8565b8114610d04575f80fd5b50565b5f81359050610d1581610cf1565b92915050565b5f60208284031215610d3057610d2f610ce0565b5b5f610d3d84828501610d07565b91505092915050565b610d4f81610ce8565b82525050565b5f602082019050610d685f830184610d46565b92915050565b5f81519050919050565b5f82825260208201905092915050565b8281835e5f83830152505050565b5f601f19601f8301169050919050565b5f610db082610d6e565b610dba8185610d78565b9350610dca818560208601610d88565b610dd381610d96565b840191505092915050565b5f6040820190508181035f830152610df68185610da6565b9050610e056020830184610d46565b9392505050565b5f73ffffffffffffffffffffffffffffffffffffffff82169050919050565b5f610e3582610e0c565b9050919050565b610e4581610e2b565b8114610e4f575f80fd5b50565b5f81359050610e6081610e3c565b92915050565b5f60208284031215610e7b57610e7a610ce0565b5b5f610e8884828501610e52565b91505092915050565b5f6020820190508181035f830152610ea98184610da6565b905092915050565b5f80fd5b5f80fd5b7f4e487b71000000000000000000000000000000000000000000000000000000005f52604160045260245ffd5b610eef82610d96565b810181811067ffffffffffffffff82111715610f0e57610f0d610eb9565b5b80604052505050565b5f610f20610cd7565b9050610f2c8282610ee6565b919050565b5f67ffffffffffffffff821115610f4b57610f4a610eb9565b5b610f5482610d96565b9050602081019050919050565b828183375f83830152505050565b5f610f81610f7c84610f31565b610f17565b905082815260208101848484011115610f9d57610f9c610eb5565b5b610fa8848285610f61565b509392505050565b5f82601f830112610fc457610fc3610eb1565b5b8135610fd4848260208601610f6f565b91505092915050565b5f60208284031215610ff257610ff1610ce0565b5b5f82013567ffffffffffffffff81111561100f5761100e610ce4565b5b61101b84828501610fb0565b91505092915050565b5f8115159050919050565b61103881611024565b82525050565b5f6060820190506110515f83018661102f565b61105e602083018561102f565b61106b6040830184610d46565b949350505050565b61107c81610e2b565b82525050565b5f6020820190506110955f830184611073565b92915050565b5f6020820190506110ae5f83018461102f565b92915050565b7f456c656374696f6e206973206e6f742063757272656e746c79206163746976655f82015250565b5f6110e8602083610d78565b91506110f3826110b4565b602082019050919050565b5f6020820190508181035f830152611115816110dc565b9050919050565b7f596f7520617265206e6f74207265676973746572656420746f20766f746500005f82015250565b5f611150601e83610d78565b915061115b8261111c565b602082019050919050565b5f6020820190508181035f83015261117d81611144565b9050919050565b7f596f75206861766520616c726561647920766f746564000000000000000000005f82015250565b5f6111b8601683610d78565b91506111c382611184565b602082019050919050565b5f6020820190508181035f8301526111e5816111ac565b9050919050565b7f496e76616c69642063616e64696461746520696e6465780000000000000000005f82015250565b5f611220601783610d78565b915061122b826111ec565b602082019050919050565b5f6020820190508181035f83015261124d81611214565b9050919050565b7f4e487b71000000000000000000000000000000000000000000000000000000005f52603260045260245ffd5b7f4e487b71000000000000000000000000000000000000000000000000000000005f52601160045260245ffd5b5f6112b882610ce8565b91506112c383610ce8565b92508282019050808211156112db576112da611281565b5b92915050565b5f6040820190506112f45f830185611073565b6113016020830184610d46565b9392505050565b7f4e487b71000000000000000000000000000000000000000000000000000000005f52602260045260245ffd5b5f600282049050600182168061134c57607f821691505b60208210810361135f5761135e611308565b5b50919050565b7f4f6e6c7920656c656374696f6e20636f6d6d697373696f6e2063616e206578655f8201527f6375746520746869730000000000000000000000000000000000000000000000602082015250565b5f6113bf602983610d78565b91506113ca82611365565b604082019050919050565b5f6020820190508181035f8301526113ec816113b3565b9050919050565b7f566f74657220697320616c7265616479207265676973746572656400000000005f82015250565b5f611427601b83610d78565b9150611432826113f3565b602082019050919050565b5f6020820190508181035f8301526114548161141b565b9050919050565b7f456c656374696f6e2068617320616c72656164792073746172746564000000005f82015250565b5f61148f601c83610d78565b915061149a8261145b565b602082019050919050565b5f6020820190508181035f8301526114bc81611483565b9050919050565b7f4e6f2063616e64696461746573207265676973746572656400000000000000005f82015250565b5f6114f7601883610d78565b9150611502826114c3565b602082019050919050565b5f6020820190508181035f830152611524816114eb565b9050919050565b7f456c656374696f6e206973207374696c6c206f6e676f696e67000000000000005f82015250565b5f61155f601983610d78565b915061156a8261152b565b602082019050919050565b5f6020820190508181035f83015261158c81611553565b9050919050565b5f819050815f5260205f209050919050565b5f6020601f8301049050919050565b5f82821b905092915050565b5f600883026115ef7fffffffffffffffffffffffffffffffffffffffffffffffffffffffffffffffff826115b4565b6115f986836115b4565b95508019841693508086168417925050509392505050565b5f819050919050565b5f61163461162f61162a84610ce8565b611611565b610ce8565b9050919050565b5f819050919050565b61164d8361161a565b6116616116598261163b565b8484546115c0565b825550505050565b5f90565b611675611669565b611680818484611644565b505050565b5b818110156116a3576116985f8261166d565b600181019050611686565b5050565b601f8211156116e8576116b981611593565b6116c2846115a5565b810160208510156116d1578190505b6116e56116dd856115a5565b830182611685565b50505b505050565b5f82821c905092915050565b5f6117085f19846008026116ed565b1980831691505092915050565b5f61172083836116f9565b9150826002028217905092915050565b61173982610d6e565b67ffffffffffffffff81111561175257611751610eb9565b5b61175c8254611335565b6117678282856116a7565b5f60209050601f831160018114611798575f8415611786578287015190505b6117908582611715565b8655506117f7565b601f1984166117a686611593565b5f5b828110156117cd578489015182556001820191506020850194506020810190506117a8565b868310156117ea57848901516117e6601f8916826116f9565b8355505b6001600288020188555050505b50505050505056fea26469706673582212202bb8731fbd302f0af96b7c161146e57bc2501e952d3760f7299b4c4c2efd0fe064736f6c634300081a0033",
					"opcodes": "PUSH1 0x80 PUSH1 0x40 MSTORE CALLVALUE DUP1 ISZERO PUSH1 0xE JUMPI PUSH0 DUP1 REVERT JUMPDEST POP CALLER PUSH0 DUP1 PUSH2 0x100 EXP DUP2 SLOAD DUP2 PUSH20 0xFFFFFFFFFFFFFFFFFFFFFFFFFFFFFFFFFFFFFFFF MUL NOT AND SWAP1 DUP4 PUSH20 0xFFFFFFFFFFFFFFFFFFFFFFFFFFFFFFFFFFFFFFFF AND MUL OR SWAP1 SSTORE POP PUSH0 PUSH1 0x3 PUSH0 PUSH2 0x100 EXP DUP2 SLOAD DUP2 PUSH1 0xFF MUL NOT AND SWAP1 DUP4 ISZERO ISZERO MUL OR SWAP1 SSTORE POP PUSH2 0x1835 DUP1 PUSH2 0x74 PUSH0 CODECOPY PUSH0 RETURN INVALID PUSH1 0x80 PUSH1 0x40 MSTORE CALLVALUE DUP1 ISZERO PUSH2 0xF JUMPI PUSH0 DUP1 REVERT JUMPDEST POP PUSH1 0x4 CALLDATASIZE LT PUSH2 0xB2 JUMPI PUSH0 CALLDATALOAD PUSH1 0xE0 SHR DUP1 PUSH4 0x8E7EA5B2 GT PUSH2 0x6F JUMPI DUP1 PUSH4 0x8E7EA5B2 EQ PUSH2 0x151 JUMPI DUP1 PUSH4 0x9EB88DB6 EQ PUSH2 0x16F JUMPI DUP1 PUSH4 0xA3EC138D EQ PUSH2 0x18B JUMPI DUP1 PUSH4 0xAAB46B7F EQ PUSH2 0x1BD JUMPI DUP1 PUSH4 0xB315C597 EQ PUSH2 0x1DB JUMPI DUP1 PUSH4 0xD5346DA1 EQ PUSH2 0x20B JUMPI PUSH2 0xB2 JUMP JUMPDEST DUP1 PUSH4 0x121B93F EQ PUSH2 0xB6 JUMPI DUP1 PUSH4 0x30A56347 EQ PUSH2 0xD2 JUMPI DUP1 PUSH4 0x3477EE2E EQ PUSH2 0xF0 JUMPI DUP1 PUSH4 0x38DB6DD3 EQ PUSH2 0x121 JUMPI DUP1 PUSH4 0x59F78468 EQ PUSH2 0x13D JUMPI DUP1 PUSH4 0x62D73EB8 EQ PUSH2 0x147 JUMPI JUMPDEST PUSH0 DUP1 REVERT JUMPDEST PUSH2 0xD0 PUSH1 0x4 DUP1 CALLDATASIZE SUB DUP2 ADD SWAP1 PUSH2 0xCB SWAP2 SWAP1 PUSH2 0xD1B JUMP JUMPDEST PUSH2 0x229 JUMP JUMPDEST STOP JUMPDEST PUSH2 0xDA PUSH2 0x441 JUMP JUMPDEST PUSH1 0x40 MLOAD PUSH2 0xE7 SWAP2 SWAP1 PUSH2 0xD55 JUMP JUMPDEST PUSH1 0x40 MLOAD DUP1 SWAP2 SUB SWAP1 RETURN JUMPDEST PUSH2 0x10A PUSH1 0x4 DUP1 CALLDATASIZE SUB DUP2 ADD SWAP1 PUSH2 0x105 SWAP2 SWAP1 PUSH2 0xD1B JUMP JUMPDEST PUSH2 0x44D JUMP JUMPDEST PUSH1 0x40 MLOAD PUSH2 0x118 SWAP3 SWAP2 SWAP1 PUSH2 0xDDE JUMP JUMPDEST PUSH1 0x40 MLOAD DUP1 SWAP2 SUB SWAP1 RETURN JUMPDEST PUSH2 0x13B PUSH1 0x4 DUP1 CALLDATASIZE SUB DUP2 ADD SWAP1 PUSH2 0x136 SWAP2 SWAP1 PUSH2 0xE66 JUMP JUMPDEST PUSH2 0x502 JUMP JUMPDEST STOP JUMPDEST PUSH2 0x145 PUSH2 0x6FB JUMP JUMPDEST STOP JUMPDEST PUSH2 0x14F PUSH2 0x824 JUMP JUMPDEST STOP JUMPDEST PUSH2 0x159 PUSH2 0x98F JUMP JUMPDEST PUSH1 0x40 MLOAD PUSH2 0x166 SWAP2 SWAP1 PUSH2 0xE91 JUMP JUMPDEST PUSH1 0x40 MLOAD DUP1 SWAP2 SUB SWAP1 RETURN JUMPDEST PUSH2 0x189 PUSH1 0x4 DUP1 CALLDATASIZE SUB DUP2 ADD SWAP1 PUSH2 0x184 SWAP2 SWAP1 PUSH2 0xFDD JUMP JUMPDEST PUSH2 0xB04 JUMP JUMPDEST STOP JUMPDEST PUSH2 0x1A5 PUSH1 0x4 DUP1 CALLDATASIZE SUB DUP2 ADD SWAP1 PUSH2 0x1A0 SWAP2 SWAP1 PUSH2 0xE66 JUMP JUMPDEST PUSH2 0xBF1 JUMP JUMPDEST PUSH1 0x40 MLOAD PUSH2 0x1B4 SWAP4 SWAP3 SWAP2 SWAP1 PUSH2 0x103E JUMP JUMPDEST PUSH1 0x40 MLOAD DUP1 SWAP2 SUB SWAP1 RETURN JUMPDEST PUSH2 0x1C5 PUSH2 0xC2F JUMP JUMPDEST PUSH1 0x40 MLOAD PUSH2 0x1D2 SWAP2 SWAP1 PUSH2 0x1082 JUMP JUMPDEST PUSH1 0x40 MLOAD DUP1 SWAP2 SUB SWAP1 RETURN JUMPDEST PUSH2 0x1F5 PUSH1 0x4 DUP1 CALLDATASIZE SUB DUP2 ADD SWAP1 PUSH2 0x1F0 SWAP2 SWAP1 PUSH2 0xD1B JUMP JUMPDEST PUSH2 0xC52 JUMP JUMPDEST PUSH1 0x40 MLOAD PUSH2 0x202 SWAP2 SWAP1 PUSH2 0xD55 JUMP JUMPDEST PUSH1 0x40 MLOAD DUP1 SWAP2 SUB SWAP1 RETURN JUMPDEST PUSH2 0x213 PUSH2 0xCC5 JUMP JUMPDEST PUSH1 0x40 MLOAD PUSH2 0x220 SWAP2 SWAP1 PUSH2 0x109B JUMP JUMPDEST PUSH1 0x40 MLOAD DUP1 SWAP2 SUB SWAP1 RETURN JUMPDEST PUSH1 0x1 ISZERO ISZERO PUSH1 0x3 PUSH0 SWAP1 SLOAD SWAP1 PUSH2 0x100 EXP SWAP1 DIV PUSH1 0xFF AND ISZERO ISZERO EQ PUSH2 0x27E JUMPI PUSH1 0x40 MLOAD PUSH32 0x8C379A000000000000000000000000000000000000000000000000000000000 DUP2 MSTORE PUSH1 0x4 ADD PUSH2 0x275 SWAP1 PUSH2 0x10FE JUMP JUMPDEST PUSH1 0x40 MLOAD DUP1 SWAP2 SUB SWAP1 REVERT JUMPDEST PUSH0 PUSH1 0x1 PUSH0 CALLER PUSH20 0xFFFFFFFFFFFFFFFFFFFFFFFFFFFFFFFFFFFFFFFF AND PUSH20 0xFFFFFFFFFFFFFFFFFFFFFFFFFFFFFFFFFFFFFFFF AND DUP2 MSTORE PUSH1 0x20 ADD SWAP1 DUP2 MSTORE PUSH1 0x20 ADD PUSH0 KECCAK256 SWAP1 POP DUP1 PUSH0 ADD PUSH0 SWAP1 SLOAD SWAP1 PUSH2 0x100 EXP SWAP1 DIV PUSH1 0xFF AND PUSH2 0x30D JUMPI PUSH1 0x40 MLOAD PUSH32 0x8C379A000000000000000000000000000000000000000000000000000000000 DUP2 MSTORE PUSH1 0x4 ADD PUSH2 0x304 SWAP1 PUSH2 0x1166 JUMP JUMPDEST PUSH1 0x40 MLOAD DUP1 SWAP2 SUB SWAP1 REVERT JUMPDEST DUP1 PUSH0 ADD PUSH1 0x1 SWAP1 SLOAD SWAP1 PUSH2 0x100 EXP SWAP1 DIV PUSH1 0xFF AND ISZERO PUSH2 0x35E JUMPI PUSH1 0x40 MLOAD PUSH32 0x8C379A000000000000000000000000000000000000000000000000000000000 DUP2 MSTORE PUSH1 0x4 ADD PUSH2 0x355 SWAP1 PUSH2 0x11CE JUMP JUMPDEST PUSH1 0x40 MLOAD DUP1 SWAP2 SUB SWAP1 REVERT JUMPDEST PUSH1 0x2 DUP1 SLOAD SWAP1 POP DUP3 LT PUSH2 0x3A5 JUMPI PUSH1 0x40 MLOAD PUSH32 0x8C379A000000000000000000000000000000000000000000000000000000000 DUP2 MSTORE PUSH1 0x4 ADD PUSH2 0x39C SWAP1 PUSH2 0x1236 JUMP JUMPDEST PUSH1 0x40 MLOAD DUP1 SWAP2 SUB SWAP1 REVERT JUMPDEST PUSH1 0x1 DUP2 PUSH0 ADD PUSH1 0x1 PUSH2 0x100 EXP DUP2 SLOAD DUP2 PUSH1 0xFF MUL NOT AND SWAP1 DUP4 ISZERO ISZERO MUL OR SWAP1 SSTORE POP DUP2 DUP2 PUSH1 0x1 ADD DUP2 SWAP1 SSTORE POP PUSH1 0x1 PUSH1 0x2 DUP4 DUP2 SLOAD DUP2 LT PUSH2 0x3E0 JUMPI PUSH2 0x3DF PUSH2 0x1254 JUMP JUMPDEST JUMPDEST SWAP1 PUSH0 MSTORE PUSH1 0x20 PUSH0 KECCAK256 SWAP1 PUSH1 0x2 MUL ADD PUSH1 0x1 ADD PUSH0 DUP3 DUP3 SLOAD PUSH2 0x3FD SWAP2 SWAP1 PUSH2 0x12AE JUMP JUMPDEST SWAP3 POP POP DUP2 SWAP1 SSTORE POP PUSH32 0xD0E6C39F2E086DC49F1524B47725526A56945CD1FF661F37976F1725A1E56986 CALLER DUP4 PUSH1 0x40 MLOAD PUSH2 0x435 SWAP3 SWAP2 SWAP1 PUSH2 0x12E1 JUMP JUMPDEST PUSH1 0x40 MLOAD DUP1 SWAP2 SUB SWAP1 LOG1 POP POP JUMP JUMPDEST PUSH0 PUSH1 0x2 DUP1 SLOAD SWAP1 POP SWAP1 POP SWAP1 JUMP JUMPDEST PUSH1 0x2 DUP2 DUP2 SLOAD DUP2 LT PUSH2 0x45C JUMPI PUSH0 DUP1 REVERT JUMPDEST SWAP1 PUSH0 MSTORE PUSH1 0x20 PUSH0 KECCAK256 SWAP1 PUSH1 0x2 MUL ADD PUSH0 SWAP2 POP SWAP1 POP DUP1 PUSH0 ADD DUP1 SLOAD PUSH2 0x47B SWAP1 PUSH2 0x1335 JUMP JUMPDEST DUP1 PUSH1 0x1F ADD PUSH1 0x20 DUP1 SWAP2 DIV MUL PUSH1 0x20 ADD PUSH1 0x40 MLOAD SWAP1 DUP2 ADD PUSH1 0x40 MSTORE DUP1 SWAP3 SWAP2 SWAP1 DUP2 DUP2 MSTORE PUSH1 0x20 ADD DUP3 DUP1 SLOAD PUSH2 0x4A7 SWAP1 PUSH2 0x1335 JUMP JUMPDEST DUP1 ISZERO PUSH2 0x4F2 JUMPI DUP1 PUSH1 0x1F LT PUSH2 0x4C9 JUMPI PUSH2 0x100 DUP1 DUP4 SLOAD DIV MUL DUP4 MSTORE SWAP2 PUSH1 0x20 ADD SWAP2 PUSH2 0x4F2 JUMP JUMPDEST DUP3 ADD SWAP2 SWAP1 PUSH0 MSTORE PUSH1 0x20 PUSH0 KECCAK256 SWAP1 JUMPDEST DUP2 SLOAD DUP2 MSTORE SWAP1 PUSH1 0x1 ADD SWAP1 PUSH1 0x20 ADD DUP1 DUP4 GT PUSH2 0x4D5 JUMPI DUP3 SWAP1 SUB PUSH1 0x1F AND DUP3 ADD SWAP2 JUMPDEST POP POP POP POP POP SWAP1 DUP1 PUSH1 0x1 ADD SLOAD SWAP1 POP DUP3 JUMP JUMPDEST PUSH0 DUP1 SLOAD SWAP1 PUSH2 0x100 EXP SWAP1 DIV PUSH20 0xFFFFFFFFFFFFFFFFFFFFFFFFFFFFFFFFFFFFFFFF AND PUSH20 0xFFFFFFFFFFFFFFFFFFFFFFFFFFFFFFFFFFFFFFFF AND CALLER PUSH20 0xFFFFFFFFFFFFFFFFFFFFFFFFFFFFFFFFFFFFFFFF AND EQ PUSH2 0x58F JUMPI PUSH1 0x40 MLOAD PUSH32 0x8C379A000000000000000000000000000000000000000000000000000000000 DUP2 MSTORE PUSH1 0x4 ADD PUSH2 0x586 SWAP1 PUSH2 0x13D5 JUMP JUMPDEST PUSH1 0x40 MLOAD DUP1 SWAP2 SUB SWAP1 REVERT JUMPDEST PUSH1 0x1 PUSH0 DUP3 PUSH20 0xFFFFFFFFFFFFFFFFFFFFFFFFFFFFFFFFFFFFFFFF AND PUSH20 0xFFFFFFFFFFFFFFFFFFFFFFFFFFFFFFFFFFFFFFFF AND DUP2 MSTORE PUSH1 0x20 ADD SWAP1 DUP2 MSTORE PUSH1 0x20 ADD PUSH0 KECCAK256 PUSH0 ADD PUSH0 SWAP1 SLOAD SWAP1 PUSH2 0x100 EXP SWAP1 DIV PUSH1 0xFF AND ISZERO PUSH2 0x61B JUMPI PUSH1 0x40 MLOAD PUSH32 0x8C379A000000000000000000000000000000000000000000000000000000000 DUP2 MSTORE PUSH1 0x4 ADD PUSH2 0x612 SWAP1 PUSH2 0x143D JUMP JUMPDEST PUSH1 0x40 MLOAD DUP1 SWAP2 SUB SWAP1 REVERT JUMPDEST PUSH1 0x40 MLOAD DUP1 PUSH1 0x60 ADD PUSH1 0x40 MSTORE DUP1 PUSH1 0x1 ISZERO ISZERO DUP2 MSTORE PUSH1 0x20 ADD PUSH0 ISZERO ISZERO DUP2 MSTORE PUSH1 0x20 ADD PUSH0 DUP2 MSTORE POP PUSH1 0x1 PUSH0 DUP4 PUSH20 0xFFFFFFFFFFFFFFFFFFFFFFFFFFFFFFFFFFFFFFFF AND PUSH20 0xFFFFFFFFFFFFFFFFFFFFFFFFFFFFFFFFFFFFFFFF AND DUP2 MSTORE PUSH1 0x20 ADD SWAP1 DUP2 MSTORE PUSH1 0x20 ADD PUSH0 KECCAK256 PUSH0 DUP3 ADD MLOAD DUP2 PUSH0 ADD PUSH0 PUSH2 0x100 EXP DUP2 SLOAD DUP2 PUSH1 0xFF MUL NOT AND SWAP1 DUP4 ISZERO ISZERO MUL OR SWAP1 SSTORE POP PUSH1 0x20 DUP3 ADD MLOAD DUP2 PUSH0 ADD PUSH1 0x1 PUSH2 0x100 EXP DUP2 SLOAD DUP2 PUSH1 0xFF MUL NOT AND SWAP1 DUP4 ISZERO ISZERO MUL OR SWAP1 SSTORE POP PUSH1 0x40 DUP3 ADD MLOAD DUP2 PUSH1 0x1 ADD SSTORE SWAP1 POP POP PUSH32 0xB6BE2187D059CC2A55FE29E0E503B566E1E0F8C8780096E185429350ACFFD3DD DUP2 PUSH1 0x40 MLOAD PUSH2 0x6F0 SWAP2 SWAP1 PUSH2 0x1082 JUMP JUMPDEST PUSH1 0x40 MLOAD DUP1 SWAP2 SUB SWAP1 LOG1 POP JUMP JUMPDEST PUSH0 DUP1 SLOAD SWAP1 PUSH2 0x100 EXP SWAP1 DIV PUSH20 0xFFFFFFFFFFFFFFFFFFFFFFFFFFFFFFFFFFFFFFFF AND PUSH20 0xFFFFFFFFFFFFFFFFFFFFFFFFFFFFFFFFFFFFFFFF AND CALLER PUSH20 0xFFFFFFFFFFFFFFFFFFFFFFFFFFFFFFFFFFFFFFFF AND EQ PUSH2 0x788 JUMPI PUSH1 0x40 MLOAD PUSH32 0x8C379A000000000000000000000000000000000000000000000000000000000 DUP2 MSTORE PUSH1 0x4 ADD PUSH2 0x77F SWAP1 PUSH2 0x13D5 JUMP JUMPDEST PUSH1 0x40 MLOAD DUP1 SWAP2 SUB SWAP1 REVERT JUMPDEST PUSH1 0x1 ISZERO ISZERO PUSH1 0x3 PUSH0 SWAP1 SLOAD SWAP1 PUSH2 0x100 EXP SWAP1 DIV PUSH1 0xFF AND ISZERO ISZERO EQ PUSH2 0x7DD JUMPI PUSH1 0x40 MLOAD PUSH32 0x8C379A000000000000000000000000000000000000000000000000000000000 DUP2 MSTORE PUSH1 0x4 ADD PUSH2 0x7D4 SWAP1 PUSH2 0x10FE JUMP JUMPDEST PUSH1 0x40 MLOAD DUP1 SWAP2 SUB SWAP1 REVERT JUMPDEST PUSH0 PUSH1 0x3 PUSH0 PUSH2 0x100 EXP DUP2 SLOAD DUP2 PUSH1 0xFF MUL NOT AND SWAP1 DUP4 ISZERO ISZERO MUL OR SWAP1 SSTORE POP PUSH32 0x66EC723071E4BB646F7B35D31BC2DEE8510979BD8C180EDD0690D4F5E802F1E4 PUSH1 0x40 MLOAD PUSH1 0x40 MLOAD DUP1 SWAP2 SUB SWAP1 LOG1 JUMP JUMPDEST PUSH0 DUP1 SLOAD SWAP1 PUSH2 0x100 EXP SWAP1 DIV PUSH20 0xFFFFFFFFFFFFFFFFFFFFFFFFFFFFFFFFFFFFFFFF AND PUSH20 0xFFFFFFFFFFFFFFFFFFFFFFFFFFFFFFFFFFFFFFFF AND CALLER PUSH20 0xFFFFFFFFFFFFFFFFFFFFFFFFFFFFFFFFFFFFFFFF AND EQ PUSH2 0x8B1 JUMPI PUSH1 0x40 MLOAD PUSH32 0x8C379A000000000000000000000000000000000000000000000000000000000 DUP2 MSTORE PUSH1 0x4 ADD PUSH2 0x8A8 SWAP1 PUSH2 0x13D5 JUMP JUMPDEST PUSH1 0x40 MLOAD DUP1 SWAP2 SUB SWAP1 REVERT JUMPDEST PUSH1 0x3 PUSH0 SWAP1 SLOAD SWAP1 PUSH2 0x100 EXP SWAP1 DIV PUSH1 0xFF AND ISZERO PUSH2 0x900 JUMPI PUSH1 0x40 MLOAD PUSH32 0x8C379A000000000000000000000000000000000000000000000000000000000 DUP2 MSTORE PUSH1 0x4 ADD PUSH2 0x8F7 SWAP1 PUSH2 0x14A5 JUMP JUMPDEST PUSH1 0x40 MLOAD DUP1 SWAP2 SUB SWAP1 REVERT JUMPDEST PUSH0 PUSH1 0x2 DUP1 SLOAD SWAP1 POP GT PUSH2 0x947 JUMPI PUSH1 0x40 MLOAD PUSH32 0x8C379A000000000000000000000000000000000000000000000000000000000 DUP2 MSTORE PUSH1 0x4 ADD PUSH2 0x93E SWAP1 PUSH2 0x150D JUMP JUMPDEST PUSH1 0x40 MLOAD DUP1 SWAP2 SUB SWAP1 REVERT JUMPDEST PUSH1 0x1 PUSH1 0x3 PUSH0 PUSH2 0x100 EXP DUP2 SLOAD DUP2 PUSH1 0xFF MUL NOT AND SWAP1 DUP4 ISZERO ISZERO MUL OR SWAP1 SSTORE POP PUSH32 0xC475C26AA25ED8E85A7FAA790E5F63B5D7EE1025F12821F4C9BFDDD36AB4D112 PUSH1 0x40 MLOAD PUSH1 0x40 MLOAD DUP1 SWAP2 SUB SWAP1 LOG1 JUMP JUMPDEST PUSH1 0x60 PUSH1 0x3 PUSH0 SWAP1 SLOAD SWAP1 PUSH2 0x100 EXP SWAP1 DIV PUSH1 0xFF AND ISZERO PUSH2 0x9E0 JUMPI PUSH1 0x40 MLOAD PUSH32 0x8C379A000000000000000000000000000000000000000000000000000000000 DUP2 MSTORE PUSH1 0x4 ADD PUSH2 0x9D7 SWAP1 PUSH2 0x1575 JUMP JUMPDEST PUSH1 0x40 MLOAD DUP1 SWAP2 SUB SWAP1 REVERT JUMPDEST PUSH0 DUP1 PUSH0 JUMPDEST PUSH1 0x2 DUP1 SLOAD SWAP1 POP DUP2 LT ISZERO PUSH2 0xA53 JUMPI DUP3 PUSH1 0x2 DUP3 DUP2 SLOAD DUP2 LT PUSH2 0xA06 JUMPI PUSH2 0xA05 PUSH2 0x1254 JUMP JUMPDEST JUMPDEST SWAP1 PUSH0 MSTORE PUSH1 0x20 PUSH0 KECCAK256 SWAP1 PUSH1 0x2 MUL ADD PUSH1 0x1 ADD SLOAD GT ISZERO PUSH2 0xA46 JUMPI PUSH1 0x2 DUP2 DUP2 SLOAD DUP2 LT PUSH2 0xA30 JUMPI PUSH2 0xA2F PUSH2 0x1254 JUMP JUMPDEST JUMPDEST SWAP1 PUSH0 MSTORE PUSH1 0x20 PUSH0 KECCAK256 SWAP1 PUSH1 0x2 MUL ADD PUSH1 0x1 ADD SLOAD SWAP3 POP DUP1 SWAP2 POP JUMPDEST DUP1 DUP1 PUSH1 0x1 ADD SWAP2 POP POP PUSH2 0x9E4 JUMP JUMPDEST POP PUSH1 0x2 DUP2 DUP2 SLOAD DUP2 LT PUSH2 0xA68 JUMPI PUSH2 0xA67 PUSH2 0x1254 JUMP JUMPDEST JUMPDEST SWAP1 PUSH0 MSTORE PUSH1 0x20 PUSH0 KECCAK256 SWAP1 PUSH1 0x2 MUL ADD PUSH0 ADD DUP1 SLOAD PUSH2 0xA81 SWAP1 PUSH2 0x1335 JUMP JUMPDEST DUP1 PUSH1 0x1F ADD PUSH1 0x20 DUP1 SWAP2 DIV MUL PUSH1 0x20 ADD PUSH1 0x40 MLOAD SWAP1 DUP2 ADD PUSH1 0x40 MSTORE DUP1 SWAP3 SWAP2 SWAP1 DUP2 DUP2 MSTORE PUSH1 0x20 ADD DUP3 DUP1 SLOAD PUSH2 0xAAD SWAP1 PUSH2 0x1335 JUMP JUMPDEST DUP1 ISZERO PUSH2 0xAF8 JUMPI DUP1 PUSH1 0x1F LT PUSH2 0xACF JUMPI PUSH2 0x100 DUP1 DUP4 SLOAD DIV MUL DUP4 MSTORE SWAP2 PUSH1 0x20 ADD SWAP2 PUSH2 0xAF8 JUMP JUMPDEST DUP3 ADD SWAP2 SWAP1 PUSH0 MSTORE PUSH1 0x20 PUSH0 KECCAK256 SWAP1 JUMPDEST DUP2 SLOAD DUP2 MSTORE SWAP1 PUSH1 0x1 ADD SWAP1 PUSH1 0x20 ADD DUP1 DUP4 GT PUSH2 0xADB JUMPI DUP3 SWAP1 SUB PUSH1 0x1F AND DUP3 ADD SWAP2 JUMPDEST POP POP POP POP POP SWAP3 POP POP POP SWAP1 JUMP JUMPDEST PUSH0 DUP1 SLOAD SWAP1 PUSH2 0x100 EXP SWAP1 DIV PUSH20 0xFFFFFFFFFFFFFFFFFFFFFFFFFFFFFFFFFFFFFFFF AND PUSH20 0xFFFFFFFFFFFFFFFFFFFFFFFFFFFFFFFFFFFFFFFF AND CALLER PUSH20 0xFFFFFFFFFFFFFFFFFFFFFFFFFFFFFFFFFFFFFFFF AND EQ PUSH2 0xB91 JUMPI PUSH1 0x40 MLOAD PUSH32 0x8C379A000000000000000000000000000000000000000000000000000000000 DUP2 MSTORE PUSH1 0x4 ADD PUSH2 0xB88 SWAP1 PUSH2 0x13D5 JUMP JUMPDEST PUSH1 0x40 MLOAD DUP1 SWAP2 SUB SWAP1 REVERT JUMPDEST PUSH1 0x2 PUSH1 0x40 MLOAD DUP1 PUSH1 0x40 ADD PUSH1 0x40 MSTORE DUP1 DUP4 DUP2 MSTORE PUSH1 0x20 ADD PUSH0 DUP2 MSTORE POP SWAP1 DUP1 PUSH1 0x1 DUP2 SLOAD ADD DUP1 DUP3 SSTORE DUP1 SWAP2 POP POP PUSH1 0x1 SWAP1 SUB SWAP1 PUSH0 MSTORE PUSH1 0x20 PUSH0 KECCAK256 SWAP1 PUSH1 0x2 MUL ADD PUSH0 SWAP1 SWAP2 SWAP1 SWAP2 SWAP1 SWAP2 POP PUSH0 DUP3 ADD MLOAD DUP2 PUSH0 ADD SWAP1 DUP2 PUSH2 0xBE1 SWAP2 SWAP1 PUSH2 0x1730 JUMP JUMPDEST POP PUSH1 0x20 DUP3 ADD MLOAD DUP2 PUSH1 0x1 ADD SSTORE POP POP POP JUMP JUMPDEST PUSH1 0x1 PUSH1 0x20 MSTORE DUP1 PUSH0 MSTORE PUSH1 0x40 PUSH0 KECCAK256 PUSH0 SWAP2 POP SWAP1 POP DUP1 PUSH0 ADD PUSH0 SWAP1 SLOAD SWAP1 PUSH2 0x100 EXP SWAP1 DIV PUSH1 0xFF AND SWAP1 DUP1 PUSH0 ADD PUSH1 0x1 SWAP1 SLOAD SWAP1 PUSH2 0x100 EXP SWAP1 DIV PUSH1 0xFF AND SWAP1 DUP1 PUSH1 0x1 ADD SLOAD SWAP1 POP DUP4 JUMP JUMPDEST PUSH0 DUP1 SLOAD SWAP1 PUSH2 0x100 EXP SWAP1 DIV PUSH20 0xFFFFFFFFFFFFFFFFFFFFFFFFFFFFFFFFFFFFFFFF AND DUP2 JUMP JUMPDEST PUSH0 PUSH1 0x2 DUP1 SLOAD SWAP1 POP DUP3 LT PUSH2 0xC9A JUMPI PUSH1 0x40 MLOAD PUSH32 0x8C379A000000000000000000000000000000000000000000000000000000000 DUP2 MSTORE PUSH1 0x4 ADD PUSH2 0xC91 SWAP1 PUSH2 0x1236 JUMP JUMPDEST PUSH1 0x40 MLOAD DUP1 SWAP2 SUB SWAP1 REVERT JUMPDEST PUSH1 0x2 DUP3 DUP2 SLOAD DUP2 LT PUSH2 0xCAE JUMPI PUSH2 0xCAD PUSH2 0x1254 JUMP JUMPDEST JUMPDEST SWAP1 PUSH0 MSTORE PUSH1 0x20 PUSH0 KECCAK256 SWAP1 PUSH1 0x2 MUL ADD PUSH1 0x1 ADD SLOAD SWAP1 POP SWAP2 SWAP1 POP JUMP JUMPDEST PUSH1 0x3 PUSH0 SWAP1 SLOAD SWAP1 PUSH2 0x100 EXP SWAP1 DIV PUSH1 0xFF AND DUP2 JUMP JUMPDEST PUSH0 PUSH1 0x40 MLOAD SWAP1 POP SWAP1 JUMP JUMPDEST PUSH0 DUP1 REVERT JUMPDEST PUSH0 DUP1 REVERT JUMPDEST PUSH0 DUP2 SWAP1 POP SWAP2 SWAP1 POP JUMP JUMPDEST PUSH2 0xCFA DUP2 PUSH2 0xCE8 JUMP JUMPDEST DUP2 EQ PUSH2 0xD04 JUMPI PUSH0 DUP1 REVERT JUMPDEST POP JUMP JUMPDEST PUSH0 DUP2 CALLDATALOAD SWAP1 POP PUSH2 0xD15 DUP2 PUSH2 0xCF1 JUMP JUMPDEST SWAP3 SWAP2 POP POP JUMP JUMPDEST PUSH0 PUSH1 0x20 DUP3 DUP5 SUB SLT ISZERO PUSH2 0xD30 JUMPI PUSH2 0xD2F PUSH2 0xCE0 JUMP JUMPDEST JUMPDEST PUSH0 PUSH2 0xD3D DUP5 DUP3 DUP6 ADD PUSH2 0xD07 JUMP JUMPDEST SWAP2 POP POP SWAP3 SWAP2 POP POP JUMP JUMPDEST PUSH2 0xD4F DUP2 PUSH2 0xCE8 JUMP JUMPDEST DUP3 MSTORE POP POP JUMP JUMPDEST PUSH0 PUSH1 0x20 DUP3 ADD SWAP1 POP PUSH2 0xD68 PUSH0 DUP4 ADD DUP5 PUSH2 0xD46 JUMP JUMPDEST SWAP3 SWAP2 POP POP JUMP JUMPDEST PUSH0 DUP2 MLOAD SWAP1 POP SWAP2 SWAP1 POP JUMP JUMPDEST PUSH0 DUP3 DUP3 MSTORE PUSH1 0x20 DUP3 ADD SWAP1 POP SWAP3 SWAP2 POP POP JUMP JUMPDEST DUP3 DUP2 DUP4 MCOPY PUSH0 DUP4 DUP4 ADD MSTORE POP POP POP JUMP JUMPDEST PUSH0 PUSH1 0x1F NOT PUSH1 0x1F DUP4 ADD AND SWAP1 POP SWAP2 SWAP1 POP JUMP JUMPDEST PUSH0 PUSH2 0xDB0 DUP3 PUSH2 0xD6E JUMP JUMPDEST PUSH2 0xDBA DUP2 DUP6 PUSH2 0xD78 JUMP JUMPDEST SWAP4 POP PUSH2 0xDCA DUP2 DUP6 PUSH1 0x20 DUP7 ADD PUSH2 0xD88 JUMP JUMPDEST PUSH2 0xDD3 DUP2 PUSH2 0xD96 JUMP JUMPDEST DUP5 ADD SWAP2 POP POP SWAP3 SWAP2 POP POP JUMP JUMPDEST PUSH0 PUSH1 0x40 DUP3 ADD SWAP1 POP DUP2 DUP2 SUB PUSH0 DUP4 ADD MSTORE PUSH2 0xDF6 DUP2 DUP6 PUSH2 0xDA6 JUMP JUMPDEST SWAP1 POP PUSH2 0xE05 PUSH1 0x20 DUP4 ADD DUP5 PUSH2 0xD46 JUMP JUMPDEST SWAP4 SWAP3 POP POP POP JUMP JUMPDEST PUSH0 PUSH20 0xFFFFFFFFFFFFFFFFFFFFFFFFFFFFFFFFFFFFFFFF DUP3 AND SWAP1 POP SWAP2 SWAP1 POP JUMP JUMPDEST PUSH0 PUSH2 0xE35 DUP3 PUSH2 0xE0C JUMP JUMPDEST SWAP1 POP SWAP2 SWAP1 POP JUMP JUMPDEST PUSH2 0xE45 DUP2 PUSH2 0xE2B JUMP JUMPDEST DUP2 EQ PUSH2 0xE4F JUMPI PUSH0 DUP1 REVERT JUMPDEST POP JUMP JUMPDEST PUSH0 DUP2 CALLDATALOAD SWAP1 POP PUSH2 0xE60 DUP2 PUSH2 0xE3C JUMP JUMPDEST SWAP3 SWAP2 POP POP JUMP JUMPDEST PUSH0 PUSH1 0x20 DUP3 DUP5 SUB SLT ISZERO PUSH2 0xE7B JUMPI PUSH2 0xE7A PUSH2 0xCE0 JUMP JUMPDEST JUMPDEST PUSH0 PUSH2 0xE88 DUP5 DUP3 DUP6 ADD PUSH2 0xE52 JUMP JUMPDEST SWAP2 POP POP SWAP3 SWAP2 POP POP JUMP JUMPDEST PUSH0 PUSH1 0x20 DUP3 ADD SWAP1 POP DUP2 DUP2 SUB PUSH0 DUP4 ADD MSTORE PUSH2 0xEA9 DUP2 DUP5 PUSH2 0xDA6 JUMP JUMPDEST SWAP1 POP SWAP3 SWAP2 POP POP JUMP JUMPDEST PUSH0 DUP1 REVERT JUMPDEST PUSH0 DUP1 REVERT JUMPDEST PUSH32 0x4E487B7100000000000000000000000000000000000000000000000000000000 PUSH0 MSTORE PUSH1 0x41 PUSH1 0x4 MSTORE PUSH1 0x24 PUSH0 REVERT JUMPDEST PUSH2 0xEEF DUP3 PUSH2 0xD96 JUMP JUMPDEST DUP2 ADD DUP2 DUP2 LT PUSH8 0xFFFFFFFFFFFFFFFF DUP3 GT OR ISZERO PUSH2 0xF0E JUMPI PUSH2 0xF0D PUSH2 0xEB9 JUMP JUMPDEST JUMPDEST DUP1 PUSH1 0x40 MSTORE POP POP POP JUMP JUMPDEST PUSH0 PUSH2 0xF20 PUSH2 0xCD7 JUMP JUMPDEST SWAP1 POP PUSH2 0xF2C DUP3 DUP3 PUSH2 0xEE6 JUMP JUMPDEST SWAP2 SWAP1 POP JUMP JUMPDEST PUSH0 PUSH8 0xFFFFFFFFFFFFFFFF DUP3 GT ISZERO PUSH2 0xF4B JUMPI PUSH2 0xF4A PUSH2 0xEB9 JUMP JUMPDEST JUMPDEST PUSH2 0xF54 DUP3 PUSH2 0xD96 JUMP JUMPDEST SWAP1 POP PUSH1 0x20 DUP2 ADD SWAP1 POP SWAP2 SWAP1 POP JUMP JUMPDEST DUP3 DUP2 DUP4 CALLDATACOPY PUSH0 DUP4 DUP4 ADD MSTORE POP POP POP JUMP JUMPDEST PUSH0 PUSH2 0xF81 PUSH2 0xF7C DUP5 PUSH2 0xF31 JUMP JUMPDEST PUSH2 0xF17 JUMP JUMPDEST SWAP1 POP DUP3 DUP2 MSTORE PUSH1 0x20 DUP2 ADD DUP5 DUP5 DUP5 ADD GT ISZERO PUSH2 0xF9D JUMPI PUSH2 0xF9C PUSH2 0xEB5 JUMP JUMPDEST JUMPDEST PUSH2 0xFA8 DUP5 DUP3 DUP6 PUSH2 0xF61 JUMP JUMPDEST POP SWAP4 SWAP3 POP POP POP JUMP JUMPDEST PUSH0 DUP3 PUSH1 0x1F DUP4 ADD SLT PUSH2 0xFC4 JUMPI PUSH2 0xFC3 PUSH2 0xEB1 JUMP JUMPDEST JUMPDEST DUP2 CALLDATALOAD PUSH2 0xFD4 DUP5 DUP3 PUSH1 0x20 DUP7 ADD PUSH2 0xF6F JUMP JUMPDEST SWAP2 POP POP SWAP3 SWAP2 POP POP JUMP JUMPDEST PUSH0 PUSH1 0x20 DUP3 DUP5 SUB SLT ISZERO PUSH2 0xFF2 JUMPI PUSH2 0xFF1 PUSH2 0xCE0 JUMP JUMPDEST JUMPDEST PUSH0 DUP3 ADD CALLDATALOAD PUSH8 0xFFFFFFFFFFFFFFFF DUP2 GT ISZERO PUSH2 0x100F JUMPI PUSH2 0x100E PUSH2 0xCE4 JUMP JUMPDEST JUMPDEST PUSH2 0x101B DUP5 DUP3 DUP6 ADD PUSH2 0xFB0 JUMP JUMPDEST SWAP2 POP POP SWAP3 SWAP2 POP POP JUMP JUMPDEST PUSH0 DUP2 ISZERO ISZERO SWAP1 POP SWAP2 SWAP1 POP JUMP JUMPDEST PUSH2 0x1038 DUP2 PUSH2 0x1024 JUMP JUMPDEST DUP3 MSTORE POP POP JUMP JUMPDEST PUSH0 PUSH1 0x60 DUP3 ADD SWAP1 POP PUSH2 0x1051 PUSH0 DUP4 ADD DUP7 PUSH2 0x102F JUMP JUMPDEST PUSH2 0x105E PUSH1 0x20 DUP4 ADD DUP6 PUSH2 0x102F JUMP JUMPDEST PUSH2 0x106B PUSH1 0x40 DUP4 ADD DUP5 PUSH2 0xD46 JUMP JUMPDEST SWAP5 SWAP4 POP POP POP POP JUMP JUMPDEST PUSH2 0x107C DUP2 PUSH2 0xE2B JUMP JUMPDEST DUP3 MSTORE POP POP JUMP JUMPDEST PUSH0 PUSH1 0x20 DUP3 ADD SWAP1 POP PUSH2 0x1095 PUSH0 DUP4 ADD DUP5 PUSH2 0x1073 JUMP JUMPDEST SWAP3 SWAP2 POP POP JUMP JUMPDEST PUSH0 PUSH1 0x20 DUP3 ADD SWAP1 POP PUSH2 0x10AE PUSH0 DUP4 ADD DUP5 PUSH2 0x102F JUMP JUMPDEST SWAP3 SWAP2 POP POP JUMP JUMPDEST PUSH32 0x456C656374696F6E206973206E6F742063757272656E746C7920616374697665 PUSH0 DUP3 ADD MSTORE POP JUMP JUMPDEST PUSH0 PUSH2 0x10E8 PUSH1 0x20 DUP4 PUSH2 0xD78 JUMP JUMPDEST SWAP2 POP PUSH2 0x10F3 DUP3 PUSH2 0x10B4 JUMP JUMPDEST PUSH1 0x20 DUP3 ADD SWAP1 POP SWAP2 SWAP1 POP JUMP JUMPDEST PUSH0 PUSH1 0x20 DUP3 ADD SWAP1 POP DUP2 DUP2 SUB PUSH0 DUP4 ADD MSTORE PUSH2 0x1115 DUP2 PUSH2 0x10DC JUMP JUMPDEST SWAP1 POP SWAP2 SWAP1 POP JUMP JUMPDEST PUSH32 0x596F7520617265206E6F74207265676973746572656420746F20766F74650000 PUSH0 DUP3 ADD MSTORE POP JUMP JUMPDEST PUSH0 PUSH2 0x1150 PUSH1 0x1E DUP4 PUSH2 0xD78 JUMP JUMPDEST SWAP2 POP PUSH2 0x115B DUP3 PUSH2 0x111C JUMP JUMPDEST PUSH1 0x20 DUP3 ADD SWAP1 POP SWAP2 SWAP1 POP JUMP JUMPDEST PUSH0 PUSH1 0x20 DUP3 ADD SWAP1 POP DUP2 DUP2 SUB PUSH0 DUP4 ADD MSTORE PUSH2 0x117D DUP2 PUSH2 0x1144 JUMP JUMPDEST SWAP1 POP SWAP2 SWAP1 POP JUMP JUMPDEST PUSH32 0x596F75206861766520616C726561647920766F74656400000000000000000000 PUSH0 DUP3 ADD MSTORE POP JUMP JUMPDEST PUSH0 PUSH2 0x11B8 PUSH1 0x16 DUP4 PUSH2 0xD78 JUMP JUMPDEST SWAP2 POP PUSH2 0x11C3 DUP3 PUSH2 0x1184 JUMP JUMPDEST PUSH1 0x20 DUP3 ADD SWAP1 POP SWAP2 SWAP1 POP JUMP JUMPDEST PUSH0 PUSH1 0x20 DUP3 ADD SWAP1 POP DUP2 DUP2 SUB PUSH0 DUP4 ADD MSTORE PUSH2 0x11E5 DUP2 PUSH2 0x11AC JUMP JUMPDEST SWAP1 POP SWAP2 SWAP1 POP JUMP JUMPDEST PUSH32 0x496E76616C69642063616E64696461746520696E646578000000000000000000 PUSH0 DUP3 ADD MSTORE POP JUMP JUMPDEST PUSH0 PUSH2 0x1220 PUSH1 0x17 DUP4 PUSH2 0xD78 JUMP JUMPDEST SWAP2 POP PUSH2 0x122B DUP3 PUSH2 0x11EC JUMP JUMPDEST PUSH1 0x20 DUP3 ADD SWAP1 POP SWAP2 SWAP1 POP JUMP JUMPDEST PUSH0 PUSH1 0x20 DUP3 ADD SWAP1 POP DUP2 DUP2 SUB PUSH0 DUP4 ADD MSTORE PUSH2 0x124D DUP2 PUSH2 0x1214 JUMP JUMPDEST SWAP1 POP SWAP2 SWAP1 POP JUMP JUMPDEST PUSH32 0x4E487B7100000000000000000000000000000000000000000000000000000000 PUSH0 MSTORE PUSH1 0x32 PUSH1 0x4 MSTORE PUSH1 0x24 PUSH0 REVERT JUMPDEST PUSH32 0x4E487B7100000000000000000000000000000000000000000000000000000000 PUSH0 MSTORE PUSH1 0x11 PUSH1 0x4 MSTORE PUSH1 0x24 PUSH0 REVERT JUMPDEST PUSH0 PUSH2 0x12B8 DUP3 PUSH2 0xCE8 JUMP JUMPDEST SWAP2 POP PUSH2 0x12C3 DUP4 PUSH2 0xCE8 JUMP JUMPDEST SWAP3 POP DUP3 DUP3 ADD SWAP1 POP DUP1 DUP3 GT ISZERO PUSH2 0x12DB JUMPI PUSH2 0x12DA PUSH2 0x1281 JUMP JUMPDEST JUMPDEST SWAP3 SWAP2 POP POP JUMP JUMPDEST PUSH0 PUSH1 0x40 DUP3 ADD SWAP1 POP PUSH2 0x12F4 PUSH0 DUP4 ADD DUP6 PUSH2 0x1073 JUMP JUMPDEST PUSH2 0x1301 PUSH1 0x20 DUP4 ADD DUP5 PUSH2 0xD46 JUMP JUMPDEST SWAP4 SWAP3 POP POP POP JUMP JUMPDEST PUSH32 0x4E487B7100000000000000000000000000000000000000000000000000000000 PUSH0 MSTORE PUSH1 0x22 PUSH1 0x4 MSTORE PUSH1 0x24 PUSH0 REVERT JUMPDEST PUSH0 PUSH1 0x2 DUP3 DIV SWAP1 POP PUSH1 0x1 DUP3 AND DUP1 PUSH2 0x134C JUMPI PUSH1 0x7F DUP3 AND SWAP2 POP JUMPDEST PUSH1 0x20 DUP3 LT DUP2 SUB PUSH2 0x135F JUMPI PUSH2 0x135E PUSH2 0x1308 JUMP JUMPDEST JUMPDEST POP SWAP2 SWAP1 POP JUMP JUMPDEST PUSH32 0x4F6E6C7920656C656374696F6E20636F6D6D697373696F6E2063616E20657865 PUSH0 DUP3 ADD MSTORE PUSH32 0x6375746520746869730000000000000000000000000000000000000000000000 PUSH1 0x20 DUP3 ADD MSTORE POP JUMP JUMPDEST PUSH0 PUSH2 0x13BF PUSH1 0x29 DUP4 PUSH2 0xD78 JUMP JUMPDEST SWAP2 POP PUSH2 0x13CA DUP3 PUSH2 0x1365 JUMP JUMPDEST PUSH1 0x40 DUP3 ADD SWAP1 POP SWAP2 SWAP1 POP JUMP JUMPDEST PUSH0 PUSH1 0x20 DUP3 ADD SWAP1 POP DUP2 DUP2 SUB PUSH0 DUP4 ADD MSTORE PUSH2 0x13EC DUP2 PUSH2 0x13B3 JUMP JUMPDEST SWAP1 POP SWAP2 SWAP1 POP JUMP JUMPDEST PUSH32 0x566F74657220697320616C726561647920726567697374657265640000000000 PUSH0 DUP3 ADD MSTORE POP JUMP JUMPDEST PUSH0 PUSH2 0x1427 PUSH1 0x1B DUP4 PUSH2 0xD78 JUMP JUMPDEST SWAP2 POP PUSH2 0x1432 DUP3 PUSH2 0x13F3 JUMP JUMPDEST PUSH1 0x20 DUP3 ADD SWAP1 POP SWAP2 SWAP1 POP JUMP JUMPDEST PUSH0 PUSH1 0x20 DUP3 ADD SWAP1 POP DUP2 DUP2 SUB PUSH0 DUP4 ADD MSTORE PUSH2 0x1454 DUP2 PUSH2 0x141B JUMP JUMPDEST SWAP1 POP SWAP2 SWAP1 POP JUMP JUMPDEST PUSH32 0x456C656374696F6E2068617320616C7265616479207374617274656400000000 PUSH0 DUP3 ADD MSTORE POP JUMP JUMPDEST PUSH0 PUSH2 0x148F PUSH1 0x1C DUP4 PUSH2 0xD78 JUMP JUMPDEST SWAP2 POP PUSH2 0x149A DUP3 PUSH2 0x145B JUMP JUMPDEST PUSH1 0x20 DUP3 ADD SWAP1 POP SWAP2 SWAP1 POP JUMP JUMPDEST PUSH0 PUSH1 0x20 DUP3 ADD SWAP1 POP DUP2 DUP2 SUB PUSH0 DUP4 ADD MSTORE PUSH2 0x14BC DUP2 PUSH2 0x1483 JUMP JUMPDEST SWAP1 POP SWAP2 SWAP1 POP JUMP JUMPDEST PUSH32 0x4E6F2063616E6469646174657320726567697374657265640000000000000000 PUSH0 DUP3 ADD MSTORE POP JUMP JUMPDEST PUSH0 PUSH2 0x14F7 PUSH1 0x18 DUP4 PUSH2 0xD78 JUMP JUMPDEST SWAP2 POP PUSH2 0x1502 DUP3 PUSH2 0x14C3 JUMP JUMPDEST PUSH1 0x20 DUP3 ADD SWAP1 POP SWAP2 SWAP1 POP JUMP JUMPDEST PUSH0 PUSH1 0x20 DUP3 ADD SWAP1 POP DUP2 DUP2 SUB PUSH0 DUP4 ADD MSTORE PUSH2 0x1524 DUP2 PUSH2 0x14EB JUMP JUMPDEST SWAP1 POP SWAP2 SWAP1 POP JUMP JUMPDEST PUSH32 0x456C656374696F6E206973207374696C6C206F6E676F696E6700000000000000 PUSH0 DUP3 ADD MSTORE POP JUMP JUMPDEST PUSH0 PUSH2 0x155F PUSH1 0x19 DUP4 PUSH2 0xD78 JUMP JUMPDEST SWAP2 POP PUSH2 0x156A DUP3 PUSH2 0x152B JUMP JUMPDEST PUSH1 0x20 DUP3 ADD SWAP1 POP SWAP2 SWAP1 POP JUMP JUMPDEST PUSH0 PUSH1 0x20 DUP3 ADD SWAP1 POP DUP2 DUP2 SUB PUSH0 DUP4 ADD MSTORE PUSH2 0x158C DUP2 PUSH2 0x1553 JUMP JUMPDEST SWAP1 POP SWAP2 SWAP1 POP JUMP JUMPDEST PUSH0 DUP2 SWAP1 POP DUP2 PUSH0 MSTORE PUSH1 0x20 PUSH0 KECCAK256 SWAP1 POP SWAP2 SWAP1 POP JUMP JUMPDEST PUSH0 PUSH1 0x20 PUSH1 0x1F DUP4 ADD DIV SWAP1 POP SWAP2 SWAP1 POP JUMP JUMPDEST PUSH0 DUP3 DUP3 SHL SWAP1 POP SWAP3 SWAP2 POP POP JUMP JUMPDEST PUSH0 PUSH1 0x8 DUP4 MUL PUSH2 0x15EF PUSH32 0xFFFFFFFFFFFFFFFFFFFFFFFFFFFFFFFFFFFFFFFFFFFFFFFFFFFFFFFFFFFFFFFF DUP3 PUSH2 0x15B4 JUMP JUMPDEST PUSH2 0x15F9 DUP7 DUP4 PUSH2 0x15B4 JUMP JUMPDEST SWAP6 POP DUP1 NOT DUP5 AND SWAP4 POP DUP1 DUP7 AND DUP5 OR SWAP3 POP POP POP SWAP4 SWAP3 POP POP POP JUMP JUMPDEST PUSH0 DUP2 SWAP1 POP SWAP2 SWAP1 POP JUMP JUMPDEST PUSH0 PUSH2 0x1634 PUSH2 0x162F PUSH2 0x162A DUP5 PUSH2 0xCE8 JUMP JUMPDEST PUSH2 0x1611 JUMP JUMPDEST PUSH2 0xCE8 JUMP JUMPDEST SWAP1 POP SWAP2 SWAP1 POP JUMP JUMPDEST PUSH0 DUP2 SWAP1 POP SWAP2 SWAP1 POP JUMP JUMPDEST PUSH2 0x164D DUP4 PUSH2 0x161A JUMP JUMPDEST PUSH2 0x1661 PUSH2 0x1659 DUP3 PUSH2 0x163B JUMP JUMPDEST DUP5 DUP5 SLOAD PUSH2 0x15C0 JUMP JUMPDEST DUP3 SSTORE POP POP POP POP JUMP JUMPDEST PUSH0 SWAP1 JUMP JUMPDEST PUSH2 0x1675 PUSH2 0x1669 JUMP JUMPDEST PUSH2 0x1680 DUP2 DUP5 DUP5 PUSH2 0x1644 JUMP JUMPDEST POP POP POP JUMP JUMPDEST JUMPDEST DUP2 DUP2 LT ISZERO PUSH2 0x16A3 JUMPI PUSH2 0x1698 PUSH0 DUP3 PUSH2 0x166D JUMP JUMPDEST PUSH1 0x1 DUP2 ADD SWAP1 POP PUSH2 0x1686 JUMP JUMPDEST POP POP JUMP JUMPDEST PUSH1 0x1F DUP3 GT ISZERO PUSH2 0x16E8 JUMPI PUSH2 0x16B9 DUP2 PUSH2 0x1593 JUMP JUMPDEST PUSH2 0x16C2 DUP5 PUSH2 0x15A5 JUMP JUMPDEST DUP2 ADD PUSH1 0x20 DUP6 LT ISZERO PUSH2 0x16D1 JUMPI DUP2 SWAP1 POP JUMPDEST PUSH2 0x16E5 PUSH2 0x16DD DUP6 PUSH2 0x15A5 JUMP JUMPDEST DUP4 ADD DUP3 PUSH2 0x1685 JUMP JUMPDEST POP POP JUMPDEST POP POP POP JUMP JUMPDEST PUSH0 DUP3 DUP3 SHR SWAP1 POP SWAP3 SWAP2 POP POP JUMP JUMPDEST PUSH0 PUSH2 0x1708 PUSH0 NOT DUP5 PUSH1 0x8 MUL PUSH2 0x16ED JUMP JUMPDEST NOT DUP1 DUP4 AND SWAP2 POP POP SWAP3 SWAP2 POP POP JUMP JUMPDEST PUSH0 PUSH2 0x1720 DUP4 DUP4 PUSH2 0x16F9 JUMP JUMPDEST SWAP2 POP DUP3 PUSH1 0x2 MUL DUP3 OR SWAP1 POP SWAP3 SWAP2 POP POP JUMP JUMPDEST PUSH2 0x1739 DUP3 PUSH2 0xD6E JUMP JUMPDEST PUSH8 0xFFFFFFFFFFFFFFFF DUP2 GT ISZERO PUSH2 0x1752 JUMPI PUSH2 0x1751 PUSH2 0xEB9 JUMP JUMPDEST JUMPDEST PUSH2 0x175C DUP3 SLOAD PUSH2 0x1335 JUMP JUMPDEST PUSH2 0x1767 DUP3 DUP3 DUP6 PUSH2 0x16A7 JUMP JUMPDEST PUSH0 PUSH1 0x20 SWAP1 POP PUSH1 0x1F DUP4 GT PUSH1 0x1 DUP2 EQ PUSH2 0x1798 JUMPI PUSH0 DUP5 ISZERO PUSH2 0x1786 JUMPI DUP3 DUP8 ADD MLOAD SWAP1 POP JUMPDEST PUSH2 0x1790 DUP6 DUP3 PUSH2 0x1715 JUMP JUMPDEST DUP7 SSTORE POP PUSH2 0x17F7 JUMP JUMPDEST PUSH1 0x1F NOT DUP5 AND PUSH2 0x17A6 DUP7 PUSH2 0x1593 JUMP JUMPDEST PUSH0 JUMPDEST DUP3 DUP2 LT ISZERO PUSH2 0x17CD JUMPI DUP5 DUP10 ADD MLOAD DUP3 SSTORE PUSH1 0x1 DUP3 ADD SWAP2 POP PUSH1 0x20 DUP6 ADD SWAP5 POP PUSH1 0x20 DUP2 ADD SWAP1 POP PUSH2 0x17A8 JUMP JUMPDEST DUP7 DUP4 LT ISZERO PUSH2 0x17EA JUMPI DUP5 DUP10 ADD MLOAD PUSH2 0x17E6 PUSH1 0x1F DUP10 AND DUP3 PUSH2 0x16F9 JUMP JUMPDEST DUP4 SSTORE POP JUMPDEST PUSH1 0x1 PUSH1 0x2 DUP9 MUL ADD DUP9 SSTORE POP POP POP JUMPDEST POP POP POP POP POP POP JUMP INVALID LOG2 PUSH5 0x6970667358 0x22 SLT KECCAK256 0x2B 0xB8 PUSH20 0x1FBD302F0AF96B7C161146E57BC2501E952D3760 0xF7 0x29 SWAP12 0x4C 0x4C 0x2E REVERT 0xF 0xE0 PUSH5 0x736F6C6343 STOP ADDMOD BYTE STOP CALLER "
				},
				"gasEstimates": {
					"creation": {
						"codeDepositCost": "1239400",
						"executionCost": "49816",
						"totalCost": "1289216"
					},
					"external": {
						"candidates(uint256)": "infinite",
						"electionCommission()": "2571",
						"electionStarted()": "2576",
						"endElection()": "29610",
						"getCandidateCount()": "2463",
						"getCandidateVoteCount(uint256)": "infinite",
						"getWinner()": "infinite",
						"registerCandidate(string)": "infinite",
						"registerVoter(address)": "infinite",
						"startElection()": "31748",
						"vote(uint256)": "infinite",
						"voters(address)": "infinite"
					}
				},
				"methodIdentifiers": {
					"candidates(uint256)": "3477ee2e",
					"electionCommission()": "aab46b7f",
					"electionStarted()": "d5346da1",
					"endElection()": "59f78468",
					"getCandidateCount()": "30a56347",
					"getCandidateVoteCount(uint256)": "b315c597",
					"getWinner()": "8e7ea5b2",
					"registerCandidate(string)": "9eb88db6",
					"registerVoter(address)": "38db6dd3",
					"startElection()": "62d73eb8",
					"vote(uint256)": "0121b93f",
					"voters(address)": "a3ec138d"
				}
			},
			"storageLayout": {
				"storage": [
					{
						"astId": 15,
						"contract": "contracts/voting.sol:EVoting",
						"label": "electionCommission",
						"offset": 0,
						"slot": "0",
						"type": "t_address"
					},
					{
						"astId": 20,
						"contract": "contracts/voting.sol:EVoting",
						"label": "voters",
						"offset": 0,
						"slot": "1",
						"type": "t_mapping(t_address,t_struct(Voter)8_storage)"
					},
					{
						"astId": 24,
						"contract": "contracts/voting.sol:EVoting",
						"label": "candidates",
						"offset": 0,
						"slot": "2",
						"type": "t_array(t_struct(Candidate)13_storage)dyn_storage"
					},
					{
						"astId": 26,
						"contract": "contracts/voting.sol:EVoting",
						"label": "electionStarted",
						"offset": 0,
						"slot": "3",
						"type": "t_bool"
					}
				],
				"types": {
					"t_address": {
						"encoding": "inplace",
						"label": "address",
						"numberOfBytes": "20"
					},
					"t_array(t_struct(Candidate)13_storage)dyn_storage": {
						"base": "t_struct(Candidate)13_storage",
						"encoding": "dynamic_array",
						"label": "struct EVoting.Candidate[]",
						"numberOfBytes": "32"
					},
					"t_bool": {
						"encoding": "inplace",
						"label": "bool",
						"numberOfBytes": "1"
					},
					"t_mapping(t_address,t_struct(Voter)8_storage)": {
						"encoding": "mapping",
						"key": "t_address",
						"label": "mapping(address => struct EVoting.Voter)",
						"numberOfBytes": "32",
						"value": "t_struct(Voter)8_storage"
					},
					"t_string_storage": {
						"encoding": "bytes",
						"label": "string",
						"numberOfBytes": "32"
					},
					"t_struct(Candidate)13_storage": {
						"encoding": "inplace",
						"label": "struct EVoting.Candidate",
						"members": [
							{
								"astId": 10,
								"contract": "contracts/voting.sol:EVoting",
								"label": "name",
								"offset": 0,
								"slot": "0",
								"type": "t_string_storage"
							},
							{
								"astId": 12,
								"contract": "contracts/voting.sol:EVoting",
								"label": "voteCount",
								"offset": 0,
								"slot": "1",
								"type": "t_uint256"
							}
						],
						"numberOfBytes": "64"
					},
					"t_struct(Voter)8_storage": {
						"encoding": "inplace",
						"label": "struct EVoting.Voter",
						"members": [
							{
								"astId": 3,
								"contract": "contracts/voting.sol:EVoting",
								"label": "isRegistered",
								"offset": 0,
								"slot": "0",
								"type": "t_bool"
							},
							{
								"astId": 5,
								"contract": "contracts/voting.sol:EVoting",
								"label": "hasVoted",
								"offset": 1,
								"slot": "0",
								"type": "t_bool"
							},
							{
								"astId": 7,
								"contract": "contracts/voting.sol:EVoting",
								"label": "vote",
								"offset": 0,
								"slot": "1",
								"type": "t_uint256"
							}
						],
						"numberOfBytes": "64"
					},
					"t_uint256": {
						"encoding": "inplace",
						"label": "uint256",
						"numberOfBytes": "32"
					}
				}
			},
			"userdoc": {
				"kind": "user",
				"methods": {},
				"version": 1
			}
		}
	}
}